{
  "transactions": [
    {
      "hash": "0xdc96e4a4ea551a5fa0d6ce1917d082722139f5342564179c1fbc515e7e52939d",
      "transactionType": "CALL",
      "contractName": null,
      "contractAddress": "0xe5295e92c18de8a07e631e1c6154cb4eec315640",
      "function": "initializePool((address,address,uint24,int24,address),(address,bytes,uint256,uint256,uint256),uint256)",
      "arguments": [
        "(0x50fe7A20bce36977299F59a5F6FbE61b9f17738E, 0x6eE57CFf2481a83e1a47dEF1D4c3D7866123a5e1, 3000, 60, 0xE5295e92c18De8A07E631e1C6154cb4eEC315640)",
        "(0x22BEA8EB8A3d61Cb183E1Bd048DC177F9E383E51, 0x0000000000000000000000000000000000000000000000000000000000278d00, 800000000000000000, 300000000000000000, 150000000000000000)",
        "100000000000000"
      ],
      "transaction": {
        "from": "0xeeb3e0999d01f0d1ed465513e414725a357f6ae4",
        "to": "0xe5295e92c18de8a07e631e1c6154cb4eec315640",
        "gas": "0x7640d",
        "value": "0x0",
        "input": "0xf6d2cc1a00000000000000000000000050fe7a20bce36977299f59a5f6fbe61b9f17738e0000000000000000000000006ee57cff2481a83e1a47def1d4c3d7866123a5e10000000000000000000000000000000000000000000000000000000000000bb8000000000000000000000000000000000000000000000000000000000000003c000000000000000000000000e5295e92c18de8a07e631e1c6154cb4eec31564000000000000000000000000000000000000000000000000000000000000000e000000000000000000000000000000000000000000000000000005af3107a400000000000000000000000000022bea8eb8a3d61cb183e1bd048dc177f9e383e5100000000000000000000000000000000000000000000000000000000000000a00000000000000000000000000000000000000000000000000b1a2bc2ec5000000000000000000000000000000000000000000000000000000429d069189e00000000000000000000000000000000000000000000000000000214e8348c4f000000000000000000000000000000000000000000000000000000000000000000200000000000000000000000000000000000000000000000000000000000278d00",
        "nonce": "0xa0",
        "chainId": "0x515"
      },
      "additionalContracts": [],
      "isFixedGasLimit": false
    },
    {
      "hash": "0xe72d117e37764a73397be75b4d39027aca3261c414bb7e9f9ba826e35fe74fbb",
      "transactionType": "CALL",
      "contractName": null,
      "contractAddress": "0x50fe7a20bce36977299f59a5f6fbe61b9f17738e",
      "function": "approve(address,uint256)",
      "arguments": [
        "0x000000000022D473030F116dDEE9F6B43aC78BA3",
        "115792089237316195423570985008687907853269984665640564039457584007913129639935"
      ],
      "transaction": {
        "from": "0xeeb3e0999d01f0d1ed465513e414725a357f6ae4",
        "to": "0x50fe7a20bce36977299f59a5f6fbe61b9f17738e",
        "gas": "0xfa9c",
        "value": "0x0",
        "input": "0x095ea7b3000000000000000000000000000000000022d473030f116ddee9f6b43ac78ba3ffffffffffffffffffffffffffffffffffffffffffffffffffffffffffffffff",
        "nonce": "0xa1",
        "chainId": "0x515"
      },
      "additionalContracts": [],
      "isFixedGasLimit": false
    },
    {
      "hash": "0x18e80ba14e8f826e807124415e7ea9a64b3ea44fc4723b0b21e8df3bb1f34a54",
      "transactionType": "CALL",
      "contractName": null,
      "contractAddress": "0x6ee57cff2481a83e1a47def1d4c3d7866123a5e1",
      "function": "approve(address,uint256)",
      "arguments": [
        "0x000000000022D473030F116dDEE9F6B43aC78BA3",
        "115792089237316195423570985008687907853269984665640564039457584007913129639935"
      ],
      "transaction": {
        "from": "0xeeb3e0999d01f0d1ed465513e414725a357f6ae4",
        "to": "0x6ee57cff2481a83e1a47def1d4c3d7866123a5e1",
        "gas": "0xfa9c",
        "value": "0x0",
        "input": "0x095ea7b3000000000000000000000000000000000022d473030f116ddee9f6b43ac78ba3ffffffffffffffffffffffffffffffffffffffffffffffffffffffffffffffff",
        "nonce": "0xa2",
        "chainId": "0x515"
      },
      "additionalContracts": [],
      "isFixedGasLimit": false
    },
    {
      "hash": "0xb38b32e2141a1d47dce4aa691985b0f30e3e9fd076a7b68268def2608e40972b",
      "transactionType": "CALL",
      "contractName": null,
      "contractAddress": "0x000000000022d473030f116ddee9f6b43ac78ba3",
      "function": "approve(address,address,uint160,uint48)",
      "arguments": [
        "0x50fe7A20bce36977299F59a5F6FbE61b9f17738E",
        "0xf969Aee60879C54bAAed9F3eD26147Db216Fd664",
        "1461501637330902918203684832716283019655932542975",
        "281474976710655"
      ],
      "transaction": {
        "from": "0xeeb3e0999d01f0d1ed465513e414725a357f6ae4",
        "to": "0x000000000022d473030f116ddee9f6b43ac78ba3",
        "gas": "0x1112d",
        "value": "0x0",
        "input": "0x87517c4500000000000000000000000050fe7a20bce36977299f59a5f6fbe61b9f17738e000000000000000000000000f969aee60879c54baaed9f3ed26147db216fd664000000000000000000000000ffffffffffffffffffffffffffffffffffffffff0000000000000000000000000000000000000000000000000000ffffffffffff",
        "nonce": "0xa3",
        "chainId": "0x515"
      },
      "additionalContracts": [],
      "isFixedGasLimit": false
    },
    {
      "hash": "0x878184c374bd2c95b97295849ef8bf3bfe86b25a061aa721964036910cde70d3",
      "transactionType": "CALL",
      "contractName": null,
      "contractAddress": "0x000000000022d473030f116ddee9f6b43ac78ba3",
      "function": "approve(address,address,uint160,uint48)",
      "arguments": [
        "0x6eE57CFf2481a83e1a47dEF1D4c3D7866123a5e1",
        "0xf969Aee60879C54bAAed9F3eD26147Db216Fd664",
        "1461501637330902918203684832716283019655932542975",
        "281474976710655"
      ],
      "transaction": {
        "from": "0xeeb3e0999d01f0d1ed465513e414725a357f6ae4",
        "to": "0x000000000022d473030f116ddee9f6b43ac78ba3",
        "gas": "0x1112d",
        "value": "0x0",
        "input": "0x87517c450000000000000000000000006ee57cff2481a83e1a47def1d4c3d7866123a5e1000000000000000000000000f969aee60879c54baaed9f3ed26147db216fd664000000000000000000000000ffffffffffffffffffffffffffffffffffffffff0000000000000000000000000000000000000000000000000000ffffffffffff",
        "nonce": "0xa4",
        "chainId": "0x515"
      },
      "additionalContracts": [],
      "isFixedGasLimit": false
    },
    {
      "hash": "0x60ae422b712b40e16d175de1bcfdea09bb2fa6034dfee757d1fc0c3e393c6f10",
      "transactionType": "CALL",
      "contractName": null,
      "contractAddress": "0xf969aee60879c54baaed9f3ed26147db216fd664",
      "function": "multicall(bytes[])",
      "arguments": [
        "[0xf702040500000000000000000000000050fe7a20bce36977299f59a5f6fbe61b9f17738e0000000000000000000000006ee57cff2481a83e1a47def1d4c3d7866123a5e10000000000000000000000000000000000000000000000000000000000000bb8000000000000000000000000000000000000000000000000000000000000003c000000000000000000000000e5295e92c18de8a07e631e1c6154cb4eec3156400000000000000000000000000000000000000001000000000000000000000000, 0xdd46508f00000000000000000000000000000000000000000000000000000000000000400000000000000000000000000000000000000000000000000000000069bc9a4a0000000000000000000000000000000000000000000000000000000000000320000000000000000000000000000000000000000000000000000000000000004000000000000000000000000000000000000000000000000000000000000000800000000000000000000000000000000000000000000000000000000000000002020d00000000000000000000000000000000000000000000000000000000000000000000000000000000000000000000000000000000000000000000000000020000000000000000000000000000000000000000000000000000000000000040000000000000000000000000000000000000000000000000000000000000022000000000000000000000000000000000000000000000000000000000000001c000000000000000000000000050fe7a20bce36977299f59a5f6fbe61b9f17738e0000000000000000000000006ee57cff2481a83e1a47def1d4c3d7866123a5e10000000000000000000000000000000000000000000000000000000000000bb8000000000000000000000000000000000000000000000000000000000000003c000000000000000000000000e5295e92c18de8a07e631e1c6154cb4eec315640fffffffffffffffffffffffffffffffffffffffffffffffffffffffffff2764c00000000000000000000000000000000000000000000000000000000000d89b400000000000000000000000000000000000000000000152d02c7e14af680000000000000000000000000000000000000ffffffffffffffffffffffffffffffff00000000000000000000000000000000ffffffffffffffffffffffffffffffff000000000000000000000000eeb3e0999d01f0d1ed465513e414725a357f6ae400000000000000000000000000000000000000000000000000000000000001800000000000000000000000000000000000000000000000000000000000000020000000000000000000000000eeb3e0999d01f0d1ed465513e414725a357f6ae4000000000000000000000000000000000000000000000000000000000000004000000000000000000000000050fe7a20bce36977299f59a5f6fbe61b9f17738e0000000000000000000000006ee57cff2481a83e1a47def1d4c3d7866123a5e1]"
      ],
      "transaction": {
        "from": "0xeeb3e0999d01f0d1ed465513e414725a357f6ae4",
        "to": "0xf969aee60879c54baaed9f3ed26147db216fd664",
        "gas": "0x10de57",
        "value": "0x0",
        "input": "0xac9650d8000000000000000000000000000000000000000000000000000000000000002000000000000000000000000000000000000000000000000000000000000000020000000000000000000000000000000000000000000000000000000000000040000000000000000000000000000000000000000000000000000000000000014000000000000000000000000000000000000000000000000000000000000000c4f702040500000000000000000000000050fe7a20bce36977299f59a5f6fbe61b9f17738e0000000000000000000000006ee57cff2481a83e1a47def1d4c3d7866123a5e10000000000000000000000000000000000000000000000000000000000000bb8000000000000000000000000000000000000000000000000000000000000003c000000000000000000000000e5295e92c18de8a07e631e1c6154cb4eec3156400000000000000000000000000000000000000001000000000000000000000000000000000000000000000000000000000000000000000000000000000000000000000000000000000000000000000000000000000000000000000384dd46508f00000000000000000000000000000000000000000000000000000000000000400000000000000000000000000000000000000000000000000000000069bc9a4a0000000000000000000000000000000000000000000000000000000000000320000000000000000000000000000000000000000000000000000000000000004000000000000000000000000000000000000000000000000000000000000000800000000000000000000000000000000000000000000000000000000000000002020d00000000000000000000000000000000000000000000000000000000000000000000000000000000000000000000000000000000000000000000000000020000000000000000000000000000000000000000000000000000000000000040000000000000000000000000000000000000000000000000000000000000022000000000000000000000000000000000000000000000000000000000000001c000000000000000000000000050fe7a20bce36977299f59a5f6fbe61b9f17738e0000000000000000000000006ee57cff2481a83e1a47def1d4c3d7866123a5e10000000000000000000000000000000000000000000000000000000000000bb8000000000000000000000000000000000000000000000000000000000000003c000000000000000000000000e5295e92c18de8a07e631e1c6154cb4eec315640fffffffffffffffffffffffffffffffffffffffffffffffffffffffffff2764c00000000000000000000000000000000000000000000000000000000000d89b400000000000000000000000000000000000000000000152d02c7e14af680000000000000000000000000000000000000ffffffffffffffffffffffffffffffff00000000000000000000000000000000ffffffffffffffffffffffffffffffff000000000000000000000000eeb3e0999d01f0d1ed465513e414725a357f6ae400000000000000000000000000000000000000000000000000000000000001800000000000000000000000000000000000000000000000000000000000000020000000000000000000000000eeb3e0999d01f0d1ed465513e414725a357f6ae4000000000000000000000000000000000000000000000000000000000000004000000000000000000000000050fe7a20bce36977299f59a5f6fbe61b9f17738e0000000000000000000000006ee57cff2481a83e1a47def1d4c3d7866123a5e100000000000000000000000000000000000000000000000000000000",
        "nonce": "0xa5",
        "chainId": "0x515"
      },
      "additionalContracts": [],
      "isFixedGasLimit": false
    }
  ],
  "receipts": [
    {
      "status": "0x1",
      "cumulativeGasUsed": "0xcecf2",
      "logs": [
        {
          "address": "0x2d6def49aa9debfc19fa9691cc5755d4ba0d1f6a",
          "topics": [
            "0x43641244aeefd8de6827c26f36450aa6165c9fef65ddfa7262da93ba648464d2",
            "0x98a0654208321eb09543288611e049fbc4750bc77b9cbae65821e54aec552245"
          ],
          "data": "0x",
          "blockHash": "0xbb7526739ce04ed6c0959ef5bd0f272cd477c2b8200e702a4e95b7b0ddc9eedf",
          "blockNumber": "0x2ceeaba",
          "blockTimestamp": "0x69bc9806",
          "transactionHash": "0x18e80ba14e8f826e807124415e7ea9a64b3ea44fc4723b0b21e8df3bb1f34a54",
          "transactionIndex": "0x6",
          "logIndex": "0x7",
          "removed": false
        },
        {
          "address": "0xd9a1053f3a81e38f4d91622a88936a8417736d00",
          "topics": [
            "0xee3f3e9c9c6c1b0da06bfc5c6ed0cb10292f68ef1ab10eb7f41e58286e6e31e3",
            "0x98a0654208321eb09543288611e049fbc4750bc77b9cbae65821e54aec552245",
            "0x00000000000000000000000022bea8eb8a3d61cb183e1bd048dc177f9e383e51"
          ],
          "data": "0x0000000000000000000000000000000000000000000000000b1a2bc2ec5000000000000000000000000000000000000000000000000000000429d069189e00000000000000000000000000000000000000000000000000000214e8348c4f0000",
          "blockHash": "0xbb7526739ce04ed6c0959ef5bd0f272cd477c2b8200e702a4e95b7b0ddc9eedf",
          "blockNumber": "0x2ceeaba",
          "blockTimestamp": "0x69bc9806",
          "transactionHash": "0x18e80ba14e8f826e807124415e7ea9a64b3ea44fc4723b0b21e8df3bb1f34a54",
          "transactionIndex": "0x6",
          "logIndex": "0x8",
          "removed": false
        },
        {
          "address": "0xd9a1053f3a81e38f4d91622a88936a8417736d00",
          "topics": [
            "0xf8cbf5e5e5347dcdff96eb47e3038a64e231cfde7efffbb7de82966ed8ef154f",
            "0x000000000000051511e049fbc4750bc77b9cbae65821e54aec55224500000000",
            "0x98a0654208321eb09543288611e049fbc4750bc77b9cbae65821e54aec552245"
          ],
          "data": "0x0000000000000000000000000000000000000000000000000000000069bc98060000000000000000000000000000000000000000000000000000000069e4250600000000000000000000000000000000000000000000000000005af3107a4000",
          "blockHash": "0xbb7526739ce04ed6c0959ef5bd0f272cd477c2b8200e702a4e95b7b0ddc9eedf",
          "blockNumber": "0x2ceeaba",
          "blockTimestamp": "0x69bc9806",
          "transactionHash": "0x18e80ba14e8f826e807124415e7ea9a64b3ea44fc4723b0b21e8df3bb1f34a54",
          "transactionIndex": "0x6",
          "logIndex": "0x9",
          "removed": false
        },
        {
          "address": "0xe5295e92c18de8a07e631e1c6154cb4eec315640",
          "topics": [
            "0x43641244aeefd8de6827c26f36450aa6165c9fef65ddfa7262da93ba648464d2",
            "0x98a0654208321eb09543288611e049fbc4750bc77b9cbae65821e54aec552245"
          ],
          "data": "0x",
          "blockHash": "0xbb7526739ce04ed6c0959ef5bd0f272cd477c2b8200e702a4e95b7b0ddc9eedf",
          "blockNumber": "0x2ceeaba",
          "blockTimestamp": "0x69bc9806",
          "transactionHash": "0x18e80ba14e8f826e807124415e7ea9a64b3ea44fc4723b0b21e8df3bb1f34a54",
          "transactionIndex": "0x6",
          "logIndex": "0xa",
          "removed": false
        }
      ],
      "logsBloom": "0x04000000000000000000000000000000000000100000000001000000000100010000000000000000000000000000000000000000000040000000040000020000000000000000000100000000000000000000000000000000000000000000000000400000000000000000000000000000000000000010000000000000000000000000000000000000000000000001000000000000000000000000000000000000001000000000000000000840020000000000000000000000000000000000024000000000000800000000000104000000000000040400000000000000000000000040000000000c40000000000000000000000000000000000000000000000000",
      "type": "0x2",
      "transactionHash": "0x18e80ba14e8f826e807124415e7ea9a64b3ea44fc4723b0b21e8df3bb1f34a54",
      "transactionIndex": "0x6",
      "blockHash": "0xbb7526739ce04ed6c0959ef5bd0f272cd477c2b8200e702a4e95b7b0ddc9eedf",
      "blockNumber": "0x2ceeaba",
      "gasUsed": "0x559d0",
      "effectiveGasPrice": "0x7a121",
      "blobGasUsed": "0x13880",
      "from": "0xeeb3e0999d01f0d1ed465513e414725a357f6ae4",
      "to": "0xe5295e92c18de8a07e631e1c6154cb4eec315640",
      "contractAddress": null,
      "daFootprintGasScalar": "0x190",
      "l1BaseFeeScalar": "0x7d0",
      "l1BlobBaseFee": "0x1",
      "l1BlobBaseFeeScalar": "0xdbba0",
      "l1Fee": "0xee",
      "l1GasPrice": "0x9",
      "l1GasUsed": "0xc8d"
    },
    {
      "status": "0x1",
      "cumulativeGasUsed": "0xf1294",
      "logs": [
        {
          "address": "0x50fe7a20bce36977299f59a5f6fbe61b9f17738e",
          "topics": [
            "0x8c5be1e5ebec7d5bd14f71427d1e84f3dd0314c0f7b2291e5b200ac8c7c3b925",
            "0x000000000000000000000000eeb3e0999d01f0d1ed465513e414725a357f6ae4",
            "0x000000000000000000000000000000000022d473030f116ddee9f6b43ac78ba3"
          ],
          "data": "0xffffffffffffffffffffffffffffffffffffffffffffffffffffffffffffffff",
          "blockHash": "0xbb7526739ce04ed6c0959ef5bd0f272cd477c2b8200e702a4e95b7b0ddc9eedf",
          "blockNumber": "0x2ceeaba",
          "blockTimestamp": "0x69bc9806",
          "transactionHash": "0x60ae422b712b40e16d175de1bcfdea09bb2fa6034dfee757d1fc0c3e393c6f10",
          "transactionIndex": "0x8",
          "logIndex": "0xc",
          "removed": false
        }
      ],
      "logsBloom": "0x00000000000000000000000000000000000000000000000000000000000000000000000000000000000000000000000000000000800000000000000000200020000000000000000000004000000000000000000000000800000000000000000000000000000000000000000000000080000000000000000100000000000100000000000000000000000000000000000000000000000000000000000000000000020000000000000000000000000000000000000000000000000001000000000000000100000000000000000000000000000000000000000000000000000000000010000000000000000000000000000000000000000000000000000000000000",
      "type": "0x2",
      "transactionHash": "0x60ae422b712b40e16d175de1bcfdea09bb2fa6034dfee757d1fc0c3e393c6f10",
      "transactionIndex": "0x8",
      "blockHash": "0xbb7526739ce04ed6c0959ef5bd0f272cd477c2b8200e702a4e95b7b0ddc9eedf",
      "blockNumber": "0x2ceeaba",
      "gasUsed": "0xb570",
      "effectiveGasPrice": "0x7a121",
      "blobGasUsed": "0x9c40",
      "from": "0xeeb3e0999d01f0d1ed465513e414725a357f6ae4",
      "to": "0x50fe7a20bce36977299f59a5f6fbe61b9f17738e",
      "contractAddress": null,
      "daFootprintGasScalar": "0x190",
      "l1BaseFeeScalar": "0x7d0",
      "l1BlobBaseFee": "0x1",
      "l1BlobBaseFeeScalar": "0xdbba0",
      "l1Fee": "0x76",
      "l1GasPrice": "0x9",
      "l1GasUsed": "0x640"
    },
    {
      "status": "0x1",
      "cumulativeGasUsed": "0xfc804",
      "logs": [
        {
          "address": "0x6ee57cff2481a83e1a47def1d4c3d7866123a5e1",
          "topics": [
            "0x8c5be1e5ebec7d5bd14f71427d1e84f3dd0314c0f7b2291e5b200ac8c7c3b925",
            "0x000000000000000000000000eeb3e0999d01f0d1ed465513e414725a357f6ae4",
            "0x000000000000000000000000000000000022d473030f116ddee9f6b43ac78ba3"
          ],
          "data": "0xffffffffffffffffffffffffffffffffffffffffffffffffffffffffffffffff",
          "blockHash": "0xbb7526739ce04ed6c0959ef5bd0f272cd477c2b8200e702a4e95b7b0ddc9eedf",
          "blockNumber": "0x2ceeaba",
          "blockTimestamp": "0x69bc9806",
          "transactionHash": "0xb38b32e2141a1d47dce4aa691985b0f30e3e9fd076a7b68268def2608e40972b",
          "transactionIndex": "0x9",
          "logIndex": "0xd",
          "removed": false
        }
      ],
      "logsBloom": "0x00000000000000000000000000000000000000000000000000000000000000000000000000000000000000000000000000000000800000000000000000204060000000000000000000004000000000000000000000000800000000000000000000000000000000000000000000000080000000000000000000000000000000000000000000000000000000000000000000000000000000000000000000000000020000000000000000000000000000000000800000000000000000000000000000000100000000000000000000000000000000000000000000000000000000000010000000000000000000000000000000000000000000000000000000000000",
      "type": "0x2",
      "transactionHash": "0xb38b32e2141a1d47dce4aa691985b0f30e3e9fd076a7b68268def2608e40972b",
      "transactionIndex": "0x9",
      "blockHash": "0xbb7526739ce04ed6c0959ef5bd0f272cd477c2b8200e702a4e95b7b0ddc9eedf",
      "blockNumber": "0x2ceeaba",
      "gasUsed": "0xb570",
      "effectiveGasPrice": "0x7a121",
      "blobGasUsed": "0x9c40",
      "from": "0xeeb3e0999d01f0d1ed465513e414725a357f6ae4",
      "to": "0x6ee57cff2481a83e1a47def1d4c3d7866123a5e1",
      "contractAddress": null,
      "daFootprintGasScalar": "0x190",
      "l1BaseFeeScalar": "0x7d0",
      "l1BlobBaseFee": "0x1",
      "l1BlobBaseFeeScalar": "0xdbba0",
      "l1Fee": "0x76",
      "l1GasPrice": "0x9",
      "l1GasUsed": "0x640"
    },
    {
      "status": "0x1",
      "cumulativeGasUsed": "0x1082ce",
      "logs": [
        {
          "address": "0x000000000022d473030f116ddee9f6b43ac78ba3",
          "topics": [
            "0xda9fa7c1b00402c17d0161b249b1ab8bbec047c5a52207b9c112deffd817036b",
            "0x000000000000000000000000eeb3e0999d01f0d1ed465513e414725a357f6ae4",
            "0x00000000000000000000000050fe7a20bce36977299f59a5f6fbe61b9f17738e",
            "0x000000000000000000000000f969aee60879c54baaed9f3ed26147db216fd664"
          ],
          "data": "0x000000000000000000000000ffffffffffffffffffffffffffffffffffffffff0000000000000000000000000000000000000000000000000000ffffffffffff",
          "blockHash": "0xbb7526739ce04ed6c0959ef5bd0f272cd477c2b8200e702a4e95b7b0ddc9eedf",
          "blockNumber": "0x2ceeaba",
          "blockTimestamp": "0x69bc9806",
          "transactionHash": "0xe72d117e37764a73397be75b4d39027aca3261c414bb7e9f9ba826e35fe74fbb",
          "transactionIndex": "0xa",
          "logIndex": "0xe",
          "removed": false
        }
      ],
      "logsBloom": "0x00010000000000000000000000000000000000000000000000000000000000000000000000000000000000000000000000000000000000000000000000080020000000000000000000000000000000000000008000000000000000001000000000000000000000000000000000000080000000000040000000000000000000000020000000000020000000000000000000000000000000000000000000000000000000000000000000000000000000000000000000000000000000080000000000000100000000000000000000000000000000000000000040000000000000000000000000000000000000000000000000000000000000000004000000002400",
      "type": "0x2",
      "transactionHash": "0xe72d117e37764a73397be75b4d39027aca3261c414bb7e9f9ba826e35fe74fbb",
      "transactionIndex": "0xa",
      "blockHash": "0xbb7526739ce04ed6c0959ef5bd0f272cd477c2b8200e702a4e95b7b0ddc9eedf",
      "blockNumber": "0x2ceeaba",
      "gasUsed": "0xbaca",
      "effectiveGasPrice": "0x7a121",
      "blobGasUsed": "0xaa50",
      "from": "0xeeb3e0999d01f0d1ed465513e414725a357f6ae4",
      "to": "0x000000000022d473030f116ddee9f6b43ac78ba3",
      "contractAddress": null,
      "daFootprintGasScalar": "0x190",
      "l1BaseFeeScalar": "0x7d0",
      "l1BlobBaseFee": "0x1",
      "l1BlobBaseFeeScalar": "0xdbba0",
      "l1Fee": "0x82",
      "l1GasPrice": "0x9",
      "l1GasUsed": "0x6da"
    },
    {
      "status": "0x1",
      "cumulativeGasUsed": "0x12adca",
      "logs": [
        {
          "address": "0x000000000022d473030f116ddee9f6b43ac78ba3",
          "topics": [
            "0xda9fa7c1b00402c17d0161b249b1ab8bbec047c5a52207b9c112deffd817036b",
            "0x000000000000000000000000eeb3e0999d01f0d1ed465513e414725a357f6ae4",
            "0x0000000000000000000000006ee57cff2481a83e1a47def1d4c3d7866123a5e1",
            "0x000000000000000000000000f969aee60879c54baaed9f3ed26147db216fd664"
          ],
          "data": "0x000000000000000000000000ffffffffffffffffffffffffffffffffffffffff0000000000000000000000000000000000000000000000000000ffffffffffff",
          "blockHash": "0xbb7526739ce04ed6c0959ef5bd0f272cd477c2b8200e702a4e95b7b0ddc9eedf",
          "blockNumber": "0x2ceeaba",
          "blockTimestamp": "0x69bc9806",
          "transactionHash": "0x878184c374bd2c95b97295849ef8bf3bfe86b25a061aa721964036910cde70d3",
          "transactionIndex": "0xc",
          "logIndex": "0x10",
          "removed": false
        }
      ],
      "logsBloom": "0x00010000000000000000000000000000000000000000000000000000000000000000000000000000000000000000000000000000000000000000000000080020000000000000000000000000000000000000000000000000000000001000000000000000000000000000000000000080000000000040000000000000000000000020200000000000000000000000020000000000000000000000000000000000000000000000000000000000000000000000000000000000000000080000000000000100000000000000000000000000000000000000000040000000000000080000000000000000000000000000000000000000000000000000000000002400",
      "type": "0x2",
      "transactionHash": "0x878184c374bd2c95b97295849ef8bf3bfe86b25a061aa721964036910cde70d3",
      "transactionIndex": "0xc",
      "blockHash": "0xbb7526739ce04ed6c0959ef5bd0f272cd477c2b8200e702a4e95b7b0ddc9eedf",
      "blockNumber": "0x2ceeaba",
      "gasUsed": "0xbaca",
      "effectiveGasPrice": "0x7a121",
      "blobGasUsed": "0xaa50",
      "from": "0xeeb3e0999d01f0d1ed465513e414725a357f6ae4",
      "to": "0x000000000022d473030f116ddee9f6b43ac78ba3",
      "contractAddress": null,
      "daFootprintGasScalar": "0x190",
      "l1BaseFeeScalar": "0x7d0",
      "l1BlobBaseFee": "0x1",
      "l1BlobBaseFeeScalar": "0xdbba0",
      "l1Fee": "0x82",
      "l1GasPrice": "0x9",
      "l1GasUsed": "0x6da"
    },
    {
      "status": "0x1",
      "cumulativeGasUsed": "0x1ee431",
      "logs": [
        {
          "address": "0x00b036b58a818b1bc34d502d3fe730db729e62ac",
          "topics": [
            "0xdd466e674ea557f56295e2d0218a125ea4b4f0f6f3307b95f85e6110838d6438",
            "0x98a0654208321eb09543288611e049fbc4750bc77b9cbae65821e54aec552245",
            "0x00000000000000000000000050fe7a20bce36977299f59a5f6fbe61b9f17738e",
            "0x0000000000000000000000006ee57cff2481a83e1a47def1d4c3d7866123a5e1"
          ],
          "data": "0x0000000000000000000000000000000000000000000000000000000000000bb8000000000000000000000000000000000000000000000000000000000000003c000000000000000000000000e5295e92c18de8a07e631e1c6154cb4eec31564000000000000000000000000000000000000000010000000000000000000000000000000000000000000000000000000000000000000000000000000000000000",
          "blockHash": "0xbb7526739ce04ed6c0959ef5bd0f272cd477c2b8200e702a4e95b7b0ddc9eedf",
          "blockNumber": "0x2ceeaba",
          "blockTimestamp": "0x69bc9806",
          "transactionHash": "0xdc96e4a4ea551a5fa0d6ce1917d082722139f5342564179c1fbc515e7e52939d",
          "transactionIndex": "0xd",
          "logIndex": "0x11",
          "removed": false
        },
        {
          "address": "0xf969aee60879c54baaed9f3ed26147db216fd664",
          "topics": [
            "0xddf252ad1be2c89b69c2b068fc378daa952ba7f163c4a11628f55a4df523b3ef",
            "0x0000000000000000000000000000000000000000000000000000000000000000",
            "0x000000000000000000000000eeb3e0999d01f0d1ed465513e414725a357f6ae4",
            "0x0000000000000000000000000000000000000000000000000000000000001c6e"
          ],
          "data": "0x",
          "blockHash": "0xbb7526739ce04ed6c0959ef5bd0f272cd477c2b8200e702a4e95b7b0ddc9eedf",
          "blockNumber": "0x2ceeaba",
          "blockTimestamp": "0x69bc9806",
          "transactionHash": "0xdc96e4a4ea551a5fa0d6ce1917d082722139f5342564179c1fbc515e7e52939d",
          "transactionIndex": "0xd",
          "logIndex": "0x12",
          "removed": false
        },
        {
          "address": "0x00b036b58a818b1bc34d502d3fe730db729e62ac",
          "topics": [
            "0xf208f4912782fd25c7f114ca3723a2d5dd6f3bcc3ac8db5af63baa85f711d5ec",
            "0x98a0654208321eb09543288611e049fbc4750bc77b9cbae65821e54aec552245",
            "0x000000000000000000000000f969aee60879c54baaed9f3ed26147db216fd664"
          ],
          "data": "0xfffffffffffffffffffffffffffffffffffffffffffffffffffffffffff2764c00000000000000000000000000000000000000000000000000000000000d89b400000000000000000000000000000000000000000000152d02c7e14af68000000000000000000000000000000000000000000000000000000000000000001c6e",
          "blockHash": "0xbb7526739ce04ed6c0959ef5bd0f272cd477c2b8200e702a4e95b7b0ddc9eedf",
          "blockNumber": "0x2ceeaba",
          "blockTimestamp": "0x69bc9806",
          "transactionHash": "0xdc96e4a4ea551a5fa0d6ce1917d082722139f5342564179c1fbc515e7e52939d",
          "transactionIndex": "0xd",
          "logIndex": "0x13",
          "removed": false
        },
        {
          "address": "0xd429959619a21a1a9425ce8a9d1404bf315c022b",
          "topics": [
            "0xc3d58168c5ae7397731d063d5bbf3d657854427343f4c083240f7aacaa2d0f62",
            "0x000000000000000000000000e5295e92c18de8a07e631e1c6154cb4eec315640",
            "0x0000000000000000000000000000000000000000000000000000000000000000",
            "0x000000000000000000000000eeb3e0999d01f0d1ed465513e414725a357f6ae4"
          ],
          "data": "0x000000000000051511e049fbc4750bc77b9cbae65821e54aec55224500000001000000000000000000000000000000000000000000000a968163f0a57b400000",
          "blockHash": "0xbb7526739ce04ed6c0959ef5bd0f272cd477c2b8200e702a4e95b7b0ddc9eedf",
          "blockNumber": "0x2ceeaba",
          "blockTimestamp": "0x69bc9806",
          "transactionHash": "0xdc96e4a4ea551a5fa0d6ce1917d082722139f5342564179c1fbc515e7e52939d",
          "transactionIndex": "0xd",
          "logIndex": "0x14",
          "removed": false
        },
        {
          "address": "0xd429959619a21a1a9425ce8a9d1404bf315c022b",
          "topics": [
            "0xc62144ccc711300f7154d86f5a060985d55ce54f496b4394bd65b13bc6db6a87",
            "0x000000000000051511e049fbc4750bc77b9cbae65821e54aec55224500000001",
            "0x000000000000051511e049fbc4750bc77b9cbae65821e54aec55224500000000"
          ],
          "data": "0x98a0654208321eb09543288611e049fbc4750bc77b9cbae65821e54aec55224500000000000000000000000000000000000000000000152d02c7e14af6800000000000000000000000000000000000000000000000000a968163f0a57b400000",
          "blockHash": "0xbb7526739ce04ed6c0959ef5bd0f272cd477c2b8200e702a4e95b7b0ddc9eedf",
          "blockNumber": "0x2ceeaba",
          "blockTimestamp": "0x69bc9806",
          "transactionHash": "0xdc96e4a4ea551a5fa0d6ce1917d082722139f5342564179c1fbc515e7e52939d",
          "transactionIndex": "0xd",
          "logIndex": "0x15",
          "removed": false
        },
        {
          "address": "0x99c6eba2318918c7c8fa12505b3be7d153659a57",
          "topics": [
            "0xc3d58168c5ae7397731d063d5bbf3d657854427343f4c083240f7aacaa2d0f62",
            "0x000000000000000000000000e5295e92c18de8a07e631e1c6154cb4eec315640",
            "0x0000000000000000000000000000000000000000000000000000000000000000",
            "0x000000000000000000000000eeb3e0999d01f0d1ed465513e414725a357f6ae4"
          ],
          "data": "0x000000000000051511e049fbc4750bc77b9cbae65821e54aec552245000000010000000000000000000000000000000000000000000000000000000000000001",
          "blockHash": "0xbb7526739ce04ed6c0959ef5bd0f272cd477c2b8200e702a4e95b7b0ddc9eedf",
          "blockNumber": "0x2ceeaba",
          "blockTimestamp": "0x69bc9806",
          "transactionHash": "0xdc96e4a4ea551a5fa0d6ce1917d082722139f5342564179c1fbc515e7e52939d",
          "transactionIndex": "0xd",
          "logIndex": "0x16",
          "removed": false
        },
        {
          "address": "0xd9a1053f3a81e38f4d91622a88936a8417736d00",
          "topics": [
            "0x9a979b6d4fbc82cc04cad153e7eefca4bdfb4f540f69af9e15dcc4d47a60fe42",
            "0x000000000000051511e049fbc4750bc77b9cbae65821e54aec55224500000000"
          ],
          "data": "0x00000000000000000000000000000000000000000000152d02c7e14af680000000000000000000000000000000000000000000000000152d02c7e14af6800000",
          "blockHash": "0xbb7526739ce04ed6c0959ef5bd0f272cd477c2b8200e702a4e95b7b0ddc9eedf",
          "blockNumber": "0x2ceeaba",
          "blockTimestamp": "0x69bc9806",
          "transactionHash": "0xdc96e4a4ea551a5fa0d6ce1917d082722139f5342564179c1fbc515e7e52939d",
          "transactionIndex": "0xd",
          "logIndex": "0x17",
          "removed": false
        },
        {
          "address": "0xe5295e92c18de8a07e631e1c6154cb4eec315640",
          "topics": [
            "0x1371ea0be443d9420091d27c7dfd2fe3d60129c68ab43988a36d6d4c22b773d1",
            "0x98a0654208321eb09543288611e049fbc4750bc77b9cbae65821e54aec552245",
            "0x000000000000051511e049fbc4750bc77b9cbae65821e54aec55224500000001",
            "0x000000000000051511e049fbc4750bc77b9cbae65821e54aec55224500000000"
          ],
          "data": "0x00000000000000000000000000000000000000000000152d02c7e14af6800000000000000000000000000000000000000000000000000a968163f0a57b400000",
          "blockHash": "0xbb7526739ce04ed6c0959ef5bd0f272cd477c2b8200e702a4e95b7b0ddc9eedf",
          "blockNumber": "0x2ceeaba",
          "blockTimestamp": "0x69bc9806",
          "transactionHash": "0xdc96e4a4ea551a5fa0d6ce1917d082722139f5342564179c1fbc515e7e52939d",
          "transactionIndex": "0xd",
          "logIndex": "0x18",
          "removed": false
        },
        {
          "address": "0x50fe7a20bce36977299f59a5f6fbe61b9f17738e",
          "topics": [
            "0xddf252ad1be2c89b69c2b068fc378daa952ba7f163c4a11628f55a4df523b3ef",
            "0x000000000000000000000000eeb3e0999d01f0d1ed465513e414725a357f6ae4",
            "0x00000000000000000000000000b036b58a818b1bc34d502d3fe730db729e62ac"
          ],
          "data": "0x00000000000000000000000000000000000000000000152d02c7e14af67feac5",
          "blockHash": "0xbb7526739ce04ed6c0959ef5bd0f272cd477c2b8200e702a4e95b7b0ddc9eedf",
          "blockNumber": "0x2ceeaba",
          "blockTimestamp": "0x69bc9806",
          "transactionHash": "0xdc96e4a4ea551a5fa0d6ce1917d082722139f5342564179c1fbc515e7e52939d",
          "transactionIndex": "0xd",
          "logIndex": "0x19",
          "removed": false
        },
        {
          "address": "0x6ee57cff2481a83e1a47def1d4c3d7866123a5e1",
          "topics": [
            "0xddf252ad1be2c89b69c2b068fc378daa952ba7f163c4a11628f55a4df523b3ef",
            "0x000000000000000000000000eeb3e0999d01f0d1ed465513e414725a357f6ae4",
            "0x00000000000000000000000000b036b58a818b1bc34d502d3fe730db729e62ac"
          ],
          "data": "0x00000000000000000000000000000000000000000000152d02c7e14af67feac5",
          "blockHash": "0xbb7526739ce04ed6c0959ef5bd0f272cd477c2b8200e702a4e95b7b0ddc9eedf",
          "blockNumber": "0x2ceeaba",
          "blockTimestamp": "0x69bc9806",
          "transactionHash": "0xdc96e4a4ea551a5fa0d6ce1917d082722139f5342564179c1fbc515e7e52939d",
          "transactionIndex": "0xd",
          "logIndex": "0x1a",
          "removed": false
        }
      ],
      "logsBloom": "0x00000000004000000002000000000000000080000000000001000000800000000000000000000800000000000000000000000000009000000000040000006860000000000000000000000008000000000000108000000000000000001000000000000400020000000000000000004880400000000050400100000010000102000000200001000028000000000008020000000001000110000000000000200000001004000000000000000040000000000800800000020020004001000040024200000102080000000000000100008000004000040408000000000000000020084040020000000800000000020000000004000000000002000044080040002010",
      "type": "0x2",
      "transactionHash": "0xdc96e4a4ea551a5fa0d6ce1917d082722139f5342564179c1fbc515e7e52939d",
      "transactionIndex": "0xd",
      "blockHash": "0xbb7526739ce04ed6c0959ef5bd0f272cd477c2b8200e702a4e95b7b0ddc9eedf",
      "blockNumber": "0x2ceeaba",
      "gasUsed": "0xc3667",
      "effectiveGasPrice": "0x7a121",
      "blobGasUsed": "0x1e2d0",
      "from": "0xeeb3e0999d01f0d1ed465513e414725a357f6ae4",
      "to": "0xf969aee60879c54baaed9f3ed26147db216fd664",
      "contractAddress": null,
      "daFootprintGasScalar": "0x190",
      "l1BaseFeeScalar": "0x7d0",
      "l1BlobBaseFee": "0x1",
      "l1BlobBaseFeeScalar": "0xdbba0",
      "l1Fee": "0x16f",
      "l1GasPrice": "0x9",
      "l1GasUsed": "0x1359"
    }
  ],
  "libraries": [],
  "pending": [],
  "returns": {
    "poolKey": {
      "internal_type": "struct PoolKey",
      "value": "(0x50fe7A20bce36977299F59a5F6FbE61b9f17738E, 0x6eE57CFf2481a83e1a47dEF1D4c3D7866123a5e1, 3000, 60, 0xE5295e92c18De8A07E631e1C6154cb4eEC315640)"
    },
    "poolId": {
      "internal_type": "PoolId",
      "value": "0x98a0654208321eb09543288611e049fbc4750bc77b9cbae65821e54aec552245"
    }
  },
  "timestamp": 1773967366269,
  "chain": 1301,
  "commit": "8ec9785"
}