{
  "transactions": [
    {
      "hash": "0x52e524e8709d6fad7c478092fe29eb345d4bd7eef8d232a411f0a298e778aa22",
      "transactionType": "CALL",
      "contractName": null,
      "contractAddress": "0x7a38361eb7574fc44115365d83a48b0f6e33d640",
      "function": "initializePool((address,address,uint24,int24,address),(address,bytes,uint256,uint256,uint256),uint256)",
      "arguments": [
        "(0x4761FDA2F2439d8a327d10AcA4CFA9207Ee1b6DD, 0x891CA60685679ef48f0f6D383473D2758F832625, 3000, 60, 0x7a38361eb7574FC44115365D83A48B0f6E33d640)",
        "(0xaC1f193431f3820065E716B9625b19281Ae80CFF, 0x0000000000000000000000000000000000000000000000000000000000278d00, 800000000000000000, 300000000000000000, 150000000000000000)",
        "100000000000000"
      ],
      "transaction": {
        "from": "0xeeb3e0999d01f0d1ed465513e414725a357f6ae4",
        "to": "0x7a38361eb7574fc44115365d83a48b0f6e33d640",
        "gas": "0x76443",
        "value": "0x0",
        "input": "0xf6d2cc1a0000000000000000000000004761fda2f2439d8a327d10aca4cfa9207ee1b6dd000000000000000000000000891ca60685679ef48f0f6d383473d2758f8326250000000000000000000000000000000000000000000000000000000000000bb8000000000000000000000000000000000000000000000000000000000000003c0000000000000000000000007a38361eb7574fc44115365d83a48b0f6e33d64000000000000000000000000000000000000000000000000000000000000000e000000000000000000000000000000000000000000000000000005af3107a4000000000000000000000000000ac1f193431f3820065e716b9625b19281ae80cff00000000000000000000000000000000000000000000000000000000000000a00000000000000000000000000000000000000000000000000b1a2bc2ec5000000000000000000000000000000000000000000000000000000429d069189e00000000000000000000000000000000000000000000000000000214e8348c4f000000000000000000000000000000000000000000000000000000000000000000200000000000000000000000000000000000000000000000000000000000278d00",
        "nonce": "0x73",
        "chainId": "0x515"
      },
      "additionalContracts": [],
      "isFixedGasLimit": false
    },
    {
      "hash": "0x7f78be84b38f87b3d679e1a2645457aa2b414544fe141f35e845145225c5e9cb",
      "transactionType": "CALL",
      "contractName": null,
      "contractAddress": "0x4761fda2f2439d8a327d10aca4cfa9207ee1b6dd",
      "function": "approve(address,uint256)",
      "arguments": [
        "0x000000000022D473030F116dDEE9F6B43aC78BA3",
        "115792089237316195423570985008687907853269984665640564039457584007913129639935"
      ],
      "transaction": {
        "from": "0xeeb3e0999d01f0d1ed465513e414725a357f6ae4",
        "to": "0x4761fda2f2439d8a327d10aca4cfa9207ee1b6dd",
        "gas": "0xfa9c",
        "value": "0x0",
        "input": "0x095ea7b3000000000000000000000000000000000022d473030f116ddee9f6b43ac78ba3ffffffffffffffffffffffffffffffffffffffffffffffffffffffffffffffff",
        "nonce": "0x74",
        "chainId": "0x515"
      },
      "additionalContracts": [],
      "isFixedGasLimit": false
    },
    {
      "hash": "0x5f37674909d1271bb90040bff9419d6afe43c475d0012e33eee99ba0f05d9575",
      "transactionType": "CALL",
      "contractName": null,
      "contractAddress": "0x891ca60685679ef48f0f6d383473d2758f832625",
      "function": "approve(address,uint256)",
      "arguments": [
        "0x000000000022D473030F116dDEE9F6B43aC78BA3",
        "115792089237316195423570985008687907853269984665640564039457584007913129639935"
      ],
      "transaction": {
        "from": "0xeeb3e0999d01f0d1ed465513e414725a357f6ae4",
        "to": "0x891ca60685679ef48f0f6d383473d2758f832625",
        "gas": "0xfa9c",
        "value": "0x0",
        "input": "0x095ea7b3000000000000000000000000000000000022d473030f116ddee9f6b43ac78ba3ffffffffffffffffffffffffffffffffffffffffffffffffffffffffffffffff",
        "nonce": "0x75",
        "chainId": "0x515"
      },
      "additionalContracts": [],
      "isFixedGasLimit": false
    },
    {
      "hash": "0x97b4347bfe22f0f6a23caf3e7bfdcedb0baa1fde29ee9079ae082ea7b746bd52",
      "transactionType": "CALL",
      "contractName": null,
      "contractAddress": "0x000000000022d473030f116ddee9f6b43ac78ba3",
      "function": "approve(address,address,uint160,uint48)",
      "arguments": [
        "0x4761FDA2F2439d8a327d10AcA4CFA9207Ee1b6DD",
        "0xf969Aee60879C54bAAed9F3eD26147Db216Fd664",
        "1461501637330902918203684832716283019655932542975",
        "281474976710655"
      ],
      "transaction": {
        "from": "0xeeb3e0999d01f0d1ed465513e414725a357f6ae4",
        "to": "0x000000000022d473030f116ddee9f6b43ac78ba3",
        "gas": "0x1112d",
        "value": "0x0",
        "input": "0x87517c450000000000000000000000004761fda2f2439d8a327d10aca4cfa9207ee1b6dd000000000000000000000000f969aee60879c54baaed9f3ed26147db216fd664000000000000000000000000ffffffffffffffffffffffffffffffffffffffff0000000000000000000000000000000000000000000000000000ffffffffffff",
        "nonce": "0x76",
        "chainId": "0x515"
      },
      "additionalContracts": [],
      "isFixedGasLimit": false
    },
    {
      "hash": "0xf2b0b5066b0b8ea6eee36d78b5070d4cfe7ea9162179cb184ae5bb996883960a",
      "transactionType": "CALL",
      "contractName": null,
      "contractAddress": "0x000000000022d473030f116ddee9f6b43ac78ba3",
      "function": "approve(address,address,uint160,uint48)",
      "arguments": [
        "0x891CA60685679ef48f0f6D383473D2758F832625",
        "0xf969Aee60879C54bAAed9F3eD26147Db216Fd664",
        "1461501637330902918203684832716283019655932542975",
        "281474976710655"
      ],
      "transaction": {
        "from": "0xeeb3e0999d01f0d1ed465513e414725a357f6ae4",
        "to": "0x000000000022d473030f116ddee9f6b43ac78ba3",
        "gas": "0x1112d",
        "value": "0x0",
        "input": "0x87517c45000000000000000000000000891ca60685679ef48f0f6d383473d2758f832625000000000000000000000000f969aee60879c54baaed9f3ed26147db216fd664000000000000000000000000ffffffffffffffffffffffffffffffffffffffff0000000000000000000000000000000000000000000000000000ffffffffffff",
        "nonce": "0x77",
        "chainId": "0x515"
      },
      "additionalContracts": [],
      "isFixedGasLimit": false
    },
    {
      "hash": "0x9ed843983a3dfd9d21cfd98e8e1ca0e56ce716914cd9809c61e071daacfe6f41",
      "transactionType": "CALL",
      "contractName": "PositionManager",
      "contractAddress": "0xf969aee60879c54baaed9f3ed26147db216fd664",
      "function": null,
      "arguments": null,
      "transaction": {
        "from": "0xeeb3e0999d01f0d1ed465513e414725a357f6ae4",
        "to": "0xf969aee60879c54baaed9f3ed26147db216fd664",
        "gas": "0xe869f",
        "value": "0x0",
        "input": "0xac9650d8000000000000000000000000000000000000000000000000000000000000002000000000000000000000000000000000000000000000000000000000000000020000000000000000000000000000000000000000000000000000000000000040000000000000000000000000000000000000000000000000000000000000014000000000000000000000000000000000000000000000000000000000000000c4f70204050000000000000000000000004761fda2f2439d8a327d10aca4cfa9207ee1b6dd000000000000000000000000891ca60685679ef48f0f6d383473d2758f8326250000000000000000000000000000000000000000000000000000000000000bb8000000000000000000000000000000000000000000000000000000000000003c0000000000000000000000007a38361eb7574fc44115365d83a48b0f6e33d6400000000000000000000000000000000000000001000000000000000000000000000000000000000000000000000000000000000000000000000000000000000000000000000000000000000000000000000000000000000000000364dd46508f00000000000000000000000000000000000000000000000000000000000000400000000000000000000000000000000000000000000000000000000069bc7a600000000000000000000000000000000000000000000000000000000000000300000000000000000000000000000000000000000000000000000000000000004000000000000000000000000000000000000000000000000000000000000000800000000000000000000000000000000000000000000000000000000000000002020d00000000000000000000000000000000000000000000000000000000000000000000000000000000000000000000000000000000000000000000000000020000000000000000000000000000000000000000000000000000000000000040000000000000000000000000000000000000000000000000000000000000020000000000000000000000000000000000000000000000000000000000000001a00000000000000000000000004761fda2f2439d8a327d10aca4cfa9207ee1b6dd000000000000000000000000891ca60685679ef48f0f6d383473d2758f8326250000000000000000000000000000000000000000000000000000000000000bb8000000000000000000000000000000000000000000000000000000000000003c0000000000000000000000007a38361eb7574fc44115365d83a48b0f6e33d640fffffffffffffffffffffffffffffffffffffffffffffffffffffffffff2764c00000000000000000000000000000000000000000000000000000000000d89b400000000000000000000000000000000000000000000152d02c7e14af680000000000000000000000000000000000000ffffffffffffffffffffffffffffffff00000000000000000000000000000000ffffffffffffffffffffffffffffffff000000000000000000000000eeb3e0999d01f0d1ed465513e414725a357f6ae40000000000000000000000000000000000000000000000000000000000000180000000000000000000000000000000000000000000000000000000000000000000000000000000000000000000000000000000000000000000000000000000400000000000000000000000004761fda2f2439d8a327d10aca4cfa9207ee1b6dd000000000000000000000000891ca60685679ef48f0f6d383473d2758f83262500000000000000000000000000000000000000000000000000000000",
        "nonce": "0x78",
        "chainId": "0x515"
      },
      "additionalContracts": [],
      "isFixedGasLimit": false
    }
  ],
  "receipts": [
    {
      "status": "0x1",
      "cumulativeGasUsed": "0x107f16",
      "logs": [
        {
          "address": "0x2047c691db05c6f551d756718aa55d8340661d00",
          "topics": [
            "0x43641244aeefd8de6827c26f36450aa6165c9fef65ddfa7262da93ba648464d2",
            "0x1568f8e5b84a2cdbe94e54fb8e843e65d8b9152f44f3ca5606a29f3bdf8f6eee"
          ],
          "data": "0x",
          "blockHash": "0xa571afe6e8b1e662600bd052994a1a7672a14f101ff6f8b853bc7a1b8db6ad41",
          "blockNumber": "0x2cecace",
          "blockTimestamp": "0x69bc781a",
          "transactionHash": "0x52e524e8709d6fad7c478092fe29eb345d4bd7eef8d232a411f0a298e778aa22",
          "transactionIndex": "0x9",
          "logIndex": "0x9",
          "removed": false
        },
        {
          "address": "0x75b3e9873ce7f0520f83b4042cc30743223f36ba",
          "topics": [
            "0xee3f3e9c9c6c1b0da06bfc5c6ed0cb10292f68ef1ab10eb7f41e58286e6e31e3",
            "0x1568f8e5b84a2cdbe94e54fb8e843e65d8b9152f44f3ca5606a29f3bdf8f6eee",
            "0x000000000000000000000000ac1f193431f3820065e716b9625b19281ae80cff"
          ],
          "data": "0x0000000000000000000000000000000000000000000000000b1a2bc2ec5000000000000000000000000000000000000000000000000000000429d069189e00000000000000000000000000000000000000000000000000000214e8348c4f0000",
          "blockHash": "0xa571afe6e8b1e662600bd052994a1a7672a14f101ff6f8b853bc7a1b8db6ad41",
          "blockNumber": "0x2cecace",
          "blockTimestamp": "0x69bc781a",
          "transactionHash": "0x52e524e8709d6fad7c478092fe29eb345d4bd7eef8d232a411f0a298e778aa22",
          "transactionIndex": "0x9",
          "logIndex": "0xa",
          "removed": false
        },
        {
          "address": "0x75b3e9873ce7f0520f83b4042cc30743223f36ba",
          "topics": [
            "0xf8cbf5e5e5347dcdff96eb47e3038a64e231cfde7efffbb7de82966ed8ef154f",
            "0x00000000000005158e843e65d8b9152f44f3ca5606a29f3bdf8f6eee00000000",
            "0x1568f8e5b84a2cdbe94e54fb8e843e65d8b9152f44f3ca5606a29f3bdf8f6eee"
          ],
          "data": "0x0000000000000000000000000000000000000000000000000000000069bc781a0000000000000000000000000000000000000000000000000000000069e4051a00000000000000000000000000000000000000000000000000005af3107a4000",
          "blockHash": "0xa571afe6e8b1e662600bd052994a1a7672a14f101ff6f8b853bc7a1b8db6ad41",
          "blockNumber": "0x2cecace",
          "blockTimestamp": "0x69bc781a",
          "transactionHash": "0x52e524e8709d6fad7c478092fe29eb345d4bd7eef8d232a411f0a298e778aa22",
          "transactionIndex": "0x9",
          "logIndex": "0xb",
          "removed": false
        },
        {
          "address": "0x7a38361eb7574fc44115365d83a48b0f6e33d640",
          "topics": [
            "0x43641244aeefd8de6827c26f36450aa6165c9fef65ddfa7262da93ba648464d2",
            "0x1568f8e5b84a2cdbe94e54fb8e843e65d8b9152f44f3ca5606a29f3bdf8f6eee"
          ],
          "data": "0x",
          "blockHash": "0xa571afe6e8b1e662600bd052994a1a7672a14f101ff6f8b853bc7a1b8db6ad41",
          "blockNumber": "0x2cecace",
          "blockTimestamp": "0x69bc781a",
          "transactionHash": "0x52e524e8709d6fad7c478092fe29eb345d4bd7eef8d232a411f0a298e778aa22",
          "transactionIndex": "0x9",
          "logIndex": "0xc",
          "removed": false
        }
      ],
      "logsBloom": "0x04000000000000000000000000000000400040000000000000000000000100000000040002000000000020000000001000000000000040000000040000020000000000000000000000000000400000000000000000000000000000000000000000000000000000000000000010000000000000000000000001000000000000000000000000000000000000000001000000000000000000800000000000000100000000000000000000000800000000000000000000000000000018000000000000000000000800000000000000000000200000000000000000000000000000000000000000000440000000000000000000000000800000000000004000000040",
      "type": "0x2",
      "transactionHash": "0x52e524e8709d6fad7c478092fe29eb345d4bd7eef8d232a411f0a298e778aa22",
      "transactionIndex": "0x9",
      "blockHash": "0xa571afe6e8b1e662600bd052994a1a7672a14f101ff6f8b853bc7a1b8db6ad41",
      "blockNumber": "0x2cecace",
      "gasUsed": "0x559f7",
      "effectiveGasPrice": "0x7a121",
      "blobGasUsed": "0x136f0",
      "from": "0xeeb3e0999d01f0d1ed465513e414725a357f6ae4",
      "to": "0x7a38361eb7574fc44115365d83a48b0f6e33d640",
      "contractAddress": null,
      "daFootprintGasScalar": "0x190",
      "l1BaseFeeScalar": "0x7d0",
      "l1BlobBaseFee": "0x1",
      "l1BlobBaseFeeScalar": "0xdbba0",
      "l1Fee": "0xed",
      "l1GasPrice": "0x9",
      "l1GasUsed": "0xc7f"
    },
    {
      "status": "0x1",
      "cumulativeGasUsed": "0x113486",
      "logs": [
        {
          "address": "0x4761fda2f2439d8a327d10aca4cfa9207ee1b6dd",
          "topics": [
            "0x8c5be1e5ebec7d5bd14f71427d1e84f3dd0314c0f7b2291e5b200ac8c7c3b925",
            "0x000000000000000000000000eeb3e0999d01f0d1ed465513e414725a357f6ae4",
            "0x000000000000000000000000000000000022d473030f116ddee9f6b43ac78ba3"
          ],
          "data": "0xffffffffffffffffffffffffffffffffffffffffffffffffffffffffffffffff",
          "blockHash": "0xa571afe6e8b1e662600bd052994a1a7672a14f101ff6f8b853bc7a1b8db6ad41",
          "blockNumber": "0x2cecace",
          "blockTimestamp": "0x69bc781a",
          "transactionHash": "0x7f78be84b38f87b3d679e1a2645457aa2b414544fe141f35e845145225c5e9cb",
          "transactionIndex": "0xa",
          "logIndex": "0xd",
          "removed": false
        }
      ],
      "logsBloom": "0x00000000000000000000000000000000000000000000000000000000000000000000000000000000000000000000000000000000800000000000000000200020020100000000000000004000000000000000000000000800000000000000000000000000000000000000000000000080000000000000000000000000000000000000000000000000000000000000000000000000000000000000000000000000020000000000000000000008000000000000000000000000000000000000000000000100000000000000000000000000000000000000000000000000000000000010000000000000000000000000000000000000000000000000000000000000",
      "type": "0x2",
      "transactionHash": "0x7f78be84b38f87b3d679e1a2645457aa2b414544fe141f35e845145225c5e9cb",
      "transactionIndex": "0xa",
      "blockHash": "0xa571afe6e8b1e662600bd052994a1a7672a14f101ff6f8b853bc7a1b8db6ad41",
      "blockNumber": "0x2cecace",
      "gasUsed": "0xb570",
      "effectiveGasPrice": "0x7a121",
      "blobGasUsed": "0x9c40",
      "from": "0xeeb3e0999d01f0d1ed465513e414725a357f6ae4",
      "to": "0x4761fda2f2439d8a327d10aca4cfa9207ee1b6dd",
      "contractAddress": null,
      "daFootprintGasScalar": "0x190",
      "l1BaseFeeScalar": "0x7d0",
      "l1BlobBaseFee": "0x1",
      "l1BlobBaseFeeScalar": "0xdbba0",
      "l1Fee": "0x76",
      "l1GasPrice": "0x9",
      "l1GasUsed": "0x640"
    },
    {
      "status": "0x1",
      "cumulativeGasUsed": "0x11e9f6",
      "logs": [
        {
          "address": "0x891ca60685679ef48f0f6d383473d2758f832625",
          "topics": [
            "0x8c5be1e5ebec7d5bd14f71427d1e84f3dd0314c0f7b2291e5b200ac8c7c3b925",
            "0x000000000000000000000000eeb3e0999d01f0d1ed465513e414725a357f6ae4",
            "0x000000000000000000000000000000000022d473030f116ddee9f6b43ac78ba3"
          ],
          "data": "0xffffffffffffffffffffffffffffffffffffffffffffffffffffffffffffffff",
          "blockHash": "0xa571afe6e8b1e662600bd052994a1a7672a14f101ff6f8b853bc7a1b8db6ad41",
          "blockNumber": "0x2cecace",
          "blockTimestamp": "0x69bc781a",
          "transactionHash": "0x5f37674909d1271bb90040bff9419d6afe43c475d0012e33eee99ba0f05d9575",
          "transactionIndex": "0xb",
          "logIndex": "0xe",
          "removed": false
        }
      ],
      "logsBloom": "0x00000002000000000000000000000000000000000000000000000000000000000000000000000000000000000000000000000000800000000000000000200020000000000000000000004000000000000000000000000800000000000000000000000000000000000000000002000080000000000000000000000000000000000000000000000000000000000080000000000000000000000000000000000000020000000000000000000000000000000000000000000000000000000000000000000100000000000000000000000000000000000000000000000000000000000010000000000000000000000000000000000000000000000000000000000000",
      "type": "0x2",
      "transactionHash": "0x5f37674909d1271bb90040bff9419d6afe43c475d0012e33eee99ba0f05d9575",
      "transactionIndex": "0xb",
      "blockHash": "0xa571afe6e8b1e662600bd052994a1a7672a14f101ff6f8b853bc7a1b8db6ad41",
      "blockNumber": "0x2cecace",
      "gasUsed": "0xb570",
      "effectiveGasPrice": "0x7a121",
      "blobGasUsed": "0x9c40",
      "from": "0xeeb3e0999d01f0d1ed465513e414725a357f6ae4",
      "to": "0x891ca60685679ef48f0f6d383473d2758f832625",
      "contractAddress": null,
      "daFootprintGasScalar": "0x190",
      "l1BaseFeeScalar": "0x7d0",
      "l1BlobBaseFee": "0x1",
      "l1BlobBaseFeeScalar": "0xdbba0",
      "l1Fee": "0x76",
      "l1GasPrice": "0x9",
      "l1GasUsed": "0x640"
    },
    {
      "status": "0x1",
      "cumulativeGasUsed": "0x334c2",
      "logs": [
        {
          "address": "0x000000000022d473030f116ddee9f6b43ac78ba3",
          "topics": [
            "0xda9fa7c1b00402c17d0161b249b1ab8bbec047c5a52207b9c112deffd817036b",
            "0x000000000000000000000000eeb3e0999d01f0d1ed465513e414725a357f6ae4",
            "0x0000000000000000000000004761fda2f2439d8a327d10aca4cfa9207ee1b6dd",
            "0x000000000000000000000000f969aee60879c54baaed9f3ed26147db216fd664"
          ],
          "data": "0x000000000000000000000000ffffffffffffffffffffffffffffffffffffffff0000000000000000000000000000000000000000000000000000ffffffffffff",
          "blockHash": "0xded59ae6b84fc9a8263bbd83bfd0e6a4fdb5cf23248b17663dda86897bb0b7a2",
          "blockNumber": "0x2cecacf",
          "blockTimestamp": "0x69bc781b",
          "transactionHash": "0x97b4347bfe22f0f6a23caf3e7bfdcedb0baa1fde29ee9079ae082ea7b746bd52",
          "transactionIndex": "0x3",
          "logIndex": "0x1",
          "removed": false
        }
      ],
      "logsBloom": "0x00010000000000000000000000000000000000002000000000000000000000000000000000000000000000000000000000000000000000000010000000080020000000000000000000000000000000000000000000000000000000001000000000000000000000000000000000000080000000000040000000000000000000000020000000000000000000000000000000000000000000000000000000000000000000000000000000000000000000000000000000000000000000080800000000000100000000000000000000000000000000000000000040000000000000000000000000000000000000000000000000000000000000000000000000002400",
      "type": "0x2",
      "transactionHash": "0x97b4347bfe22f0f6a23caf3e7bfdcedb0baa1fde29ee9079ae082ea7b746bd52",
      "transactionIndex": "0x3",
      "blockHash": "0xded59ae6b84fc9a8263bbd83bfd0e6a4fdb5cf23248b17663dda86897bb0b7a2",
      "blockNumber": "0x2cecacf",
      "gasUsed": "0xbaca",
      "effectiveGasPrice": "0x7a121",
      "blobGasUsed": "0xa8c0",
      "from": "0xeeb3e0999d01f0d1ed465513e414725a357f6ae4",
      "to": "0x000000000022d473030f116ddee9f6b43ac78ba3",
      "contractAddress": null,
      "daFootprintGasScalar": "0x190",
      "l1BaseFeeScalar": "0x7d0",
      "l1BlobBaseFee": "0x1",
      "l1BlobBaseFeeScalar": "0xdbba0",
      "l1Fee": "0x81",
      "l1GasPrice": "0x9",
      "l1GasUsed": "0x6cd"
    },
    {
      "status": "0x1",
      "cumulativeGasUsed": "0x3ef8c",
      "logs": [
        {
          "address": "0x000000000022d473030f116ddee9f6b43ac78ba3",
          "topics": [
            "0xda9fa7c1b00402c17d0161b249b1ab8bbec047c5a52207b9c112deffd817036b",
            "0x000000000000000000000000eeb3e0999d01f0d1ed465513e414725a357f6ae4",
            "0x000000000000000000000000891ca60685679ef48f0f6d383473d2758f832625",
            "0x000000000000000000000000f969aee60879c54baaed9f3ed26147db216fd664"
          ],
          "data": "0x000000000000000000000000ffffffffffffffffffffffffffffffffffffffff0000000000000000000000000000000000000000000000000000ffffffffffff",
          "blockHash": "0xded59ae6b84fc9a8263bbd83bfd0e6a4fdb5cf23248b17663dda86897bb0b7a2",
          "blockNumber": "0x2cecacf",
          "blockTimestamp": "0x69bc781b",
          "transactionHash": "0x9ed843983a3dfd9d21cfd98e8e1ca0e56ce716914cd9809c61e071daacfe6f41",
          "transactionIndex": "0x4",
          "logIndex": "0x2",
          "removed": false
        }
      ],
      "logsBloom": "0x00010000000000000000000000000000000000000000000000000000000000000000000000000000000004000000000000000000000000000000000000080020000000000000000000000000000000000000000000080000000000001000000000000000000000000000000000000080000000000040000000000000000000000020000000000000000000000000000000000000000000000000000000000000000000000000000000000000000000000000000000000000000000080000000000000100000000000000000000000000000000000000000040000000400000000000000000000000000000000000000000000000000000000000000000002400",
      "type": "0x2",
      "transactionHash": "0x9ed843983a3dfd9d21cfd98e8e1ca0e56ce716914cd9809c61e071daacfe6f41",
      "transactionIndex": "0x4",
      "blockHash": "0xded59ae6b84fc9a8263bbd83bfd0e6a4fdb5cf23248b17663dda86897bb0b7a2",
      "blockNumber": "0x2cecacf",
      "gasUsed": "0xbaca",
      "effectiveGasPrice": "0x7a121",
      "blobGasUsed": "0xa8c0",
      "from": "0xeeb3e0999d01f0d1ed465513e414725a357f6ae4",
      "to": "0x000000000022d473030f116ddee9f6b43ac78ba3",
      "contractAddress": null,
      "daFootprintGasScalar": "0x190",
      "l1BaseFeeScalar": "0x7d0",
      "l1BlobBaseFee": "0x1",
      "l1BlobBaseFeeScalar": "0xdbba0",
      "l1Fee": "0x81",
      "l1GasPrice": "0x9",
      "l1GasUsed": "0x6cd"
    },
    {
      "status": "0x1",
      "cumulativeGasUsed": "0xe73c4",
      "logs": [
        {
          "address": "0x00b036b58a818b1bc34d502d3fe730db729e62ac",
          "topics": [
            "0xdd466e674ea557f56295e2d0218a125ea4b4f0f6f3307b95f85e6110838d6438",
            "0x1568f8e5b84a2cdbe94e54fb8e843e65d8b9152f44f3ca5606a29f3bdf8f6eee",
            "0x0000000000000000000000004761fda2f2439d8a327d10aca4cfa9207ee1b6dd",
            "0x000000000000000000000000891ca60685679ef48f0f6d383473d2758f832625"
          ],
          "data": "0x0000000000000000000000000000000000000000000000000000000000000bb8000000000000000000000000000000000000000000000000000000000000003c0000000000000000000000007a38361eb7574fc44115365d83a48b0f6e33d64000000000000000000000000000000000000000010000000000000000000000000000000000000000000000000000000000000000000000000000000000000000",
          "blockHash": "0xded59ae6b84fc9a8263bbd83bfd0e6a4fdb5cf23248b17663dda86897bb0b7a2",
          "blockNumber": "0x2cecacf",
          "blockTimestamp": "0x69bc781b",
          "transactionHash": "0xf2b0b5066b0b8ea6eee36d78b5070d4cfe7ea9162179cb184ae5bb996883960a",
          "transactionIndex": "0x5",
          "logIndex": "0x3",
          "removed": false
        },
        {
          "address": "0xf969aee60879c54baaed9f3ed26147db216fd664",
          "topics": [
            "0xddf252ad1be2c89b69c2b068fc378daa952ba7f163c4a11628f55a4df523b3ef",
            "0x0000000000000000000000000000000000000000000000000000000000000000",
            "0x000000000000000000000000eeb3e0999d01f0d1ed465513e414725a357f6ae4",
            "0x0000000000000000000000000000000000000000000000000000000000001c6d"
          ],
          "data": "0x",
          "blockHash": "0xded59ae6b84fc9a8263bbd83bfd0e6a4fdb5cf23248b17663dda86897bb0b7a2",
          "blockNumber": "0x2cecacf",
          "blockTimestamp": "0x69bc781b",
          "transactionHash": "0xf2b0b5066b0b8ea6eee36d78b5070d4cfe7ea9162179cb184ae5bb996883960a",
          "transactionIndex": "0x5",
          "logIndex": "0x4",
          "removed": false
        },
        {
          "address": "0x00b036b58a818b1bc34d502d3fe730db729e62ac",
          "topics": [
            "0xf208f4912782fd25c7f114ca3723a2d5dd6f3bcc3ac8db5af63baa85f711d5ec",
            "0x1568f8e5b84a2cdbe94e54fb8e843e65d8b9152f44f3ca5606a29f3bdf8f6eee",
            "0x000000000000000000000000f969aee60879c54baaed9f3ed26147db216fd664"
          ],
          "data": "0xfffffffffffffffffffffffffffffffffffffffffffffffffffffffffff2764c00000000000000000000000000000000000000000000000000000000000d89b400000000000000000000000000000000000000000000152d02c7e14af68000000000000000000000000000000000000000000000000000000000000000001c6d",
          "blockHash": "0xded59ae6b84fc9a8263bbd83bfd0e6a4fdb5cf23248b17663dda86897bb0b7a2",
          "blockNumber": "0x2cecacf",
          "blockTimestamp": "0x69bc781b",
          "transactionHash": "0xf2b0b5066b0b8ea6eee36d78b5070d4cfe7ea9162179cb184ae5bb996883960a",
          "transactionIndex": "0x5",
          "logIndex": "0x5",
          "removed": false
        },
        {
          "address": "0xeef34f7eaf4a0e07ba03d3fed1ce5d3def38d5de",
          "topics": [
            "0xddf252ad1be2c89b69c2b068fc378daa952ba7f163c4a11628f55a4df523b3ef",
            "0x0000000000000000000000000000000000000000000000000000000000000000",
            "0x000000000000000000000000f969aee60879c54baaed9f3ed26147db216fd664",
            "0x00000000000005158e843e65d8b9152f44f3ca5606a29f3bdf8f6eee00000001"
          ],
          "data": "0x",
          "blockHash": "0xded59ae6b84fc9a8263bbd83bfd0e6a4fdb5cf23248b17663dda86897bb0b7a2",
          "blockNumber": "0x2cecacf",
          "blockTimestamp": "0x69bc781b",
          "transactionHash": "0xf2b0b5066b0b8ea6eee36d78b5070d4cfe7ea9162179cb184ae5bb996883960a",
          "transactionIndex": "0x5",
          "logIndex": "0x6",
          "removed": false
        },
        {
          "address": "0xeef34f7eaf4a0e07ba03d3fed1ce5d3def38d5de",
          "topics": [
            "0xad58e42112c4311493cad4c41ace20f723e8f48f3915da52ae968d5fac13d009",
            "0x00000000000005158e843e65d8b9152f44f3ca5606a29f3bdf8f6eee00000001",
            "0x000000000000000000000000f969aee60879c54baaed9f3ed26147db216fd664",
            "0x1568f8e5b84a2cdbe94e54fb8e843e65d8b9152f44f3ca5606a29f3bdf8f6eee"
          ],
          "data": "0x00000000000005158e843e65d8b9152f44f3ca5606a29f3bdf8f6eee0000000000000000000000000000000000000000000000000000152d02c7e14af680000000000000000000000000000000000000000000000000000000005af3107a4000",
          "blockHash": "0xded59ae6b84fc9a8263bbd83bfd0e6a4fdb5cf23248b17663dda86897bb0b7a2",
          "blockNumber": "0x2cecacf",
          "blockTimestamp": "0x69bc781b",
          "transactionHash": "0xf2b0b5066b0b8ea6eee36d78b5070d4cfe7ea9162179cb184ae5bb996883960a",
          "transactionIndex": "0x5",
          "logIndex": "0x7",
          "removed": false
        },
        {
          "address": "0x75b3e9873ce7f0520f83b4042cc30743223f36ba",
          "topics": [
            "0x9a979b6d4fbc82cc04cad153e7eefca4bdfb4f540f69af9e15dcc4d47a60fe42",
            "0x00000000000005158e843e65d8b9152f44f3ca5606a29f3bdf8f6eee00000000"
          ],
          "data": "0x00000000000000000000000000000000000000000000152d02c7e14af680000000000000000000000000000000000000000000000000152d02c7e14af6800000",
          "blockHash": "0xded59ae6b84fc9a8263bbd83bfd0e6a4fdb5cf23248b17663dda86897bb0b7a2",
          "blockNumber": "0x2cecacf",
          "blockTimestamp": "0x69bc781b",
          "transactionHash": "0xf2b0b5066b0b8ea6eee36d78b5070d4cfe7ea9162179cb184ae5bb996883960a",
          "transactionIndex": "0x5",
          "logIndex": "0x8",
          "removed": false
        },
        {
          "address": "0x7a38361eb7574fc44115365d83a48b0f6e33d640",
          "topics": [
            "0x47562561c6e13515267c108f70a814866a268b2f87d53b0d1a90aade8cdd3a46",
            "0x1568f8e5b84a2cdbe94e54fb8e843e65d8b9152f44f3ca5606a29f3bdf8f6eee",
            "0x00000000000005158e843e65d8b9152f44f3ca5606a29f3bdf8f6eee00000001",
            "0x00000000000005158e843e65d8b9152f44f3ca5606a29f3bdf8f6eee00000000"
          ],
          "data": "0x00000000000000000000000000000000000000000000152d02c7e14af6800000",
          "blockHash": "0xded59ae6b84fc9a8263bbd83bfd0e6a4fdb5cf23248b17663dda86897bb0b7a2",
          "blockNumber": "0x2cecacf",
          "blockTimestamp": "0x69bc781b",
          "transactionHash": "0xf2b0b5066b0b8ea6eee36d78b5070d4cfe7ea9162179cb184ae5bb996883960a",
          "transactionIndex": "0x5",
          "logIndex": "0x9",
          "removed": false
        },
        {
          "address": "0x4761fda2f2439d8a327d10aca4cfa9207ee1b6dd",
          "topics": [
            "0xddf252ad1be2c89b69c2b068fc378daa952ba7f163c4a11628f55a4df523b3ef",
            "0x000000000000000000000000eeb3e0999d01f0d1ed465513e414725a357f6ae4",
            "0x00000000000000000000000000b036b58a818b1bc34d502d3fe730db729e62ac"
          ],
          "data": "0x00000000000000000000000000000000000000000000152d02c7e14af67feac5",
          "blockHash": "0xded59ae6b84fc9a8263bbd83bfd0e6a4fdb5cf23248b17663dda86897bb0b7a2",
          "blockNumber": "0x2cecacf",
          "blockTimestamp": "0x69bc781b",
          "transactionHash": "0xf2b0b5066b0b8ea6eee36d78b5070d4cfe7ea9162179cb184ae5bb996883960a",
          "transactionIndex": "0x5",
          "logIndex": "0xa",
          "removed": false
        },
        {
          "address": "0x891ca60685679ef48f0f6d383473d2758f832625",
          "topics": [
            "0xddf252ad1be2c89b69c2b068fc378daa952ba7f163c4a11628f55a4df523b3ef",
            "0x000000000000000000000000eeb3e0999d01f0d1ed465513e414725a357f6ae4",
            "0x00000000000000000000000000b036b58a818b1bc34d502d3fe730db729e62ac"
          ],
          "data": "0x00000000000000000000000000000000000000000000152d02c7e14af67feac5",
          "blockHash": "0xded59ae6b84fc9a8263bbd83bfd0e6a4fdb5cf23248b17663dda86897bb0b7a2",
          "blockNumber": "0x2cecacf",
          "blockTimestamp": "0x69bc781b",
          "transactionHash": "0xf2b0b5066b0b8ea6eee36d78b5070d4cfe7ea9162179cb184ae5bb996883960a",
          "transactionIndex": "0x5",
          "logIndex": "0xb",
          "removed": false
        }
      ],
      "logsBloom": "0x00000002000000000000000000000000008040002000080000000000000000000000040000000000000024000000001000000000001000000010000000000020020100000000000000000008400000000000000000080000000800001000000000000400020000000000000092204880000000040040000001000010000000000000000001000008000000000088000000000001000010800000000000200100000004000000000000000008000000000800000080000020001010000800000100000102080000000000000000000000000000000010000000000000400020006000000000000000000000000000000004001002800002040000000040002052",
      "type": "0x2",
      "transactionHash": "0xf2b0b5066b0b8ea6eee36d78b5070d4cfe7ea9162179cb184ae5bb996883960a",
      "transactionIndex": "0x5",
      "blockHash": "0xded59ae6b84fc9a8263bbd83bfd0e6a4fdb5cf23248b17663dda86897bb0b7a2",
      "blockNumber": "0x2cecacf",
      "gasUsed": "0xa8438",
      "effectiveGasPrice": "0x7a121",
      "blobGasUsed": "0x1db00",
      "from": "0xeeb3e0999d01f0d1ed465513e414725a357f6ae4",
      "to": "0xf969aee60879c54baaed9f3ed26147db216fd664",
      "contractAddress": null,
      "daFootprintGasScalar": "0x190",
      "l1BaseFeeScalar": "0x7d0",
      "l1BlobBaseFee": "0x1",
      "l1BlobBaseFeeScalar": "0xdbba0",
      "l1Fee": "0x169",
      "l1GasPrice": "0x9",
      "l1GasUsed": "0x1308"
    }
  ],
  "libraries": [],
  "pending": [],
  "returns": {
    "poolKey": {
      "internal_type": "struct PoolKey",
      "value": "(0x4761FDA2F2439d8a327d10AcA4CFA9207Ee1b6DD, 0x891CA60685679ef48f0f6D383473D2758F832625, 3000, 60, 0x7a38361eb7574FC44115365D83A48B0f6E33d640)"
    },
    "poolId": {
      "internal_type": "PoolId",
      "value": "0x1568f8e5b84a2cdbe94e54fb8e843e65d8b9152f44f3ca5606a29f3bdf8f6eee"
    }
  },
  "timestamp": 1773959196393,
  "chain": 1301,
  "commit": "8ec9785"
}