{
  "transactions": [
    {
      "hash": "0xe124c9b7d92384da03a0514ea0fc1116203f4ebd9987bfccd4bfc3aa1470a39b",
      "transactionType": "CALL",
      "contractName": null,
      "contractAddress": "0x50fe7a20bce36977299f59a5f6fbe61b9f17738e",
      "function": "approve(address,uint256)",
      "arguments": [
        "0x9140a78c1A137c7fF1c151EC8231272aF78a99A4",
        "115792089237316195423570985008687907853269984665640564039457584007913129639935"
      ],
      "transaction": {
        "from": "0xeeb3e0999d01f0d1ed465513e414725a357f6ae4",
        "to": "0x50fe7a20bce36977299f59a5f6fbe61b9f17738e",
        "gas": "0xfaee",
        "value": "0x0",
        "input": "0x095ea7b30000000000000000000000009140a78c1a137c7ff1c151ec8231272af78a99a4ffffffffffffffffffffffffffffffffffffffffffffffffffffffffffffffff",
        "nonce": "0xab",
        "chainId": "0x515"
      },
      "additionalContracts": [],
      "isFixedGasLimit": false
    },
    {
      "hash": "0x401984c7a9c272c457b9118d2c6f9b7fde4c22f8a147b574a826374116d326b8",
      "transactionType": "CALL",
      "contractName": null,
      "contractAddress": "0x6ee57cff2481a83e1a47def1d4c3d7866123a5e1",
      "function": "approve(address,uint256)",
      "arguments": [
        "0x9140a78c1A137c7fF1c151EC8231272aF78a99A4",
        "115792089237316195423570985008687907853269984665640564039457584007913129639935"
      ],
      "transaction": {
        "from": "0xeeb3e0999d01f0d1ed465513e414725a357f6ae4",
        "to": "0x6ee57cff2481a83e1a47def1d4c3d7866123a5e1",
        "gas": "0xfaee",
        "value": "0x0",
        "input": "0x095ea7b30000000000000000000000009140a78c1a137c7ff1c151ec8231272af78a99a4ffffffffffffffffffffffffffffffffffffffffffffffffffffffffffffffff",
        "nonce": "0xac",
        "chainId": "0x515"
      },
      "additionalContracts": [],
      "isFixedGasLimit": false
    },
    {
      "hash": "0x366e61390a1618e46e7495c0fd2271bb9cd82bb47ae11ca2714ff2bcb5be8608",
      "transactionType": "CALL",
      "contractName": null,
      "contractAddress": "0x9140a78c1a137c7ff1c151ec8231272af78a99a4",
      "function": "swap((address,address,uint24,int24,address),(bool,int256,uint160),(bool,bool),bytes)",
      "arguments": [
        "(0x50fe7A20bce36977299F59a5F6FbE61b9f17738E, 0x6eE57CFf2481a83e1a47dEF1D4c3D7866123a5e1, 3000, 60, 0xE5295e92c18De8A07E631e1C6154cb4eEC315640)",
        "(true, -1000000000000000000000, 4295128740)",
        "(false, false)",
        "0x"
      ],
      "transaction": {
        "from": "0xeeb3e0999d01f0d1ed465513e414725a357f6ae4",
        "to": "0x9140a78c1a137c7ff1c151ec8231272af78a99a4",
        "gas": "0x7e338",
        "value": "0x0",
        "input": "0x2229d0b400000000000000000000000050fe7a20bce36977299f59a5f6fbe61b9f17738e0000000000000000000000006ee57cff2481a83e1a47def1d4c3d7866123a5e10000000000000000000000000000000000000000000000000000000000000bb8000000000000000000000000000000000000000000000000000000000000003c000000000000000000000000e5295e92c18de8a07e631e1c6154cb4eec3156400000000000000000000000000000000000000000000000000000000000000001ffffffffffffffffffffffffffffffffffffffffffffffc9ca36523a2160000000000000000000000000000000000000000000000000000000000001000276a40000000000000000000000000000000000000000000000000000000000000000000000000000000000000000000000000000000000000000000000000000000000000000000000000000000000000000000000000000000000000000000001600000000000000000000000000000000000000000000000000000000000000000",
        "nonce": "0xad",
        "chainId": "0x515"
      },
      "additionalContracts": [],
      "isFixedGasLimit": false
    },
    {
      "hash": "0xe6d3bb43319c89d91c4fd2568cd1cbd05ea1648fe93b44005c2ab613a34c4159",
      "transactionType": "CALL",
      "contractName": null,
      "contractAddress": "0x9140a78c1a137c7ff1c151ec8231272af78a99a4",
      "function": "swap((address,address,uint24,int24,address),(bool,int256,uint160),(bool,bool),bytes)",
      "arguments": [
        "(0x50fe7A20bce36977299F59a5F6FbE61b9f17738E, 0x6eE57CFf2481a83e1a47dEF1D4c3D7866123a5e1, 3000, 60, 0xE5295e92c18De8A07E631e1C6154cb4eEC315640)",
        "(false, -1000000000000000000000, 1461446703485210103287273052203988822378723970341)",
        "(false, false)",
        "0x"
      ],
      "transaction": {
        "from": "0xeeb3e0999d01f0d1ed465513e414725a357f6ae4",
        "to": "0x9140a78c1a137c7ff1c151ec8231272af78a99a4",
        "gas": "0x4cd81",
        "value": "0x0",
        "input": "0x2229d0b400000000000000000000000050fe7a20bce36977299f59a5f6fbe61b9f17738e0000000000000000000000006ee57cff2481a83e1a47def1d4c3d7866123a5e10000000000000000000000000000000000000000000000000000000000000bb8000000000000000000000000000000000000000000000000000000000000003c000000000000000000000000e5295e92c18de8a07e631e1c6154cb4eec3156400000000000000000000000000000000000000000000000000000000000000000ffffffffffffffffffffffffffffffffffffffffffffffc9ca36523a21600000000000000000000000000000fffd8963efd1fc6a506488495d951d5263988d250000000000000000000000000000000000000000000000000000000000000000000000000000000000000000000000000000000000000000000000000000000000000000000000000000000000000000000000000000000000000000000001600000000000000000000000000000000000000000000000000000000000000000",
        "nonce": "0xae",
        "chainId": "0x515"
      },
      "additionalContracts": [],
      "isFixedGasLimit": false
    },
    {
      "hash": "0xbda347fbca94618afc595861f5fbb0db9bec677686fb5a77c16cf6c36d0ff431",
      "transactionType": "CALL",
      "contractName": null,
      "contractAddress": "0x9140a78c1a137c7ff1c151ec8231272af78a99a4",
      "function": "swap((address,address,uint24,int24,address),(bool,int256,uint160),(bool,bool),bytes)",
      "arguments": [
        "(0x50fe7A20bce36977299F59a5F6FbE61b9f17738E, 0x6eE57CFf2481a83e1a47dEF1D4c3D7866123a5e1, 3000, 60, 0xE5295e92c18De8A07E631e1C6154cb4eEC315640)",
        "(true, -1000000000000000000000, 4295128740)",
        "(false, false)",
        "0x"
      ],
      "transaction": {
        "from": "0xeeb3e0999d01f0d1ed465513e414725a357f6ae4",
        "to": "0x9140a78c1a137c7ff1c151ec8231272af78a99a4",
        "gas": "0x46f97",
        "value": "0x0",
        "input": "0x2229d0b400000000000000000000000050fe7a20bce36977299f59a5f6fbe61b9f17738e0000000000000000000000006ee57cff2481a83e1a47def1d4c3d7866123a5e10000000000000000000000000000000000000000000000000000000000000bb8000000000000000000000000000000000000000000000000000000000000003c000000000000000000000000e5295e92c18de8a07e631e1c6154cb4eec3156400000000000000000000000000000000000000000000000000000000000000001ffffffffffffffffffffffffffffffffffffffffffffffc9ca36523a2160000000000000000000000000000000000000000000000000000000000001000276a40000000000000000000000000000000000000000000000000000000000000000000000000000000000000000000000000000000000000000000000000000000000000000000000000000000000000000000000000000000000000000000001600000000000000000000000000000000000000000000000000000000000000000",
        "nonce": "0xaf",
        "chainId": "0x515"
      },
      "additionalContracts": [],
      "isFixedGasLimit": false
    },
    {
      "hash": "0xf9e6d84b2b2c5cb5cab093028ac4c1aa02360e503357ab9780a0f3046152886f",
      "transactionType": "CALL",
      "contractName": null,
      "contractAddress": "0x9140a78c1a137c7ff1c151ec8231272af78a99a4",
      "function": "swap((address,address,uint24,int24,address),(bool,int256,uint160),(bool,bool),bytes)",
      "arguments": [
        "(0x50fe7A20bce36977299F59a5F6FbE61b9f17738E, 0x6eE57CFf2481a83e1a47dEF1D4c3D7866123a5e1, 3000, 60, 0xE5295e92c18De8A07E631e1C6154cb4eEC315640)",
        "(false, -1000000000000000000000, 1461446703485210103287273052203988822378723970341)",
        "(false, false)",
        "0x"
      ],
      "transaction": {
        "from": "0xeeb3e0999d01f0d1ed465513e414725a357f6ae4",
        "to": "0x9140a78c1a137c7ff1c151ec8231272af78a99a4",
        "gas": "0x4713d",
        "value": "0x0",
        "input": "0x2229d0b400000000000000000000000050fe7a20bce36977299f59a5f6fbe61b9f17738e0000000000000000000000006ee57cff2481a83e1a47def1d4c3d7866123a5e10000000000000000000000000000000000000000000000000000000000000bb8000000000000000000000000000000000000000000000000000000000000003c000000000000000000000000e5295e92c18de8a07e631e1c6154cb4eec3156400000000000000000000000000000000000000000000000000000000000000000ffffffffffffffffffffffffffffffffffffffffffffffc9ca36523a21600000000000000000000000000000fffd8963efd1fc6a506488495d951d5263988d250000000000000000000000000000000000000000000000000000000000000000000000000000000000000000000000000000000000000000000000000000000000000000000000000000000000000000000000000000000000000000000001600000000000000000000000000000000000000000000000000000000000000000",
        "nonce": "0xb0",
        "chainId": "0x515"
      },
      "additionalContracts": [],
      "isFixedGasLimit": false
    },
    {
      "hash": "0xf06978292f0c4777da58a1db68ddf1a0315a1349aa91d9a2ca1fcf992555a813",
      "transactionType": "CALL",
      "contractName": null,
      "contractAddress": "0x9140a78c1a137c7ff1c151ec8231272af78a99a4",
      "function": "swap((address,address,uint24,int24,address),(bool,int256,uint160),(bool,bool),bytes)",
      "arguments": [
        "(0x50fe7A20bce36977299F59a5F6FbE61b9f17738E, 0x6eE57CFf2481a83e1a47dEF1D4c3D7866123a5e1, 3000, 60, 0xE5295e92c18De8A07E631e1C6154cb4eEC315640)",
        "(true, -1000000000000000000000, 4295128740)",
        "(false, false)",
        "0x"
      ],
      "transaction": {
        "from": "0xeeb3e0999d01f0d1ed465513e414725a357f6ae4",
        "to": "0x9140a78c1a137c7ff1c151ec8231272af78a99a4",
        "gas": "0x470eb",
        "value": "0x0",
        "input": "0x2229d0b400000000000000000000000050fe7a20bce36977299f59a5f6fbe61b9f17738e0000000000000000000000006ee57cff2481a83e1a47def1d4c3d7866123a5e10000000000000000000000000000000000000000000000000000000000000bb8000000000000000000000000000000000000000000000000000000000000003c000000000000000000000000e5295e92c18de8a07e631e1c6154cb4eec3156400000000000000000000000000000000000000000000000000000000000000001ffffffffffffffffffffffffffffffffffffffffffffffc9ca36523a2160000000000000000000000000000000000000000000000000000000000001000276a40000000000000000000000000000000000000000000000000000000000000000000000000000000000000000000000000000000000000000000000000000000000000000000000000000000000000000000000000000000000000000000001600000000000000000000000000000000000000000000000000000000000000000",
        "nonce": "0xb1",
        "chainId": "0x515"
      },
      "additionalContracts": [],
      "isFixedGasLimit": false
    }
  ],
  "receipts": [
    {
      "status": "0x1",
      "cumulativeGasUsed": "0xc87fa",
      "logs": [
        {
          "address": "0x50fe7a20bce36977299f59a5f6fbe61b9f17738e",
          "topics": [
            "0x8c5be1e5ebec7d5bd14f71427d1e84f3dd0314c0f7b2291e5b200ac8c7c3b925",
            "0x000000000000000000000000eeb3e0999d01f0d1ed465513e414725a357f6ae4",
            "0x0000000000000000000000009140a78c1a137c7ff1c151ec8231272af78a99a4"
          ],
          "data": "0xffffffffffffffffffffffffffffffffffffffffffffffffffffffffffffffff",
          "blockHash": "0x7664809643caf559f8aa9402d50a476b8db757f16f2f958b73928dbafb3c0fd7",
          "blockNumber": "0x2cefea2",
          "blockTimestamp": "0x69bcabee",
          "transactionHash": "0xe6d3bb43319c89d91c4fd2568cd1cbd05ea1648fe93b44005c2ab613a34c4159",
          "transactionIndex": "0x7",
          "logIndex": "0x7",
          "removed": false
        }
      ],
      "logsBloom": "0x00000000000000000000000000000000000000000000000000000000080000000000000000000000000000000000000000000000000000000000000000200020000000000000000000000000000000000000000000000000004000000000000000000000000000000000000000000080000000000000000100000000000100000000000000000000000000000000000000000000000000000000000000000000020000000000000000010000000000000000000000000000000001000000000000000100000000000000000000000000000000000000000000000000000000000010000000000000000000000000000000000000000000000000000000000000",
      "type": "0x2",
      "transactionHash": "0xe6d3bb43319c89d91c4fd2568cd1cbd05ea1648fe93b44005c2ab613a34c4159",
      "transactionIndex": "0x7",
      "blockHash": "0x7664809643caf559f8aa9402d50a476b8db757f16f2f958b73928dbafb3c0fd7",
      "blockNumber": "0x2cefea2",
      "gasUsed": "0xb5ac",
      "effectiveGasPrice": "0x7a121",
      "blobGasUsed": "0x9c40",
      "from": "0xeeb3e0999d01f0d1ed465513e414725a357f6ae4",
      "to": "0x50fe7a20bce36977299f59a5f6fbe61b9f17738e",
      "contractAddress": null,
      "daFootprintGasScalar": "0x190",
      "l1BaseFeeScalar": "0x7d0",
      "l1BlobBaseFee": "0x1",
      "l1BlobBaseFeeScalar": "0xdbba0",
      "l1Fee": "0x7a",
      "l1GasPrice": "0xa",
      "l1GasUsed": "0x640"
    },
    {
      "status": "0x1",
      "cumulativeGasUsed": "0xeadcc",
      "logs": [
        {
          "address": "0x6ee57cff2481a83e1a47def1d4c3d7866123a5e1",
          "topics": [
            "0x8c5be1e5ebec7d5bd14f71427d1e84f3dd0314c0f7b2291e5b200ac8c7c3b925",
            "0x000000000000000000000000eeb3e0999d01f0d1ed465513e414725a357f6ae4",
            "0x0000000000000000000000009140a78c1a137c7ff1c151ec8231272af78a99a4"
          ],
          "data": "0xffffffffffffffffffffffffffffffffffffffffffffffffffffffffffffffff",
          "blockHash": "0x7664809643caf559f8aa9402d50a476b8db757f16f2f958b73928dbafb3c0fd7",
          "blockNumber": "0x2cefea2",
          "blockTimestamp": "0x69bcabee",
          "transactionHash": "0xf06978292f0c4777da58a1db68ddf1a0315a1349aa91d9a2ca1fcf992555a813",
          "transactionIndex": "0x9",
          "logIndex": "0x9",
          "removed": false
        }
      ],
      "logsBloom": "0x00000000000000000000000000000000000000000000000000000000080000000000000000000000000000000000000000000000000000000000000000204060000000000000000000000000000000000000000000000000004000000000000000000000000000000000000000000080000000000000000000000000000000000000000000000000000000000000000000000000000000000000000000000000020000000000000000010000000000000000800000000000000000000000000000000100000000000000000000000000000000000000000000000000000000000010000000000000000000000000000000000000000000000000000000000000",
      "type": "0x2",
      "transactionHash": "0xf06978292f0c4777da58a1db68ddf1a0315a1349aa91d9a2ca1fcf992555a813",
      "transactionIndex": "0x9",
      "blockHash": "0x7664809643caf559f8aa9402d50a476b8db757f16f2f958b73928dbafb3c0fd7",
      "blockNumber": "0x2cefea2",
      "gasUsed": "0xb5ac",
      "effectiveGasPrice": "0x7a121",
      "blobGasUsed": "0x9c40",
      "from": "0xeeb3e0999d01f0d1ed465513e414725a357f6ae4",
      "to": "0x6ee57cff2481a83e1a47def1d4c3d7866123a5e1",
      "contractAddress": null,
      "daFootprintGasScalar": "0x190",
      "l1BaseFeeScalar": "0x7d0",
      "l1BlobBaseFee": "0x1",
      "l1BlobBaseFeeScalar": "0xdbba0",
      "l1Fee": "0x7a",
      "l1GasPrice": "0xa",
      "l1GasUsed": "0x640"
    },
    {
      "status": "0x1",
      "cumulativeGasUsed": "0x141276",
      "logs": [
        {
          "address": "0x00b036b58a818b1bc34d502d3fe730db729e62ac",
          "topics": [
            "0x40e9cecb9f5f1f1c5b9c97dec2917b7ee92e57ba5563708daca94dd84ad7112f",
            "0x98a0654208321eb09543288611e049fbc4750bc77b9cbae65821e54aec552245",
            "0x0000000000000000000000009140a78c1a137c7ff1c151ec8231272af78a99a4"
          ],
          "data": "0xffffffffffffffffffffffffffffffffffffffffffffffc9ca36523a216000000000000000000000000000000000000000000000000000358391da18c1adbaa20000000000000000000000000000000000000000fd790e5d4347808dc857a93c00000000000000000000000000000000000000000000152d02c7e14af6800000ffffffffffffffffffffffffffffffffffffffffffffffffffffffffffffff390000000000000000000000000000000000000000000000000000000000000bb8",
          "blockHash": "0x7664809643caf559f8aa9402d50a476b8db757f16f2f958b73928dbafb3c0fd7",
          "blockNumber": "0x2cefea2",
          "blockTimestamp": "0x69bcabee",
          "transactionHash": "0x401984c7a9c272c457b9118d2c6f9b7fde4c22f8a147b574a826374116d326b8",
          "transactionIndex": "0xa",
          "logIndex": "0xa",
          "removed": false
        },
        {
          "address": "0x2d6def49aa9debfc19fa9691cc5755d4ba0d1f6a",
          "topics": [
            "0xf324a03f670327e69c5df96d0fc7fc734a9e23ed05ad3fb935abe4a02f39ebfa",
            "0x98a0654208321eb09543288611e049fbc4750bc77b9cbae65821e54aec552245"
          ],
          "data": "0x0000000000000000000000000000000000000000000000000000000069bcabee00000000000000000000000000000000000000000000000029a2241af62c000000000000000000000000000000000000000000000000152d02c7e14af68000000000000000000000000000000000000000000000000000000000000000000001",
          "blockHash": "0x7664809643caf559f8aa9402d50a476b8db757f16f2f958b73928dbafb3c0fd7",
          "blockNumber": "0x2cefea2",
          "blockTimestamp": "0x69bcabee",
          "transactionHash": "0x401984c7a9c272c457b9118d2c6f9b7fde4c22f8a147b574a826374116d326b8",
          "transactionIndex": "0xa",
          "logIndex": "0xb",
          "removed": false
        },
        {
          "address": "0xbbd6ab4183a765705d6c00f4c91255acfd8fb61f",
          "topics": [
            "0x21e45d94cfafdeb59d51a5829f4db320ae87c448b6c409c615ae3523deeb1759",
            "0x000000000000051511e049fbc4750bc77b9cbae65821e54aec55224500000000",
            "0x98a0654208321eb09543288611e049fbc4750bc77b9cbae65821e54aec552245"
          ],
          "data": "0x00000000000000000000000050fe7a20bce36977299f59a5f6fbe61b9f17738e00000000000000000000000000000000000000000000000029a2241af62c00000000000000000000000000000000000000000000000000000b6809e45178c4620000000000000000000000000000000000000000000000000305cf6bdd451f8f0000000000000000000000000000000000000000000000001b344acac76e1c0f",
          "blockHash": "0x7664809643caf559f8aa9402d50a476b8db757f16f2f958b73928dbafb3c0fd7",
          "blockNumber": "0x2cefea2",
          "blockTimestamp": "0x69bcabee",
          "transactionHash": "0x401984c7a9c272c457b9118d2c6f9b7fde4c22f8a147b574a826374116d326b8",
          "transactionIndex": "0xa",
          "logIndex": "0xc",
          "removed": false
        },
        {
          "address": "0xe5295e92c18de8a07e631e1c6154cb4eec315640",
          "topics": [
            "0x056ada55158a8c85f0b6b147de84fcde890df30c9880af86a2a008a983023c4d",
            "0x98a0654208321eb09543288611e049fbc4750bc77b9cbae65821e54aec552245",
            "0x000000000000051511e049fbc4750bc77b9cbae65821e54aec55224500000000"
          ],
          "data": "0x00000000000000000000000000000000000000000000000029a2241af62c0000",
          "blockHash": "0x7664809643caf559f8aa9402d50a476b8db757f16f2f958b73928dbafb3c0fd7",
          "blockNumber": "0x2cefea2",
          "blockTimestamp": "0x69bcabee",
          "transactionHash": "0x401984c7a9c272c457b9118d2c6f9b7fde4c22f8a147b574a826374116d326b8",
          "transactionIndex": "0xa",
          "logIndex": "0xd",
          "removed": false
        },
        {
          "address": "0x50fe7a20bce36977299f59a5f6fbe61b9f17738e",
          "topics": [
            "0xddf252ad1be2c89b69c2b068fc378daa952ba7f163c4a11628f55a4df523b3ef",
            "0x000000000000000000000000eeb3e0999d01f0d1ed465513e414725a357f6ae4",
            "0x00000000000000000000000000b036b58a818b1bc34d502d3fe730db729e62ac"
          ],
          "data": "0x00000000000000000000000000000000000000000000003635c9adc5dea00000",
          "blockHash": "0x7664809643caf559f8aa9402d50a476b8db757f16f2f958b73928dbafb3c0fd7",
          "blockNumber": "0x2cefea2",
          "blockTimestamp": "0x69bcabee",
          "transactionHash": "0x401984c7a9c272c457b9118d2c6f9b7fde4c22f8a147b574a826374116d326b8",
          "transactionIndex": "0xa",
          "logIndex": "0xe",
          "removed": false
        },
        {
          "address": "0x6ee57cff2481a83e1a47def1d4c3d7866123a5e1",
          "topics": [
            "0xddf252ad1be2c89b69c2b068fc378daa952ba7f163c4a11628f55a4df523b3ef",
            "0x00000000000000000000000000b036b58a818b1bc34d502d3fe730db729e62ac",
            "0x000000000000000000000000eeb3e0999d01f0d1ed465513e414725a357f6ae4"
          ],
          "data": "0x0000000000000000000000000000000000000000000000358391da18c1adbaa2",
          "blockHash": "0x7664809643caf559f8aa9402d50a476b8db757f16f2f958b73928dbafb3c0fd7",
          "blockNumber": "0x2cefea2",
          "blockTimestamp": "0x69bcabee",
          "transactionHash": "0x401984c7a9c272c457b9118d2c6f9b7fde4c22f8a147b574a826374116d326b8",
          "transactionIndex": "0xa",
          "logIndex": "0xf",
          "removed": false
        }
      ],
      "logsBloom": "0x00000000000000000000000000000000000000100000000000000010080000010000000000000000000000000000000000000000041000000000040000004060000000004000000000000008400000000000000000000020004000000000000000400200000000000000000000004080000000000000000100000010000180000000080000000000000000000008000000000000000000000000000000000000001000000000000000010040000000000000800000000020000001080000004000020102002000000000000100000000000000040400000000002000000000000040000000000800004040000000008000000000000002000000000000000010",
      "type": "0x2",
      "transactionHash": "0x401984c7a9c272c457b9118d2c6f9b7fde4c22f8a147b574a826374116d326b8",
      "transactionIndex": "0xa",
      "blockHash": "0x7664809643caf559f8aa9402d50a476b8db757f16f2f958b73928dbafb3c0fd7",
      "blockNumber": "0x2cefea2",
      "gasUsed": "0x564aa",
      "effectiveGasPrice": "0x7a121",
      "blobGasUsed": "0x10680",
      "from": "0xeeb3e0999d01f0d1ed465513e414725a357f6ae4",
      "to": "0x9140a78c1a137c7ff1c151ec8231272af78a99a4",
      "contractAddress": null,
      "daFootprintGasScalar": "0x190",
      "l1BaseFeeScalar": "0x7d0",
      "l1BlobBaseFee": "0x1",
      "l1BlobBaseFeeScalar": "0xdbba0",
      "l1Fee": "0xcd",
      "l1GasPrice": "0xa",
      "l1GasUsed": "0xa83"
    },
    {
      "status": "0x1",
      "cumulativeGasUsed": "0x178c9a",
      "logs": [
        {
          "address": "0x00b036b58a818b1bc34d502d3fe730db729e62ac",
          "topics": [
            "0x40e9cecb9f5f1f1c5b9c97dec2917b7ee92e57ba5563708daca94dd84ad7112f",
            "0x98a0654208321eb09543288611e049fbc4750bc77b9cbae65821e54aec552245",
            "0x0000000000000000000000009140a78c1a137c7ff1c151ec8231272af78a99a4"
          ],
          "data": "0x00000000000000000000000000000000000000000000003694b9c85982d965a2ffffffffffffffffffffffffffffffffffffffffffffffc9ca36523a216000000000000000000000000000000000000000000001000673353434be1364cc54e600000000000000000000000000000000000000000000152d02c7e14af680000000000000000000000000000000000000000000000000000000000000000000010000000000000000000000000000000000000000000000000000000000000bb8",
          "blockHash": "0x7664809643caf559f8aa9402d50a476b8db757f16f2f958b73928dbafb3c0fd7",
          "blockNumber": "0x2cefea2",
          "blockTimestamp": "0x69bcabee",
          "transactionHash": "0xbda347fbca94618afc595861f5fbb0db9bec677686fb5a77c16cf6c36d0ff431",
          "transactionIndex": "0xb",
          "logIndex": "0x10",
          "removed": false
        },
        {
          "address": "0x2d6def49aa9debfc19fa9691cc5755d4ba0d1f6a",
          "topics": [
            "0xf324a03f670327e69c5df96d0fc7fc734a9e23ed05ad3fb935abe4a02f39ebfa",
            "0x98a0654208321eb09543288611e049fbc4750bc77b9cbae65821e54aec552245"
          ],
          "data": "0x0000000000000000000000000000000000000000000000000000000069bcabee00000000000000000000000000000000000000000000000053444835ec58000000000000000000000000000000000000000000000000152d02c7e14af68000000000000000000000000000000000000000000000000000000000000000000000",
          "blockHash": "0x7664809643caf559f8aa9402d50a476b8db757f16f2f958b73928dbafb3c0fd7",
          "blockNumber": "0x2cefea2",
          "blockTimestamp": "0x69bcabee",
          "transactionHash": "0xbda347fbca94618afc595861f5fbb0db9bec677686fb5a77c16cf6c36d0ff431",
          "transactionIndex": "0xb",
          "logIndex": "0x11",
          "removed": false
        },
        {
          "address": "0xbbd6ab4183a765705d6c00f4c91255acfd8fb61f",
          "topics": [
            "0x21e45d94cfafdeb59d51a5829f4db320ae87c448b6c409c615ae3523deeb1759",
            "0x000000000000051511e049fbc4750bc77b9cbae65821e54aec55224500000000",
            "0x98a0654208321eb09543288611e049fbc4750bc77b9cbae65821e54aec552245"
          ],
          "data": "0x00000000000000000000000050fe7a20bce36977299f59a5f6fbe61b9f17738e00000000000000000000000000000000000000000000000029a2241af62c000000000000000000000000000000000000000000000000000000000000000000000000000000000000000000000000000000000000000000000429d069189e0000000000000000000000000000000000000000000000000000257853b1dd8e0000",
          "blockHash": "0x7664809643caf559f8aa9402d50a476b8db757f16f2f958b73928dbafb3c0fd7",
          "blockNumber": "0x2cefea2",
          "blockTimestamp": "0x69bcabee",
          "transactionHash": "0xbda347fbca94618afc595861f5fbb0db9bec677686fb5a77c16cf6c36d0ff431",
          "transactionIndex": "0xb",
          "logIndex": "0x12",
          "removed": false
        },
        {
          "address": "0xe5295e92c18de8a07e631e1c6154cb4eec315640",
          "topics": [
            "0x056ada55158a8c85f0b6b147de84fcde890df30c9880af86a2a008a983023c4d",
            "0x98a0654208321eb09543288611e049fbc4750bc77b9cbae65821e54aec552245",
            "0x000000000000051511e049fbc4750bc77b9cbae65821e54aec55224500000000"
          ],
          "data": "0x00000000000000000000000000000000000000000000000029a2241af62c0000",
          "blockHash": "0x7664809643caf559f8aa9402d50a476b8db757f16f2f958b73928dbafb3c0fd7",
          "blockNumber": "0x2cefea2",
          "blockTimestamp": "0x69bcabee",
          "transactionHash": "0xbda347fbca94618afc595861f5fbb0db9bec677686fb5a77c16cf6c36d0ff431",
          "transactionIndex": "0xb",
          "logIndex": "0x13",
          "removed": false
        },
        {
          "address": "0x6ee57cff2481a83e1a47def1d4c3d7866123a5e1",
          "topics": [
            "0xddf252ad1be2c89b69c2b068fc378daa952ba7f163c4a11628f55a4df523b3ef",
            "0x000000000000000000000000eeb3e0999d01f0d1ed465513e414725a357f6ae4",
            "0x00000000000000000000000000b036b58a818b1bc34d502d3fe730db729e62ac"
          ],
          "data": "0x00000000000000000000000000000000000000000000003635c9adc5dea00000",
          "blockHash": "0x7664809643caf559f8aa9402d50a476b8db757f16f2f958b73928dbafb3c0fd7",
          "blockNumber": "0x2cefea2",
          "blockTimestamp": "0x69bcabee",
          "transactionHash": "0xbda347fbca94618afc595861f5fbb0db9bec677686fb5a77c16cf6c36d0ff431",
          "transactionIndex": "0xb",
          "logIndex": "0x14",
          "removed": false
        },
        {
          "address": "0x50fe7a20bce36977299f59a5f6fbe61b9f17738e",
          "topics": [
            "0xddf252ad1be2c89b69c2b068fc378daa952ba7f163c4a11628f55a4df523b3ef",
            "0x00000000000000000000000000b036b58a818b1bc34d502d3fe730db729e62ac",
            "0x000000000000000000000000eeb3e0999d01f0d1ed465513e414725a357f6ae4"
          ],
          "data": "0x00000000000000000000000000000000000000000000003694b9c85982d965a2",
          "blockHash": "0x7664809643caf559f8aa9402d50a476b8db757f16f2f958b73928dbafb3c0fd7",
          "blockNumber": "0x2cefea2",
          "blockTimestamp": "0x69bcabee",
          "transactionHash": "0xbda347fbca94618afc595861f5fbb0db9bec677686fb5a77c16cf6c36d0ff431",
          "transactionIndex": "0xb",
          "logIndex": "0x15",
          "removed": false
        }
      ],
      "logsBloom": "0x00000000000000000000000000000000000000100000000000000010080000010000000000000000000000000000000000000000041000000000040000004060000000004000000000000008400000000000000000000020004000000000000000400200000000000000000000004080000000000000000100000010000180000000080000000000000000000008000000000000000000000000000000000000001000000000000000010040000000000000800000000020000001080000004000020102002000000000000100000000000000040400000000002000000000000040000000000800004040000000008000000000000002000000000000000010",
      "type": "0x2",
      "transactionHash": "0xbda347fbca94618afc595861f5fbb0db9bec677686fb5a77c16cf6c36d0ff431",
      "transactionIndex": "0xb",
      "blockHash": "0x7664809643caf559f8aa9402d50a476b8db757f16f2f958b73928dbafb3c0fd7",
      "blockNumber": "0x2cefea2",
      "gasUsed": "0x37a24",
      "effectiveGasPrice": "0x7a121",
      "blobGasUsed": "0x117b0",
      "from": "0xeeb3e0999d01f0d1ed465513e414725a357f6ae4",
      "to": "0x9140a78c1a137c7ff1c151ec8231272af78a99a4",
      "contractAddress": null,
      "daFootprintGasScalar": "0x190",
      "l1BaseFeeScalar": "0x7d0",
      "l1BlobBaseFee": "0x1",
      "l1BlobBaseFeeScalar": "0xdbba0",
      "l1Fee": "0xdb",
      "l1GasPrice": "0xa",
      "l1GasUsed": "0xb3e"
    },
    {
      "status": "0x1",
      "cumulativeGasUsed": "0x1ac2c0",
      "logs": [
        {
          "address": "0x00b036b58a818b1bc34d502d3fe730db729e62ac",
          "topics": [
            "0x40e9cecb9f5f1f1c5b9c97dec2917b7ee92e57ba5563708daca94dd84ad7112f",
            "0x98a0654208321eb09543288611e049fbc4750bc77b9cbae65821e54aec552245",
            "0x0000000000000000000000009140a78c1a137c7ff1c151ec8231272af78a99a4"
          ],
          "data": "0xffffffffffffffffffffffffffffffffffffffffffffffc9ca36523a216000000000000000000000000000000000000000000000000000358640cfa1829789b50000000000000000000000000000000000000000fd7f6121a3fddfa07f71712f00000000000000000000000000000000000000000000152d02c7e14af6800000ffffffffffffffffffffffffffffffffffffffffffffffffffffffffffffff3b0000000000000000000000000000000000000000000000000000000000000bb8",
          "blockHash": "0x7664809643caf559f8aa9402d50a476b8db757f16f2f958b73928dbafb3c0fd7",
          "blockNumber": "0x2cefea2",
          "blockTimestamp": "0x69bcabee",
          "transactionHash": "0xe124c9b7d92384da03a0514ea0fc1116203f4ebd9987bfccd4bfc3aa1470a39b",
          "transactionIndex": "0xc",
          "logIndex": "0x16",
          "removed": false
        },
        {
          "address": "0x2d6def49aa9debfc19fa9691cc5755d4ba0d1f6a",
          "topics": [
            "0xf324a03f670327e69c5df96d0fc7fc734a9e23ed05ad3fb935abe4a02f39ebfa",
            "0x98a0654208321eb09543288611e049fbc4750bc77b9cbae65821e54aec552245"
          ],
          "data": "0x0000000000000000000000000000000000000000000000000000000069bcabee0000000000000000000000000000000000000000000000007ce66c50e284000000000000000000000000000000000000000000000000152d02c7e14af68000000000000000000000000000000000000000000000000000000000000000000000",
          "blockHash": "0x7664809643caf559f8aa9402d50a476b8db757f16f2f958b73928dbafb3c0fd7",
          "blockNumber": "0x2cefea2",
          "blockTimestamp": "0x69bcabee",
          "transactionHash": "0xe124c9b7d92384da03a0514ea0fc1116203f4ebd9987bfccd4bfc3aa1470a39b",
          "transactionIndex": "0xc",
          "logIndex": "0x17",
          "removed": false
        },
        {
          "address": "0xbbd6ab4183a765705d6c00f4c91255acfd8fb61f",
          "topics": [
            "0x21e45d94cfafdeb59d51a5829f4db320ae87c448b6c409c615ae3523deeb1759",
            "0x000000000000051511e049fbc4750bc77b9cbae65821e54aec55224500000000",
            "0x98a0654208321eb09543288611e049fbc4750bc77b9cbae65821e54aec552245"
          ],
          "data": "0x00000000000000000000000050fe7a20bce36977299f59a5f6fbe61b9f17738e00000000000000000000000000000000000000000000000029a2241af62c000000000000000000000000000000000000000000000000000000000000000000000000000000000000000000000000000000000000000000000429d069189e0000000000000000000000000000000000000000000000000000257853b1dd8e0000",
          "blockHash": "0x7664809643caf559f8aa9402d50a476b8db757f16f2f958b73928dbafb3c0fd7",
          "blockNumber": "0x2cefea2",
          "blockTimestamp": "0x69bcabee",
          "transactionHash": "0xe124c9b7d92384da03a0514ea0fc1116203f4ebd9987bfccd4bfc3aa1470a39b",
          "transactionIndex": "0xc",
          "logIndex": "0x18",
          "removed": false
        },
        {
          "address": "0xe5295e92c18de8a07e631e1c6154cb4eec315640",
          "topics": [
            "0x056ada55158a8c85f0b6b147de84fcde890df30c9880af86a2a008a983023c4d",
            "0x98a0654208321eb09543288611e049fbc4750bc77b9cbae65821e54aec552245",
            "0x000000000000051511e049fbc4750bc77b9cbae65821e54aec55224500000000"
          ],
          "data": "0x00000000000000000000000000000000000000000000000029a2241af62c0000",
          "blockHash": "0x7664809643caf559f8aa9402d50a476b8db757f16f2f958b73928dbafb3c0fd7",
          "blockNumber": "0x2cefea2",
          "blockTimestamp": "0x69bcabee",
          "transactionHash": "0xe124c9b7d92384da03a0514ea0fc1116203f4ebd9987bfccd4bfc3aa1470a39b",
          "transactionIndex": "0xc",
          "logIndex": "0x19",
          "removed": false
        },
        {
          "address": "0x50fe7a20bce36977299f59a5f6fbe61b9f17738e",
          "topics": [
            "0xddf252ad1be2c89b69c2b068fc378daa952ba7f163c4a11628f55a4df523b3ef",
            "0x000000000000000000000000eeb3e0999d01f0d1ed465513e414725a357f6ae4",
            "0x00000000000000000000000000b036b58a818b1bc34d502d3fe730db729e62ac"
          ],
          "data": "0x00000000000000000000000000000000000000000000003635c9adc5dea00000",
          "blockHash": "0x7664809643caf559f8aa9402d50a476b8db757f16f2f958b73928dbafb3c0fd7",
          "blockNumber": "0x2cefea2",
          "blockTimestamp": "0x69bcabee",
          "transactionHash": "0xe124c9b7d92384da03a0514ea0fc1116203f4ebd9987bfccd4bfc3aa1470a39b",
          "transactionIndex": "0xc",
          "logIndex": "0x1a",
          "removed": false
        },
        {
          "address": "0x6ee57cff2481a83e1a47def1d4c3d7866123a5e1",
          "topics": [
            "0xddf252ad1be2c89b69c2b068fc378daa952ba7f163c4a11628f55a4df523b3ef",
            "0x00000000000000000000000000b036b58a818b1bc34d502d3fe730db729e62ac",
            "0x000000000000000000000000eeb3e0999d01f0d1ed465513e414725a357f6ae4"
          ],
          "data": "0x0000000000000000000000000000000000000000000000358640cfa1829789b5",
          "blockHash": "0x7664809643caf559f8aa9402d50a476b8db757f16f2f958b73928dbafb3c0fd7",
          "blockNumber": "0x2cefea2",
          "blockTimestamp": "0x69bcabee",
          "transactionHash": "0xe124c9b7d92384da03a0514ea0fc1116203f4ebd9987bfccd4bfc3aa1470a39b",
          "transactionIndex": "0xc",
          "logIndex": "0x1b",
          "removed": false
        }
      ],
      "logsBloom": "0x00000000000000000000000000000000000000100000000000000010080000010000000000000000000000000000000000000000041000000000040000004060000000004000000000000008400000000000000000000020004000000000000000400200000000000000000000004080000000000000000100000010000180000000080000000000000000000008000000000000000000000000000000000000001000000000000000010040000000000000800000000020000001080000004000020102002000000000000100000000000000040400000000002000000000000040000000000800004040000000008000000000000002000000000000000010",
      "type": "0x2",
      "transactionHash": "0xe124c9b7d92384da03a0514ea0fc1116203f4ebd9987bfccd4bfc3aa1470a39b",
      "transactionIndex": "0xc",
      "blockHash": "0x7664809643caf559f8aa9402d50a476b8db757f16f2f958b73928dbafb3c0fd7",
      "blockNumber": "0x2cefea2",
      "gasUsed": "0x33626",
      "effectiveGasPrice": "0x7a121",
      "blobGasUsed": "0x10680",
      "from": "0xeeb3e0999d01f0d1ed465513e414725a357f6ae4",
      "to": "0x9140a78c1a137c7ff1c151ec8231272af78a99a4",
      "contractAddress": null,
      "daFootprintGasScalar": "0x190",
      "l1BaseFeeScalar": "0x7d0",
      "l1BlobBaseFee": "0x1",
      "l1BlobBaseFeeScalar": "0xdbba0",
      "l1Fee": "0xcd",
      "l1GasPrice": "0xa",
      "l1GasUsed": "0xa83"
    },
    {
      "status": "0x1",
      "cumulativeGasUsed": "0x1dfa18",
      "logs": [
        {
          "address": "0x00b036b58a818b1bc34d502d3fe730db729e62ac",
          "topics": [
            "0x40e9cecb9f5f1f1c5b9c97dec2917b7ee92e57ba5563708daca94dd84ad7112f",
            "0x98a0654208321eb09543288611e049fbc4750bc77b9cbae65821e54aec552245",
            "0x0000000000000000000000009140a78c1a137c7ff1c151ec8231272af78a99a4"
          ],
          "data": "0x00000000000000000000000000000000000000000000003692043641d12f5d50ffffffffffffffffffffffffffffffffffffffffffffffc9ca36523a216000000000000000000000000000000000000000000001000cc5f994eb1d261be9ec4b00000000000000000000000000000000000000000000152d02c7e14af680000000000000000000000000000000000000000000000000000000000000000000030000000000000000000000000000000000000000000000000000000000000bb8",
          "blockHash": "0x7664809643caf559f8aa9402d50a476b8db757f16f2f958b73928dbafb3c0fd7",
          "blockNumber": "0x2cefea2",
          "blockTimestamp": "0x69bcabee",
          "transactionHash": "0xf9e6d84b2b2c5cb5cab093028ac4c1aa02360e503357ab9780a0f3046152886f",
          "transactionIndex": "0xd",
          "logIndex": "0x1c",
          "removed": false
        },
        {
          "address": "0x2d6def49aa9debfc19fa9691cc5755d4ba0d1f6a",
          "topics": [
            "0xf324a03f670327e69c5df96d0fc7fc734a9e23ed05ad3fb935abe4a02f39ebfa",
            "0x98a0654208321eb09543288611e049fbc4750bc77b9cbae65821e54aec552245"
          ],
          "data": "0x0000000000000000000000000000000000000000000000000000000069bcabee000000000000000000000000000000000000000000000000a688906bd8b0000000000000000000000000000000000000000000000000152d02c7e14af68000000000000000000000000000000000000000000000000000000000000000000000",
          "blockHash": "0x7664809643caf559f8aa9402d50a476b8db757f16f2f958b73928dbafb3c0fd7",
          "blockNumber": "0x2cefea2",
          "blockTimestamp": "0x69bcabee",
          "transactionHash": "0xf9e6d84b2b2c5cb5cab093028ac4c1aa02360e503357ab9780a0f3046152886f",
          "transactionIndex": "0xd",
          "logIndex": "0x1d",
          "removed": false
        },
        {
          "address": "0xbbd6ab4183a765705d6c00f4c91255acfd8fb61f",
          "topics": [
            "0x21e45d94cfafdeb59d51a5829f4db320ae87c448b6c409c615ae3523deeb1759",
            "0x000000000000051511e049fbc4750bc77b9cbae65821e54aec55224500000000",
            "0x98a0654208321eb09543288611e049fbc4750bc77b9cbae65821e54aec552245"
          ],
          "data": "0x00000000000000000000000050fe7a20bce36977299f59a5f6fbe61b9f17738e00000000000000000000000000000000000000000000000029a2241af62c000000000000000000000000000000000000000000000000000000000000000000000000000000000000000000000000000000000000000000000429d069189e0000000000000000000000000000000000000000000000000000257853b1dd8e0000",
          "blockHash": "0x7664809643caf559f8aa9402d50a476b8db757f16f2f958b73928dbafb3c0fd7",
          "blockNumber": "0x2cefea2",
          "blockTimestamp": "0x69bcabee",
          "transactionHash": "0xf9e6d84b2b2c5cb5cab093028ac4c1aa02360e503357ab9780a0f3046152886f",
          "transactionIndex": "0xd",
          "logIndex": "0x1e",
          "removed": false
        },
        {
          "address": "0xe5295e92c18de8a07e631e1c6154cb4eec315640",
          "topics": [
            "0x056ada55158a8c85f0b6b147de84fcde890df30c9880af86a2a008a983023c4d",
            "0x98a0654208321eb09543288611e049fbc4750bc77b9cbae65821e54aec552245",
            "0x000000000000051511e049fbc4750bc77b9cbae65821e54aec55224500000000"
          ],
          "data": "0x00000000000000000000000000000000000000000000000029a2241af62c0000",
          "blockHash": "0x7664809643caf559f8aa9402d50a476b8db757f16f2f958b73928dbafb3c0fd7",
          "blockNumber": "0x2cefea2",
          "blockTimestamp": "0x69bcabee",
          "transactionHash": "0xf9e6d84b2b2c5cb5cab093028ac4c1aa02360e503357ab9780a0f3046152886f",
          "transactionIndex": "0xd",
          "logIndex": "0x1f",
          "removed": false
        },
        {
          "address": "0x6ee57cff2481a83e1a47def1d4c3d7866123a5e1",
          "topics": [
            "0xddf252ad1be2c89b69c2b068fc378daa952ba7f163c4a11628f55a4df523b3ef",
            "0x000000000000000000000000eeb3e0999d01f0d1ed465513e414725a357f6ae4",
            "0x00000000000000000000000000b036b58a818b1bc34d502d3fe730db729e62ac"
          ],
          "data": "0x00000000000000000000000000000000000000000000003635c9adc5dea00000",
          "blockHash": "0x7664809643caf559f8aa9402d50a476b8db757f16f2f958b73928dbafb3c0fd7",
          "blockNumber": "0x2cefea2",
          "blockTimestamp": "0x69bcabee",
          "transactionHash": "0xf9e6d84b2b2c5cb5cab093028ac4c1aa02360e503357ab9780a0f3046152886f",
          "transactionIndex": "0xd",
          "logIndex": "0x20",
          "removed": false
        },
        {
          "address": "0x50fe7a20bce36977299f59a5f6fbe61b9f17738e",
          "topics": [
            "0xddf252ad1be2c89b69c2b068fc378daa952ba7f163c4a11628f55a4df523b3ef",
            "0x00000000000000000000000000b036b58a818b1bc34d502d3fe730db729e62ac",
            "0x000000000000000000000000eeb3e0999d01f0d1ed465513e414725a357f6ae4"
          ],
          "data": "0x00000000000000000000000000000000000000000000003692043641d12f5d50",
          "blockHash": "0x7664809643caf559f8aa9402d50a476b8db757f16f2f958b73928dbafb3c0fd7",
          "blockNumber": "0x2cefea2",
          "blockTimestamp": "0x69bcabee",
          "transactionHash": "0xf9e6d84b2b2c5cb5cab093028ac4c1aa02360e503357ab9780a0f3046152886f",
          "transactionIndex": "0xd",
          "logIndex": "0x21",
          "removed": false
        }
      ],
      "logsBloom": "0x00000000000000000000000000000000000000100000000000000010080000010000000000000000000000000000000000000000041000000000040000004060000000004000000000000008400000000000000000000020004000000000000000400200000000000000000000004080000000000000000100000010000180000000080000000000000000000008000000000000000000000000000000000000001000000000000000010040000000000000800000000020000001080000004000020102002000000000000100000000000000040400000000002000000000000040000000000800004040000000008000000000000002000000000000000010",
      "type": "0x2",
      "transactionHash": "0xf9e6d84b2b2c5cb5cab093028ac4c1aa02360e503357ab9780a0f3046152886f",
      "transactionIndex": "0xd",
      "blockHash": "0x7664809643caf559f8aa9402d50a476b8db757f16f2f958b73928dbafb3c0fd7",
      "blockNumber": "0x2cefea2",
      "gasUsed": "0x33758",
      "effectiveGasPrice": "0x7a121",
      "blobGasUsed": "0x117b0",
      "from": "0xeeb3e0999d01f0d1ed465513e414725a357f6ae4",
      "to": "0x9140a78c1a137c7ff1c151ec8231272af78a99a4",
      "contractAddress": null,
      "daFootprintGasScalar": "0x190",
      "l1BaseFeeScalar": "0x7d0",
      "l1BlobBaseFee": "0x1",
      "l1BlobBaseFeeScalar": "0xdbba0",
      "l1Fee": "0xdb",
      "l1GasPrice": "0xa",
      "l1GasUsed": "0xb3e"
    },
    {
      "status": "0x1",
      "cumulativeGasUsed": "0x213135",
      "logs": [
        {
          "address": "0x00b036b58a818b1bc34d502d3fe730db729e62ac",
          "topics": [
            "0x40e9cecb9f5f1f1c5b9c97dec2917b7ee92e57ba5563708daca94dd84ad7112f",
            "0x98a0654208321eb09543288611e049fbc4750bc77b9cbae65821e54aec552245",
            "0x0000000000000000000000009140a78c1a137c7ff1c151ec8231272af78a99a4"
          ],
          "data": "0xffffffffffffffffffffffffffffffffffffffffffffffc9ca36523a2160000000000000000000000000000000000000000000000000003588e2569feccb594d0000000000000000000000000000000000000000fd859417929cec85ad8c038600000000000000000000000000000000000000000000152d02c7e14af6800000ffffffffffffffffffffffffffffffffffffffffffffffffffffffffffffff3d0000000000000000000000000000000000000000000000000000000000000bb8",
          "blockHash": "0x7664809643caf559f8aa9402d50a476b8db757f16f2f958b73928dbafb3c0fd7",
          "blockNumber": "0x2cefea2",
          "blockTimestamp": "0x69bcabee",
          "transactionHash": "0x366e61390a1618e46e7495c0fd2271bb9cd82bb47ae11ca2714ff2bcb5be8608",
          "transactionIndex": "0xe",
          "logIndex": "0x22",
          "removed": false
        },
        {
          "address": "0x2d6def49aa9debfc19fa9691cc5755d4ba0d1f6a",
          "topics": [
            "0xf324a03f670327e69c5df96d0fc7fc734a9e23ed05ad3fb935abe4a02f39ebfa",
            "0x98a0654208321eb09543288611e049fbc4750bc77b9cbae65821e54aec552245"
          ],
          "data": "0x0000000000000000000000000000000000000000000000000000000069bcabee000000000000000000000000000000000000000000000000d02ab486cedc000000000000000000000000000000000000000000000000152d02c7e14af68000000000000000000000000000000000000000000000000000000000000000000000",
          "blockHash": "0x7664809643caf559f8aa9402d50a476b8db757f16f2f958b73928dbafb3c0fd7",
          "blockNumber": "0x2cefea2",
          "blockTimestamp": "0x69bcabee",
          "transactionHash": "0x366e61390a1618e46e7495c0fd2271bb9cd82bb47ae11ca2714ff2bcb5be8608",
          "transactionIndex": "0xe",
          "logIndex": "0x23",
          "removed": false
        },
        {
          "address": "0xbbd6ab4183a765705d6c00f4c91255acfd8fb61f",
          "topics": [
            "0x21e45d94cfafdeb59d51a5829f4db320ae87c448b6c409c615ae3523deeb1759",
            "0x000000000000051511e049fbc4750bc77b9cbae65821e54aec55224500000000",
            "0x98a0654208321eb09543288611e049fbc4750bc77b9cbae65821e54aec552245"
          ],
          "data": "0x00000000000000000000000050fe7a20bce36977299f59a5f6fbe61b9f17738e00000000000000000000000000000000000000000000000029a2241af62c000000000000000000000000000000000000000000000000000000000000000000000000000000000000000000000000000000000000000000000429d069189e0000000000000000000000000000000000000000000000000000257853b1dd8e0000",
          "blockHash": "0x7664809643caf559f8aa9402d50a476b8db757f16f2f958b73928dbafb3c0fd7",
          "blockNumber": "0x2cefea2",
          "blockTimestamp": "0x69bcabee",
          "transactionHash": "0x366e61390a1618e46e7495c0fd2271bb9cd82bb47ae11ca2714ff2bcb5be8608",
          "transactionIndex": "0xe",
          "logIndex": "0x24",
          "removed": false
        },
        {
          "address": "0xe5295e92c18de8a07e631e1c6154cb4eec315640",
          "topics": [
            "0x056ada55158a8c85f0b6b147de84fcde890df30c9880af86a2a008a983023c4d",
            "0x98a0654208321eb09543288611e049fbc4750bc77b9cbae65821e54aec552245",
            "0x000000000000051511e049fbc4750bc77b9cbae65821e54aec55224500000000"
          ],
          "data": "0x00000000000000000000000000000000000000000000000029a2241af62c0000",
          "blockHash": "0x7664809643caf559f8aa9402d50a476b8db757f16f2f958b73928dbafb3c0fd7",
          "blockNumber": "0x2cefea2",
          "blockTimestamp": "0x69bcabee",
          "transactionHash": "0x366e61390a1618e46e7495c0fd2271bb9cd82bb47ae11ca2714ff2bcb5be8608",
          "transactionIndex": "0xe",
          "logIndex": "0x25",
          "removed": false
        },
        {
          "address": "0x50fe7a20bce36977299f59a5f6fbe61b9f17738e",
          "topics": [
            "0xddf252ad1be2c89b69c2b068fc378daa952ba7f163c4a11628f55a4df523b3ef",
            "0x000000000000000000000000eeb3e0999d01f0d1ed465513e414725a357f6ae4",
            "0x00000000000000000000000000b036b58a818b1bc34d502d3fe730db729e62ac"
          ],
          "data": "0x00000000000000000000000000000000000000000000003635c9adc5dea00000",
          "blockHash": "0x7664809643caf559f8aa9402d50a476b8db757f16f2f958b73928dbafb3c0fd7",
          "blockNumber": "0x2cefea2",
          "blockTimestamp": "0x69bcabee",
          "transactionHash": "0x366e61390a1618e46e7495c0fd2271bb9cd82bb47ae11ca2714ff2bcb5be8608",
          "transactionIndex": "0xe",
          "logIndex": "0x26",
          "removed": false
        },
        {
          "address": "0x6ee57cff2481a83e1a47def1d4c3d7866123a5e1",
          "topics": [
            "0xddf252ad1be2c89b69c2b068fc378daa952ba7f163c4a11628f55a4df523b3ef",
            "0x00000000000000000000000000b036b58a818b1bc34d502d3fe730db729e62ac",
            "0x000000000000000000000000eeb3e0999d01f0d1ed465513e414725a357f6ae4"
          ],
          "data": "0x00000000000000000000000000000000000000000000003588e2569feccb594d",
          "blockHash": "0x7664809643caf559f8aa9402d50a476b8db757f16f2f958b73928dbafb3c0fd7",
          "blockNumber": "0x2cefea2",
          "blockTimestamp": "0x69bcabee",
          "transactionHash": "0x366e61390a1618e46e7495c0fd2271bb9cd82bb47ae11ca2714ff2bcb5be8608",
          "transactionIndex": "0xe",
          "logIndex": "0x27",
          "removed": false
        }
      ],
      "logsBloom": "0x00000000000000000000000000000000000000100000000000000010080000010000000000000000000000000000000000000000041000000000040000004060000000004000000000000008400000000000000000000020004000000000000000400200000000000000000000004080000000000000000100000010000180000000080000000000000000000008000000000000000000000000000000000000001000000000000000010040000000000000800000000020000001080000004000020102002000000000000100000000000000040400000000002000000000000040000000000800004040000000008000000000000002000000000000000010",
      "type": "0x2",
      "transactionHash": "0x366e61390a1618e46e7495c0fd2271bb9cd82bb47ae11ca2714ff2bcb5be8608",
      "transactionIndex": "0xe",
      "blockHash": "0x7664809643caf559f8aa9402d50a476b8db757f16f2f958b73928dbafb3c0fd7",
      "blockNumber": "0x2cefea2",
      "gasUsed": "0x3371d",
      "effectiveGasPrice": "0x7a121",
      "blobGasUsed": "0x10680",
      "from": "0xeeb3e0999d01f0d1ed465513e414725a357f6ae4",
      "to": "0x9140a78c1a137c7ff1c151ec8231272af78a99a4",
      "contractAddress": null,
      "daFootprintGasScalar": "0x190",
      "l1BaseFeeScalar": "0x7d0",
      "l1BlobBaseFee": "0x1",
      "l1BlobBaseFeeScalar": "0xdbba0",
      "l1Fee": "0xcd",
      "l1GasPrice": "0xa",
      "l1GasUsed": "0xa83"
    }
  ],
  "libraries": [],
  "pending": [],
  "returns": {},
  "timestamp": 1773972463999,
  "chain": 1301,
  "commit": "ca42eb3"
}