{
  "transactions": [
    {
      "hash": "0xb9f79da476b1a93b9ce5ac79cafc82df5a70b7cacf0af797c8374dedb6114311",
      "transactionType": "CREATE2",
      "contractName": "ParadoxHook",
      "contractAddress": "0x7a38361eb7574fc44115365d83a48b0f6e33d640",
      "function": null,
      "arguments": [
        "0x00B036B58a818B1BC34d502D3fE730Db729e62AC",
        "0x75B3E9873Ce7f0520f83b4042Cc30743223f36ba",
        "0xeeF34f7eAf4A0E07bA03D3FED1cE5d3Def38d5de",
        "0x4eD2E20671666A36709cB53879aBeA7433BDA9F6",
        "0x2047C691DB05c6F551d756718aA55d8340661D00",
        "0xeeb3e0999D01f0d1Ed465513E414725a357F6ae4"
      ],
      "transaction": {
        "from": "0xeeb3e0999d01f0d1ed465513e414725a357f6ae4",
        "to": "0x4e59b44847b379578588920ca78fbf26c0b4956c",
        "gas": "0x2b0939",
        "value": "0x0",
        "input": "0x0000000000000000000000000000000000000000000000000000000000002680610120604052348015610010575f5ffd5b5060405161282938038061282983398101604081905261002f91610362565b6001600160a01b0386166080528086610047306100a4565b506001600160a01b03811661007557604051631e4fbdf760e01b81525f600482015260240160405180910390fd5b61007e8161019a565b50506001600160a01b0393841660a05291831660c052821660e0521661010052506103e5565b61019781610192604080516101c0810182525f80825260208201819052918101829052606081018290526080810182905260a0810182905260c0810182905260e08101829052610100810182905261012081018290526101408101829052610160810182905261018081018290526101a081019190915250604080516101c0810182525f808252600160208301819052928201819052606082018390526080820183905260a0820181905260c0820181905260e0820192909252610100810182905261012081018290526101408101829052610160810182905261018081018290526101a081019190915290565b6101e9565b50565b5f80546001600160a01b038381166001600160a01b0319831681178455604051919092169283917f8be0079c531659141344cd1fd0a4f28419497f9722a3daafe3b4186f6b6457e09190a35050565b805115156120008316151514158061020d5750602081015115156110008316151514155b806102245750604081015115156108008316151514155b8061023b5750606081015115156104008316151514155b806102525750608081015115156102008316151514155b80610269575060a081015115156101008316151514155b8061027f575060c0810151151560808316151514155b80610295575060e0810151151560408316151514155b806102ac5750610100810151151560208316151514155b806102c35750610120810151151560108316151514155b806102da5750610140810151151560088316151514155b806102f15750610160810151151560048316151514155b806103085750610180810151151560028316151514155b8061031f57506101a0810151151560018316151514155b1561033557610335630732d7b560e51b83610339565b5050565b815f526001600160a01b03811660045260245ffd5b6001600160a01b0381168114610197575f5ffd5b5f5f5f5f5f5f60c08789031215610377575f5ffd5b86516103828161034e565b60208801519096506103938161034e565b60408801519095506103a48161034e565b60608801519094506103b58161034e565b60808801519093506103c68161034e565b60a08801519092506103d78161034e565b809150509295509295509295565b60805160a05160c05160e051610100516123356104f45f395f818161028e015281816108a60152818161093a01528181610af201526112ea01525f8181610146015261143901525f818161025701528181610db901526116f301525f8181610442015281816109d001528181610b5901528181610c230152818161117e015281816113600152818161156601528181611614015261178601525f8181610408015281816104db0152818161053c01528181610595015281816105fe01528181610667015281816106da015281816107340152818161079c015281816107ff01528181610cec01528181610eb501528181610fd4015281816110ea0152818161129401526114fe01526123355ff3fe608060405234801561000f575f5ffd5b506004361061013d575f3560e01c8063b47b2fb1116100b4578063e1b4af6911610079578063e1b4af69146102f9578063e2d2bfe31461043d578063ea509a6414610464578063f1c7ed0514610496578063f2fde38b146104a9578063f6d2cc1a146104bc575f5ffd5b8063b47b2fb1146102c3578063b6a8b0fa146102f9578063c4e833ce1461030c578063dc4c90d314610403578063dc98354e1461042a575f5ffd5b80636fe7e6eb116101055780636fe7e6eb14610235578063715018a614610248578063791b98bc146102525780638da5cb5b1461027957806398f4b1b2146102895780639f063efc146102b0575f5ffd5b806308ccadd81461014157806321d0ee7014610185578063259982e5146101b1578063575e24b4146101c45780636c2bbe7e14610202575b5f5ffd5b6101687f000000000000000000000000000000000000000000000000000000000000000081565b6040516001600160a01b0390911681526020015b60405180910390f35b610198610193366004611b24565b6104cf565b6040516001600160e01b0319909116815260200161017c565b6101986101bf366004611b24565b610530565b6101d76101d2366004611baa565b610587565b604080516001600160e01b03199094168452602084019290925262ffffff169082015260600161017c565b610215610210366004611c03565b6105f1565b604080516001600160e01b0319909316835260208301919091520161017c565b610198610243366004611ca3565b61065b565b6102506106ba565b005b6101687f000000000000000000000000000000000000000000000000000000000000000081565b5f546001600160a01b0316610168565b6101687f000000000000000000000000000000000000000000000000000000000000000081565b6102156102be366004611c03565b6106cd565b6102d66102d1366004611cfa565b610727565b604080516001600160e01b03199093168352600f9190910b60208301520161017c565b610198610307366004611d7a565b610790565b6103f6604080516101c0810182525f80825260208201819052918101829052606081018290526080810182905260a0810182905260c0810182905260e08101829052610100810182905261012081018290526101408101829052610160810182905261018081018290526101a081019190915250604080516101c0810182525f808252600160208301819052928201819052606082018390526080820183905260a0820181905260c0820181905260e0820192909252610100810182905261012081018290526101408101829052610160810182905261018081018290526101a081019190915290565b60405161017c9190611dd3565b6101687f000000000000000000000000000000000000000000000000000000000000000081565b610198610438366004611ef4565b6107f3565b6101687f000000000000000000000000000000000000000000000000000000000000000081565b610486610472366004611f3b565b60016020525f908152604090205460ff1681565b604051901515815260200161017c565b6102506104a4366004611f3b565b610850565b6102506104b7366004611f52565b610a48565b6102506104ca366004611f6d565b610a85565b5f336001600160a01b037f000000000000000000000000000000000000000000000000000000000000000016146105195760405163570c108560e11b815260040160405180910390fd5b6105268686868686610ce0565b9695505050505050565b5f336001600160a01b037f0000000000000000000000000000000000000000000000000000000000000000161461057a5760405163570c108560e11b815260040160405180910390fd5b6105268686868686610e58565b5f8080336001600160a01b037f000000000000000000000000000000000000000000000000000000000000000016146105d35760405163570c108560e11b815260040160405180910390fd5b6105e08888888888610e72565b925092509250955095509592505050565b5f80336001600160a01b037f0000000000000000000000000000000000000000000000000000000000000000161461063c5760405163570c108560e11b815260040160405180910390fd5b61064b89898989898989610e8e565b9150915097509795505050505050565b5f336001600160a01b037f000000000000000000000000000000000000000000000000000000000000000016146106a55760405163570c108560e11b815260040160405180910390fd5b6106b185858585610ea9565b95945050505050565b6106c2610f4c565b6106cb5f610f78565b565b5f80336001600160a01b037f000000000000000000000000000000000000000000000000000000000000000016146107185760405163570c108560e11b815260040160405180910390fd5b61064b89898989898989610fc7565b5f80336001600160a01b037f000000000000000000000000000000000000000000000000000000000000000016146107725760405163570c108560e11b815260040160405180910390fd5b6107808888888888886110dd565b915091505b965096945050505050565b5f336001600160a01b037f000000000000000000000000000000000000000000000000000000000000000016146107da5760405163570c108560e11b815260040160405180910390fd5b6107e8878787878787610e58565b979650505050505050565b5f336001600160a01b037f0000000000000000000000000000000000000000000000000000000000000000161461083d5760405163570c108560e11b815260040160405180910390fd5b610848848484610e58565b949350505050565b610858610f4c565b5f8181526001602052604090205460ff1661088e57604051631f43f51960e11b8152600481018290526024015b60405180910390fd5b60405163f67bffe160e01b8152600481018290525f907f00000000000000000000000000000000000000000000000000000000000000006001600160a01b03169063f67bffe190602401602060405180830381865afa1580156108f3573d5f5f3e3d5ffd5b505050506040513d601f19601f820116820180604052508101906109179190611fc1565b6040516305fd633360e21b8152600481018490529091505f906001600160a01b037f000000000000000000000000000000000000000000000000000000000000000016906317f58ccc90602401602060405180830381865afa15801561097f573d5f5f3e3d5ffd5b505050506040513d601f19601f820116820180604052508101906109a39190611fc1565b6040516371f91c2b60e01b81526004810185905260248101849052604481018290525f60648201529091507f00000000000000000000000000000000000000000000000000000000000000006001600160a01b0316906371f91c2b906084016020604051808303815f875af1158015610a1e573d5f5f3e3d5ffd5b505050506040513d601f19601f82011682018060405250810190610a429190611fc1565b50505050565b610a50610f4c565b6001600160a01b038116610a7957604051631e4fbdf760e01b81525f6004820152602401610885565b610a8281610f78565b50565b610a8d610f4c565b5f610aa7610aa03686900386018661201e565b60a0902090565b5f8181526001602052604090205490915060ff1615610adc57604051631303c39560e11b815260048101829052602401610885565b604051632fd9cc4d60e21b8152600481018290527f00000000000000000000000000000000000000000000000000000000000000006001600160a01b03169063bf673134906024015f604051808303815f87803b158015610b3b575f5ffd5b505af1158015610b4d573d5f5f3e3d5ffd5b50506001600160a01b037f00000000000000000000000000000000000000000000000000000000000000001691506309aee26c905082610b906020870187611f52565b610b9d60208801886120bd565b886040013589606001358a608001356040518863ffffffff1660e01b8152600401610bce97969594939291906120ff565b5f604051808303815f87803b158015610be5575f5ffd5b505af1158015610bf7573d5f5f3e3d5ffd5b50506040516371f91c2b60e01b815260048101849052602481018590525f6044820181905260648201527f00000000000000000000000000000000000000000000000000000000000000006001600160a01b031692506371f91c2b91506084016020604051808303815f875af1158015610c73573d5f5f3e3d5ffd5b505050506040513d601f19601f82011682018060405250810190610c979190611fc1565b505f818152600160208190526040808320805460ff19169092179091555182917f43641244aeefd8de6827c26f36450aa6165c9fef65ddfa7262da93ba648464d291a250505050565b5f336001600160a01b037f00000000000000000000000000000000000000000000000000000000000000001614610d2a5760405163570c108560e11b815260040160405180910390fd5b5f610d3d610aa03688900388018861201e565b5f8181526001602052604090205490915060ff16610d7157604051631f43f51960e11b815260048101829052602401610885565b6020831015610d9357604051636acdab4d60e11b815260040160405180910390fd5b5f610da084860186611f3b565b604051637b41591b60e01b8152600481018290529091507f00000000000000000000000000000000000000000000000000000000000000006001600160a01b031690637b41591b906024015f604051808303815f87803b158015610e02575f5ffd5b505af1158015610e14573d5f5f3e3d5ffd5b50506040518392508491507f3d172af9749bff81e14b4d7c42ec92a8e56a6c58497d6bda170a89104eb6276c905f90a35063021d0ee760e41b979650505050505050565b5f604051630a85dc2960e01b815260040160405180910390fd5b5f5f5f604051630a85dc2960e01b815260040160405180910390fd5b5f5f604051630a85dc2960e01b815260040160405180910390fd5b5f336001600160a01b037f00000000000000000000000000000000000000000000000000000000000000001614610ef35760405163570c108560e11b815260040160405180910390fd5b5f610f06610aa03687900387018761201e565b5f8181526001602052604090205490915060ff16610f3a57604051631f43f51960e11b815260048101829052602401610885565b50636fe7e6eb60e01b95945050505050565b5f546001600160a01b031633146106cb5760405163118cdaa760e01b8152336004820152602401610885565b5f80546001600160a01b038381166001600160a01b0319831681178455604051919092169283917f8be0079c531659141344cd1fd0a4f28419497f9722a3daafe3b4186f6b6457e09190a35050565b5f80336001600160a01b037f000000000000000000000000000000000000000000000000000000000000000016146110125760405163570c108560e11b815260040160405180910390fd5b5f611025610aa0368b90038b018b61201e565b5f8181526001602052604090205490915060ff1661105957604051631f43f51960e11b815260048101829052602401610885565b5f5f89604001351361106b575f611071565b88604001355b9050806001600160801b03165f0361109c57604051630200e8a960e31b815260040160405180910390fd5b6110c48b836110ae60208d018d61215c565b6110be60408e0160208f0161215c565b856114f0565b506327c18fbf60e21b9a5f9a5098505050505050505050565b5f80336001600160a01b037f000000000000000000000000000000000000000000000000000000000000000016146111285760405163570c108560e11b815260040160405180910390fd5b5f61113b610aa0368a90038a018a61201e565b5f8181526001602052604090205490915060ff16611166575063b47b2fb160e01b91505f9050610785565b604051639dc4457d60e01b8152600481018290525f907f00000000000000000000000000000000000000000000000000000000000000006001600160a01b031690639dc4457d90602401602060405180830381865afa1580156111cb573d5f5f3e3d5ffd5b505050506040513d601f19601f820116820180604052508101906111ef9190611fc1565b9050805f0361120d575063b47b2fb160e01b92505f91506107859050565b5f6112248861121f60208c018c61217c565b611833565b90505f620f424061123b60608d0160408e0161219b565b6112539062ffffff166001600160801b0385166121c8565b61125d91906121df565b9050806001600160801b03165f03611286575063b47b2fb160e01b94505f935061078592505050565b5f6112ba6001600160a01b037f000000000000000000000000000000000000000000000000000000000000000016866118a4565b604051633a3a968360e11b8152600481018790526001600160801b038085166024830152821660448201529091507f00000000000000000000000000000000000000000000000000000000000000006001600160a01b0316906374752d06906064015f604051808303815f87803b158015611333575f5ffd5b505af1158015611345573d5f5f3e3d5ffd5b5050604051635e05e35d60e11b8152600481018790525f92507f00000000000000000000000000000000000000000000000000000000000000006001600160a01b0316915063bc0bc6ba9060240160e060405180830381865afa1580156113ae573d5f5f3e3d5ffd5b505050506040513d601f19601f820116820180604052508101906113d2919061222a565b90505f6113de82611927565b90505f8e5f0160208101906113f39190611f52565b60405162fdfc6360e11b815260048101899052602481018a90526001600160a01b0380831660448301526001600160801b038089166064840152851660848301529192507f0000000000000000000000000000000000000000000000000000000000000000909116906301fbf8c69060a4015f604051808303815f87803b15801561147c575f5ffd5b505af115801561148e573d5f5f3e3d5ffd5b50506040516001600160801b03881681528992508a91507f056ada55158a8c85f0b6b147de84fcde890df30c9880af86a2a008a983023c4d9060200160405180910390a35063b47b2fb160e01b9f5f9f509d5050505050505050505050505050565b5f6115246001600160a01b037f000000000000000000000000000000000000000000000000000000000000000016866119b8565b50505090505f6060826001600160a01b0316846001600160801b031661154a91906121c8565b604051639dc4457d60e01b815260048101899052911c91505f907f00000000000000000000000000000000000000000000000000000000000000006001600160a01b031690639dc4457d90602401602060405180830381865afa1580156115b3573d5f5f3e3d5ffd5b505050506040513d601f19601f820116820180604052508101906115d79190611fc1565b9050805f036115fc57604051636ae12f0560e01b815260048101889052602401610885565b604051635e05e35d60e11b8152600481018290525f907f00000000000000000000000000000000000000000000000000000000000000006001600160a01b03169063bc0bc6ba9060240160e060405180830381865afa158015611661573d5f5f3e3d5ffd5b505050506040513d601f19601f82011682018060405250810190611685919061222a565b608001516040516348ec730d60e01b81526001600160a01b038b81166004830152602482018b90526044820185905260028a810b606484015289900b60848301526001600160801b0380891660a4840152861660c48301526001600160401b03831660e48301529192505f917f000000000000000000000000000000000000000000000000000000000000000016906348ec730d90610104016020604051808303815f875af115801561173a573d5f5f3e3d5ffd5b505050506040513d601f19601f8201168201806040525081019061175e9190611fc1565b6040516376d7431b60e01b8152600481018b90526001600160801b03861660248201529091507f00000000000000000000000000000000000000000000000000000000000000006001600160a01b0316906376d7431b906044015f604051808303815f87803b1580156117cf575f5ffd5b505af11580156117e1573d5f5f3e3d5ffd5b50506040516001600160801b03871681528592508391508b907f47562561c6e13515267c108f70a814866a268b2f87d53b0d1a90aade8cdd3a469060200160405180910390a450505050505050505050565b5f811561186e575f6118458460801d90565b90505f81600f0b12156118645780600f0b61185f906122b3565b611866565b805b91505061189e565b5f61187984600f0b90565b90505f81600f0b12156118985780600f0b611893906122b3565b61189a565b805b9150505b92915050565b5f5f6118af83611a6a565b90505f6118bd6003836122cd565b604051631e2eaeaf60e01b8152600481018290529091506001600160a01b03861690631e2eaeaf90602401602060405180830381865afa158015611903573d5f5f3e3d5ffd5b505050506040513d601f19601f820116820180604052508101906106b19190611fc1565b5f8160a001516001600160801b03165f0361194357505f919050565b5f8260400151836060015161195891906122e0565b90505f670de0b6b3a764000084608001516001600160801b03168560a001516001600160801b031661198a91906121c8565b61199491906121df565b90506301e133806119ae6001600160401b038416836121c8565b61084891906121df565b5f5f5f5f5f6119c686611a6a565b604051631e2eaeaf60e01b8152600481018290529091505f906001600160a01b03891690631e2eaeaf90602401602060405180830381865afa158015611a0e573d5f5f3e3d5ffd5b505050506040513d601f19601f82011682018060405250810190611a329190611fc1565b90506001600160a01b03811695508060a01c60020b945062ffffff8160b81c16935062ffffff8160d01c169250505092959194509250565b6040515f90611a89908390600690602001918252602082015260400190565b604051602081830303815290604052805190602001209050919050565b6001600160a01b0381168114610a82575f5ffd5b5f60a08284031215611aca575f5ffd5b50919050565b5f60808284031215611aca575f5ffd5b5f5f83601f840112611af0575f5ffd5b5081356001600160401b03811115611b06575f5ffd5b602083019150836020828501011115611b1d575f5ffd5b9250929050565b5f5f5f5f5f6101608688031215611b39575f5ffd5b8535611b4481611aa6565b9450611b538760208801611aba565b9350611b628760c08801611ad0565b92506101408601356001600160401b03811115611b7d575f5ffd5b611b8988828901611ae0565b969995985093965092949392505050565b5f60608284031215611aca575f5ffd5b5f5f5f5f5f6101408688031215611bbf575f5ffd5b8535611bca81611aa6565b9450611bd98760208801611aba565b9350611be88760c08801611b9a565b92506101208601356001600160401b03811115611b7d575f5ffd5b5f5f5f5f5f5f5f6101a0888a031215611c1a575f5ffd5b8735611c2581611aa6565b9650611c348960208a01611aba565b9550611c438960c08a01611ad0565b9450610140880135935061016088013592506101808801356001600160401b03811115611c6e575f5ffd5b611c7a8a828b01611ae0565b989b979a50959850939692959293505050565b8035600281900b8114611c9e575f5ffd5b919050565b5f5f5f5f6101008587031215611cb7575f5ffd5b8435611cc281611aa6565b9350611cd18660208701611aba565b925060c0850135611ce181611aa6565b9150611cef60e08601611c8d565b905092959194509250565b5f5f5f5f5f5f6101608789031215611d10575f5ffd5b8635611d1b81611aa6565b9550611d2a8860208901611aba565b9450611d398860c08901611b9a565b935061012087013592506101408701356001600160401b03811115611d5c575f5ffd5b611d6889828a01611ae0565b979a9699509497509295939492505050565b5f5f5f5f5f5f6101208789031215611d90575f5ffd5b8635611d9b81611aa6565b9550611daa8860208901611aba565b945060c0870135935060e087013592506101008701356001600160401b03811115611d5c575f5ffd5b8151151581526101c081016020830151611df1602084018215159052565b506040830151611e05604084018215159052565b506060830151611e19606084018215159052565b506080830151611e2d608084018215159052565b5060a0830151611e4160a084018215159052565b5060c0830151611e5560c084018215159052565b5060e0830151611e6960e084018215159052565b50610100830151611e7f61010084018215159052565b50610120830151611e9561012084018215159052565b50610140830151611eab61014084018215159052565b50610160830151611ec161016084018215159052565b50610180830151611ed761018084018215159052565b506101a0830151611eed6101a084018215159052565b5092915050565b5f5f5f60e08486031215611f06575f5ffd5b8335611f1181611aa6565b9250611f208560208601611aba565b915060c0840135611f3081611aa6565b809150509250925092565b5f60208284031215611f4b575f5ffd5b5035919050565b5f60208284031215611f62575f5ffd5b813561189881611aa6565b5f5f5f60e08486031215611f7f575f5ffd5b611f898585611aba565b925060a08401356001600160401b03811115611fa3575f5ffd5b611faf86828701611aba565b939693955050505060c0919091013590565b5f60208284031215611fd1575f5ffd5b5051919050565b60405160e081016001600160401b038111828210171561200657634e487b7160e01b5f52604160045260245ffd5b60405290565b803562ffffff81168114611c9e575f5ffd5b5f60a082840312801561202f575f5ffd5b5060405160a081016001600160401b038111828210171561205e57634e487b7160e01b5f52604160045260245ffd5b604052823561206c81611aa6565b8152602083013561207c81611aa6565b602082015261208d6040840161200c565b604082015261209e60608401611c8d565b606082015260808301356120b181611aa6565b60808201529392505050565b5f5f8335601e198436030181126120d2575f5ffd5b8301803591506001600160401b038211156120eb575f5ffd5b602001915036819003821315611b1d575f5ffd5b8781526001600160a01b038716602082015260c0604082018190528101859052848660e08301375f60e086830101525f60e0601f19601f88011683010190508460608301528360808301528260a083015298975050505050505050565b5f6020828403121561216c575f5ffd5b61217582611c8d565b9392505050565b5f6020828403121561218c575f5ffd5b81358015158114611898575f5ffd5b5f602082840312156121ab575f5ffd5b6121758261200c565b634e487b7160e01b5f52601160045260245ffd5b808202811582820484141761189e5761189e6121b4565b5f826121f957634e487b7160e01b5f52601260045260245ffd5b500490565b80516001600160401b0381168114611c9e575f5ffd5b80516001600160801b0381168114611c9e575f5ffd5b5f60e082840312801561223b575f5ffd5b50612244611fd8565b825181526020808401519082015261225e604084016121fe565b604082015261226f606084016121fe565b606082015261228060808401612214565b608082015261229160a08401612214565b60a082015260c0830151600281106122a7575f5ffd5b60c08201529392505050565b5f600160ff1b82016122c7576122c76121b4565b505f0390565b8082018082111561189e5761189e6121b4565b6001600160401b03828116828216039081111561189e5761189e6121b456fea2646970667358221220b22a457af665dbfdd4c06f1334e16894d5cb3a5ea3d1b53432ca04f8f487ebc364736f6c6343000821003300000000000000000000000000b036b58a818b1bc34d502d3fe730db729e62ac00000000000000000000000075b3e9873ce7f0520f83b4042cc30743223f36ba000000000000000000000000eef34f7eaf4a0e07ba03d3fed1ce5d3def38d5de0000000000000000000000004ed2e20671666a36709cb53879abea7433bda9f60000000000000000000000002047c691db05c6f551d756718aa55d8340661d00000000000000000000000000eeb3e0999d01f0d1ed465513e414725a357f6ae4",
        "nonce": "0x64",
        "chainId": "0x515"
      },
      "additionalContracts": [],
      "isFixedGasLimit": false
    },
    {
      "hash": "0x7e16378ba3f834ebbd3d13844dbfd6a25e7ac9d9bf95c12e6ef3a36316186830",
      "transactionType": "CALL",
      "contractName": null,
      "contractAddress": "0x75b3e9873ce7f0520f83b4042cc30743223f36ba",
      "function": "setAuthorizedCaller(address)",
      "arguments": [
        "0x7a38361eb7574FC44115365D83A48B0f6E33d640"
      ],
      "transaction": {
        "from": "0xeeb3e0999d01f0d1ed465513e414725a357f6ae4",
        "to": "0x75b3e9873ce7f0520f83b4042cc30743223f36ba",
        "gas": "0x11050",
        "value": "0x0",
        "input": "0xcf8fbec90000000000000000000000007a38361eb7574fc44115365d83a48b0f6e33d640",
        "nonce": "0x65",
        "chainId": "0x515"
      },
      "additionalContracts": [],
      "isFixedGasLimit": false
    },
    {
      "hash": "0xc61bf1177ab5dc6d095760dd99973ac1dca732334aea056c73e4b10e716d3db1",
      "transactionType": "CALL",
      "contractName": null,
      "contractAddress": "0xeef34f7eaf4a0e07ba03d3fed1ce5d3def38d5de",
      "function": "setAuthorizedCaller(address)",
      "arguments": [
        "0x7a38361eb7574FC44115365D83A48B0f6E33d640"
      ],
      "transaction": {
        "from": "0xeeb3e0999d01f0d1ed465513e414725a357f6ae4",
        "to": "0xeef34f7eaf4a0e07ba03d3fed1ce5d3def38d5de",
        "gas": "0x1107c",
        "value": "0x0",
        "input": "0xcf8fbec90000000000000000000000007a38361eb7574fc44115365d83a48b0f6e33d640",
        "nonce": "0x66",
        "chainId": "0x515"
      },
      "additionalContracts": [],
      "isFixedGasLimit": false
    },
    {
      "hash": "0xa5c16ab25a8a4e1b7a0d1dc08e61412c88d56defb62da7567a9ecff69d5845ba",
      "transactionType": "CALL",
      "contractName": null,
      "contractAddress": "0x2047c691db05c6f551d756718aa55d8340661d00",
      "function": "setAuthorizedCaller(address)",
      "arguments": [
        "0x7a38361eb7574FC44115365D83A48B0f6E33d640"
      ],
      "transaction": {
        "from": "0xeeb3e0999d01f0d1ed465513e414725a357f6ae4",
        "to": "0x2047c691db05c6f551d756718aa55d8340661d00",
        "gas": "0xa4a5",
        "value": "0x0",
        "input": "0xcf8fbec90000000000000000000000007a38361eb7574fc44115365d83a48b0f6e33d640",
        "nonce": "0x67",
        "chainId": "0x515"
      },
      "additionalContracts": [],
      "isFixedGasLimit": false
    },
    {
      "hash": "0x53638d49f777e1a0948f4368979185208756ac9b3b73f6d90721dcf91e8ed834",
      "transactionType": "CALL",
      "contractName": null,
      "contractAddress": "0x4ed2e20671666a36709cb53879abea7433bda9f6",
      "function": "setAuthorizedCaller(address)",
      "arguments": [
        "0x7a38361eb7574FC44115365D83A48B0f6E33d640"
      ],
      "transaction": {
        "from": "0xeeb3e0999d01f0d1ed465513e414725a357f6ae4",
        "to": "0x4ed2e20671666a36709cb53879abea7433bda9f6",
        "gas": "0x10177",
        "value": "0x0",
        "input": "0xcf8fbec90000000000000000000000007a38361eb7574fc44115365d83a48b0f6e33d640",
        "nonce": "0x68",
        "chainId": "0x515"
      },
      "additionalContracts": [],
      "isFixedGasLimit": false
    },
    {
      "hash": "0xd82527f9b1e5a0ec90a5023dd8954dcc0fa41b54e7898d0077b208cb4930a3ef",
      "transactionType": "CALL",
      "contractName": null,
      "contractAddress": "0xfa022c6374e9bf63498e5db4c3dec2640e653ef3",
      "function": "setAuthorizedCaller(address)",
      "arguments": [
        "0x4eD2E20671666A36709cB53879aBeA7433BDA9F6"
      ],
      "transaction": {
        "from": "0xeeb3e0999d01f0d1ed465513e414725a357f6ae4",
        "to": "0xfa022c6374e9bf63498e5db4c3dec2640e653ef3",
        "gas": "0x1107c",
        "value": "0x0",
        "input": "0xcf8fbec90000000000000000000000004ed2e20671666a36709cb53879abea7433bda9f6",
        "nonce": "0x69",
        "chainId": "0x515"
      },
      "additionalContracts": [],
      "isFixedGasLimit": false
    },
    {
      "hash": "0xb25af7f2d9c12b8562f323fd2d1d8ef347b2b51fb112409306230b9739a80cb8",
      "transactionType": "CALL",
      "contractName": null,
      "contractAddress": "0xd6cbe82ed1462cf17c6fa31df90318d6e6df67b4",
      "function": "grantRole(bytes32,address)",
      "arguments": [
        "0x9f2df0fed2c77648de5860a4cc508cd0818c85b8b8a1ab4ceeef8d981c8956a6",
        "0x7a38361eb7574FC44115365D83A48B0f6E33d640"
      ],
      "transaction": {
        "from": "0xeeb3e0999d01f0d1ed465513e414725a357f6ae4",
        "to": "0xd6cbe82ed1462cf17c6fa31df90318d6e6df67b4",
        "gas": "0x1162b",
        "value": "0x0",
        "input": "0x2f2ff15d9f2df0fed2c77648de5860a4cc508cd0818c85b8b8a1ab4ceeef8d981c8956a60000000000000000000000007a38361eb7574fc44115365d83a48b0f6e33d640",
        "nonce": "0x6a",
        "chainId": "0x515"
      },
      "additionalContracts": [],
      "isFixedGasLimit": false
    },
    {
      "hash": "0x25bb429adee4664732d2d226392fe1f98a40c4ea067f05a5a6fc3897c13a1841",
      "transactionType": "CALL",
      "contractName": null,
      "contractAddress": "0xd6cbe82ed1462cf17c6fa31df90318d6e6df67b4",
      "function": "grantRole(bytes32,address)",
      "arguments": [
        "0x3c11d16cbaffd01df69ce1c404f6340ee057498f5f00246190ea54220576a848",
        "0x7a38361eb7574FC44115365D83A48B0f6E33d640"
      ],
      "transaction": {
        "from": "0xeeb3e0999d01f0d1ed465513e414725a357f6ae4",
        "to": "0xd6cbe82ed1462cf17c6fa31df90318d6e6df67b4",
        "gas": "0x1161a",
        "value": "0x0",
        "input": "0x2f2ff15d3c11d16cbaffd01df69ce1c404f6340ee057498f5f00246190ea54220576a8480000000000000000000000007a38361eb7574fc44115365d83a48b0f6e33d640",
        "nonce": "0x6b",
        "chainId": "0x515"
      },
      "additionalContracts": [],
      "isFixedGasLimit": false
    },
    {
      "hash": "0xe855b4db09137ad8526c79c0efad7b5b5a84a38ca2b4967d17e0911e5f63758e",
      "transactionType": "CALL",
      "contractName": null,
      "contractAddress": "0xd6cbe82ed1462cf17c6fa31df90318d6e6df67b4",
      "function": "grantRole(bytes32,address)",
      "arguments": [
        "0x3c11d16cbaffd01df69ce1c404f6340ee057498f5f00246190ea54220576a848",
        "0xfa022C6374E9bf63498E5Db4C3Dec2640e653eF3"
      ],
      "transaction": {
        "from": "0xeeb3e0999d01f0d1ed465513e414725a357f6ae4",
        "to": "0xd6cbe82ed1462cf17c6fa31df90318d6e6df67b4",
        "gas": "0x1161a",
        "value": "0x0",
        "input": "0x2f2ff15d3c11d16cbaffd01df69ce1c404f6340ee057498f5f00246190ea54220576a848000000000000000000000000fa022c6374e9bf63498e5db4c3dec2640e653ef3",
        "nonce": "0x6c",
        "chainId": "0x515"
      },
      "additionalContracts": [],
      "isFixedGasLimit": false
    },
    {
      "hash": "0x09083eb73a01d3dd214e7bf556f70a26595789f743ea56dd1d40bf568f374158",
      "transactionType": "CALL",
      "contractName": null,
      "contractAddress": "0xd6cbe82ed1462cf17c6fa31df90318d6e6df67b4",
      "function": "revokeRole(bytes32,address)",
      "arguments": [
        "0x9f2df0fed2c77648de5860a4cc508cd0818c85b8b8a1ab4ceeef8d981c8956a6",
        "0xeeb3e0999D01f0d1Ed465513E414725a357F6ae4"
      ],
      "transaction": {
        "from": "0xeeb3e0999d01f0d1ed465513e414725a357f6ae4",
        "to": "0xd6cbe82ed1462cf17c6fa31df90318d6e6df67b4",
        "gas": "0x9f6c",
        "value": "0x0",
        "input": "0xd547741f9f2df0fed2c77648de5860a4cc508cd0818c85b8b8a1ab4ceeef8d981c8956a6000000000000000000000000eeb3e0999d01f0d1ed465513e414725a357f6ae4",
        "nonce": "0x6d",
        "chainId": "0x515"
      },
      "additionalContracts": [],
      "isFixedGasLimit": false
    },
    {
      "hash": "0xdd16671650c873f8e695096a3970037871e77f26afe75f2c2a80ed85982f9058",
      "transactionType": "CALL",
      "contractName": null,
      "contractAddress": "0x8c20e9a6e5e2aa038ed463460e412b669fe712aa",
      "function": "grantRole(bytes32,address)",
      "arguments": [
        "0x9f2df0fed2c77648de5860a4cc508cd0818c85b8b8a1ab4ceeef8d981c8956a6",
        "0x7a38361eb7574FC44115365D83A48B0f6E33d640"
      ],
      "transaction": {
        "from": "0xeeb3e0999d01f0d1ed465513e414725a357f6ae4",
        "to": "0x8c20e9a6e5e2aa038ed463460e412b669fe712aa",
        "gas": "0x1160c",
        "value": "0x0",
        "input": "0x2f2ff15d9f2df0fed2c77648de5860a4cc508cd0818c85b8b8a1ab4ceeef8d981c8956a60000000000000000000000007a38361eb7574fc44115365d83a48b0f6e33d640",
        "nonce": "0x6e",
        "chainId": "0x515"
      },
      "additionalContracts": [],
      "isFixedGasLimit": false
    },
    {
      "hash": "0xc78cedaf4fc57dcc22f4da9792566fc8a8a9e755e24460e810835d73e425c4b8",
      "transactionType": "CALL",
      "contractName": null,
      "contractAddress": "0x8c20e9a6e5e2aa038ed463460e412b669fe712aa",
      "function": "grantRole(bytes32,address)",
      "arguments": [
        "0x3c11d16cbaffd01df69ce1c404f6340ee057498f5f00246190ea54220576a848",
        "0x7a38361eb7574FC44115365D83A48B0f6E33d640"
      ],
      "transaction": {
        "from": "0xeeb3e0999d01f0d1ed465513e414725a357f6ae4",
        "to": "0x8c20e9a6e5e2aa038ed463460e412b669fe712aa",
        "gas": "0x12656",
        "value": "0x0",
        "input": "0x2f2ff15d3c11d16cbaffd01df69ce1c404f6340ee057498f5f00246190ea54220576a8480000000000000000000000007a38361eb7574fc44115365d83a48b0f6e33d640",
        "nonce": "0x6f",
        "chainId": "0x515"
      },
      "additionalContracts": [],
      "isFixedGasLimit": false
    },
    {
      "hash": "0xfabc0cf4306c3fcd5382f31b646830f194f34beb1bcd405c5c5b3ee98381c3c4",
      "transactionType": "CALL",
      "contractName": null,
      "contractAddress": "0x8c20e9a6e5e2aa038ed463460e412b669fe712aa",
      "function": "grantRole(bytes32,address)",
      "arguments": [
        "0x3c11d16cbaffd01df69ce1c404f6340ee057498f5f00246190ea54220576a848",
        "0xfa022C6374E9bf63498E5Db4C3Dec2640e653eF3"
      ],
      "transaction": {
        "from": "0xeeb3e0999d01f0d1ed465513e414725a357f6ae4",
        "to": "0x8c20e9a6e5e2aa038ed463460e412b669fe712aa",
        "gas": "0x12656",
        "value": "0x0",
        "input": "0x2f2ff15d3c11d16cbaffd01df69ce1c404f6340ee057498f5f00246190ea54220576a848000000000000000000000000fa022c6374e9bf63498e5db4c3dec2640e653ef3",
        "nonce": "0x70",
        "chainId": "0x515"
      },
      "additionalContracts": [],
      "isFixedGasLimit": false
    },
    {
      "hash": "0xabd0d4d33948cc722e3c098e14a87ab87bbd505fffb110af41b17d637da25a20",
      "transactionType": "CALL",
      "contractName": null,
      "contractAddress": "0x8c20e9a6e5e2aa038ed463460e412b669fe712aa",
      "function": "revokeRole(bytes32,address)",
      "arguments": [
        "0x9f2df0fed2c77648de5860a4cc508cd0818c85b8b8a1ab4ceeef8d981c8956a6",
        "0xeeb3e0999D01f0d1Ed465513E414725a357F6ae4"
      ],
      "transaction": {
        "from": "0xeeb3e0999d01f0d1ed465513e414725a357f6ae4",
        "to": "0x8c20e9a6e5e2aa038ed463460e412b669fe712aa",
        "gas": "0x9f6c",
        "value": "0x0",
        "input": "0xd547741f9f2df0fed2c77648de5860a4cc508cd0818c85b8b8a1ab4ceeef8d981c8956a6000000000000000000000000eeb3e0999d01f0d1ed465513e414725a357f6ae4",
        "nonce": "0x71",
        "chainId": "0x515"
      },
      "additionalContracts": [],
      "isFixedGasLimit": false
    },
    {
      "hash": "0x7e7a7899f947fc9cfe87e731a871db6b3f4681ed37297482f7d2e4629eac5243",
      "transactionType": "CALL",
      "contractName": null,
      "contractAddress": "0x4ed2e20671666a36709cb53879abea7433bda9f6",
      "function": "setMaturityVault(address)",
      "arguments": [
        "0xfa022C6374E9bf63498E5Db4C3Dec2640e653eF3"
      ],
      "transaction": {
        "from": "0xeeb3e0999d01f0d1ed465513e414725a357f6ae4",
        "to": "0x4ed2e20671666a36709cb53879abea7433bda9f6",
        "gas": "0x10fe5",
        "value": "0x0",
        "input": "0xfda8f558000000000000000000000000fa022c6374e9bf63498e5db4c3dec2640e653ef3",
        "nonce": "0x72",
        "chainId": "0x515"
      },
      "additionalContracts": [],
      "isFixedGasLimit": false
    }
  ],
  "receipts": [
    {
      "status": "0x1",
      "cumulativeGasUsed": "0x21a23e",
      "logs": [
        {
          "address": "0x7a38361eb7574fc44115365d83a48b0f6e33d640",
          "topics": [
            "0x8be0079c531659141344cd1fd0a4f28419497f9722a3daafe3b4186f6b6457e0",
            "0x0000000000000000000000000000000000000000000000000000000000000000",
            "0x000000000000000000000000eeb3e0999d01f0d1ed465513e414725a357f6ae4"
          ],
          "data": "0x",
          "blockHash": "0x53f02f603b78fb043d529d9d31daf815ae259a371046f1b80b67569fc7224104",
          "blockNumber": "0x2cec277",
          "blockTimestamp": "0x69bc6fc3",
          "transactionHash": "0x53638d49f777e1a0948f4368979185208756ac9b3b73f6d90721dcf91e8ed834",
          "transactionIndex": "0x3",
          "logIndex": "0x1",
          "removed": false
        }
      ],
      "logsBloom": "0x00000000000000000000000000000000000040000000000000800000000000000000000000000000000000000000000000000000000000000000000000000020000000000000000000000000000000000001000000000000000000000000000000000000020000000000000000000880000000000000000000000000000000400000000000000000000000000000000000000000000000800000000000000000000000000000000000000000000000000000000000000000000010000000000000000100000000000000000000000000000000000000000000000000000020000000000000000000000000000000000000000000000000000000000000000000",
      "type": "0x2",
      "transactionHash": "0x53638d49f777e1a0948f4368979185208756ac9b3b73f6d90721dcf91e8ed834",
      "transactionIndex": "0x3",
      "blockHash": "0x53f02f603b78fb043d529d9d31daf815ae259a371046f1b80b67569fc7224104",
      "blockNumber": "0x2cec277",
      "gasUsed": "0x1f2846",
      "effectiveGasPrice": "0x7a121",
      "blobGasUsed": "0x1d42a0",
      "from": "0xeeb3e0999d01f0d1ed465513e414725a357f6ae4",
      "to": "0x4e59b44847b379578588920ca78fbf26c0b4956c",
      "contractAddress": "0x7a38361eb7574fc44115365d83a48b0f6e33d640",
      "daFootprintGasScalar": "0x190",
      "l1BaseFeeScalar": "0x7d0",
      "l1BlobBaseFee": "0x1",
      "l1BlobBaseFeeScalar": "0xdbba0",
      "l1Fee": "0x163f",
      "l1GasPrice": "0x9",
      "l1GasUsed": "0x12ba0"
    },
    {
      "status": "0x1",
      "cumulativeGasUsed": "0x225c71",
      "logs": [
        {
          "address": "0x75b3e9873ce7f0520f83b4042cc30743223f36ba",
          "topics": [
            "0xe5dd7566e5c9bd793d095ca950687644423696aa5cb7774dd9a311d44f326990",
            "0x0000000000000000000000000000000000000000000000000000000000000000",
            "0x0000000000000000000000007a38361eb7574fc44115365d83a48b0f6e33d640"
          ],
          "data": "0x",
          "blockHash": "0x53f02f603b78fb043d529d9d31daf815ae259a371046f1b80b67569fc7224104",
          "blockNumber": "0x2cec277",
          "blockTimestamp": "0x69bc6fc3",
          "transactionHash": "0xb9f79da476b1a93b9ce5ac79cafc82df5a70b7cacf0af797c8374dedb6114311",
          "transactionIndex": "0x4",
          "logIndex": "0x2",
          "removed": false
        }
      ],
      "logsBloom": "0x00000000000000000000000000000000000000000000000000000000000000000000000020000000000000000000000000000000000010000000000000000000000000000000000000000000400000000000000000000000000000000000000000000000020000000000000010000800000000000000000000000000000000000000000000000000000000000000002000000000000040000000000000000000000000000000000000000000000000000000000000000000000000000000000000000000200000000000000000000000000000000000000000080000000020000000000000000000000000000000000000000000800000000000000000000000",
      "type": "0x2",
      "transactionHash": "0xb9f79da476b1a93b9ce5ac79cafc82df5a70b7cacf0af797c8374dedb6114311",
      "transactionIndex": "0x4",
      "blockHash": "0x53f02f603b78fb043d529d9d31daf815ae259a371046f1b80b67569fc7224104",
      "blockNumber": "0x2cec277",
      "gasUsed": "0xba33",
      "effectiveGasPrice": "0x7a121",
      "blobGasUsed": "0x9c40",
      "from": "0xeeb3e0999d01f0d1ed465513e414725a357f6ae4",
      "to": "0x75b3e9873ce7f0520f83b4042cc30743223f36ba",
      "contractAddress": null,
      "daFootprintGasScalar": "0x190",
      "l1BaseFeeScalar": "0x7d0",
      "l1BlobBaseFee": "0x1",
      "l1BlobBaseFeeScalar": "0xdbba0",
      "l1Fee": "0x76",
      "l1GasPrice": "0x9",
      "l1GasUsed": "0x640"
    },
    {
      "status": "0x1",
      "cumulativeGasUsed": "0x2486f4",
      "logs": [
        {
          "address": "0xeef34f7eaf4a0e07ba03d3fed1ce5d3def38d5de",
          "topics": [
            "0xe5dd7566e5c9bd793d095ca950687644423696aa5cb7774dd9a311d44f326990",
            "0x0000000000000000000000000000000000000000000000000000000000000000",
            "0x0000000000000000000000007a38361eb7574fc44115365d83a48b0f6e33d640"
          ],
          "data": "0x",
          "blockHash": "0x53f02f603b78fb043d529d9d31daf815ae259a371046f1b80b67569fc7224104",
          "blockNumber": "0x2cec277",
          "blockTimestamp": "0x69bc6fc3",
          "transactionHash": "0xabd0d4d33948cc722e3c098e14a87ab87bbd505fffb110af41b17d637da25a20",
          "transactionIndex": "0x6",
          "logIndex": "0x4",
          "removed": false
        }
      ],
      "logsBloom": "0x00000000000000000000000000000000000000000000080000000000000000000000000020000000000000000000000000000000000010000000000000000000000000000000000000000000000000000000000000000000000000000000000000000000020000000000000000200800000000000000000000000000000000000000000000000000000000000000002000000000000040000000000000000000000000000000000000000000000000000000000000000000000000000000000100000000200000000000000000000000000000000000000000080000000020000000000000000000000000000000000000000000000000000000000000000000",
      "type": "0x2",
      "transactionHash": "0xabd0d4d33948cc722e3c098e14a87ab87bbd505fffb110af41b17d637da25a20",
      "transactionIndex": "0x6",
      "blockHash": "0x53f02f603b78fb043d529d9d31daf815ae259a371046f1b80b67569fc7224104",
      "blockNumber": "0x2cec277",
      "gasUsed": "0xba51",
      "effectiveGasPrice": "0x7a121",
      "blobGasUsed": "0x9c40",
      "from": "0xeeb3e0999d01f0d1ed465513e414725a357f6ae4",
      "to": "0xeef34f7eaf4a0e07ba03d3fed1ce5d3def38d5de",
      "contractAddress": null,
      "daFootprintGasScalar": "0x190",
      "l1BaseFeeScalar": "0x7d0",
      "l1BlobBaseFee": "0x1",
      "l1BlobBaseFeeScalar": "0xdbba0",
      "l1Fee": "0x76",
      "l1GasPrice": "0x9",
      "l1GasUsed": "0x640"
    },
    {
      "status": "0x1",
      "cumulativeGasUsed": "0x24fe28",
      "logs": [
        {
          "address": "0x2047c691db05c6f551d756718aa55d8340661d00",
          "topics": [
            "0xe5dd7566e5c9bd793d095ca950687644423696aa5cb7774dd9a311d44f326990",
            "0x0000000000000000000000000000000000000000000000000000000000000000",
            "0x0000000000000000000000007a38361eb7574fc44115365d83a48b0f6e33d640"
          ],
          "data": "0x",
          "blockHash": "0x53f02f603b78fb043d529d9d31daf815ae259a371046f1b80b67569fc7224104",
          "blockNumber": "0x2cec277",
          "blockTimestamp": "0x69bc6fc3",
          "transactionHash": "0x7e16378ba3f834ebbd3d13844dbfd6a25e7ac9d9bf95c12e6ef3a36316186830",
          "transactionIndex": "0x7",
          "logIndex": "0x5",
          "removed": false
        }
      ],
      "logsBloom": "0x00000000000000000000000000000000400000000000000000000000000000000000000020000000000000000000000000000000000010000000000000000000000000000000000000000000000000000000000000000000000000000000000000000000020000000000000000000800000000000000000000000000000000000000000000000000000000000000002000000000000040000000000000000000000000000000000000000000000000000000000000000000000000000000000000000000200000000000000000000000200000000000000000080000000020000000000000000000000000000000000000000000000000000000004000000000",
      "type": "0x2",
      "transactionHash": "0x7e16378ba3f834ebbd3d13844dbfd6a25e7ac9d9bf95c12e6ef3a36316186830",
      "transactionIndex": "0x7",
      "blockHash": "0x53f02f603b78fb043d529d9d31daf815ae259a371046f1b80b67569fc7224104",
      "blockNumber": "0x2cec277",
      "gasUsed": "0x7734",
      "effectiveGasPrice": "0x7a121",
      "blobGasUsed": "0x9c40",
      "from": "0xeeb3e0999d01f0d1ed465513e414725a357f6ae4",
      "to": "0x2047c691db05c6f551d756718aa55d8340661d00",
      "contractAddress": null,
      "daFootprintGasScalar": "0x190",
      "l1BaseFeeScalar": "0x7d0",
      "l1BlobBaseFee": "0x1",
      "l1BlobBaseFeeScalar": "0xdbba0",
      "l1Fee": "0x76",
      "l1GasPrice": "0x9",
      "l1GasUsed": "0x640"
    },
    {
      "status": "0x1",
      "cumulativeGasUsed": "0x25b88f",
      "logs": [
        {
          "address": "0x4ed2e20671666a36709cb53879abea7433bda9f6",
          "topics": [
            "0xe5dd7566e5c9bd793d095ca950687644423696aa5cb7774dd9a311d44f326990",
            "0x0000000000000000000000000000000000000000000000000000000000000000",
            "0x0000000000000000000000007a38361eb7574fc44115365d83a48b0f6e33d640"
          ],
          "data": "0x",
          "blockHash": "0x53f02f603b78fb043d529d9d31daf815ae259a371046f1b80b67569fc7224104",
          "blockNumber": "0x2cec277",
          "blockTimestamp": "0x69bc6fc3",
          "transactionHash": "0xb25af7f2d9c12b8562f323fd2d1d8ef347b2b51fb112409306230b9739a80cb8",
          "transactionIndex": "0x8",
          "logIndex": "0x6",
          "removed": false
        }
      ],
      "logsBloom": "0x00000000000000000000000000000000000000000002000000000000000000000000000020000000000000000000000000000000000010000000000000000000000000000000000000000000000000000000000000000000000000000000000000000000020000000000000000000800000000100000000000000000800000000000000000000000000000000000002000000000000040000000000000000000000000000000000000000000000000000000000000000000000000000000000000000000200000000000000000000000000000000000000000080000000020000000000000000000000000000000000000000000000000000000000000000000",
      "type": "0x2",
      "transactionHash": "0xb25af7f2d9c12b8562f323fd2d1d8ef347b2b51fb112409306230b9739a80cb8",
      "transactionIndex": "0x8",
      "blockHash": "0x53f02f603b78fb043d529d9d31daf815ae259a371046f1b80b67569fc7224104",
      "blockNumber": "0x2cec277",
      "gasUsed": "0xba67",
      "effectiveGasPrice": "0x7a121",
      "blobGasUsed": "0x9c40",
      "from": "0xeeb3e0999d01f0d1ed465513e414725a357f6ae4",
      "to": "0x4ed2e20671666a36709cb53879abea7433bda9f6",
      "contractAddress": null,
      "daFootprintGasScalar": "0x190",
      "l1BaseFeeScalar": "0x7d0",
      "l1BlobBaseFee": "0x1",
      "l1BlobBaseFeeScalar": "0xdbba0",
      "l1Fee": "0x76",
      "l1GasPrice": "0x9",
      "l1GasUsed": "0x640"
    },
    {
      "status": "0x1",
      "cumulativeGasUsed": "0x2672e0",
      "logs": [
        {
          "address": "0xfa022c6374e9bf63498e5db4c3dec2640e653ef3",
          "topics": [
            "0xe5dd7566e5c9bd793d095ca950687644423696aa5cb7774dd9a311d44f326990",
            "0x0000000000000000000000000000000000000000000000000000000000000000",
            "0x0000000000000000000000004ed2e20671666a36709cb53879abea7433bda9f6"
          ],
          "data": "0x",
          "blockHash": "0x53f02f603b78fb043d529d9d31daf815ae259a371046f1b80b67569fc7224104",
          "blockNumber": "0x2cec277",
          "blockTimestamp": "0x69bc6fc3",
          "transactionHash": "0xdd16671650c873f8e695096a3970037871e77f26afe75f2c2a80ed85982f9058",
          "transactionIndex": "0x9",
          "logIndex": "0x7",
          "removed": false
        }
      ],
      "logsBloom": "0x00000000000000000000000000000000000000000000000000000000000000000000000020002000000000000000000000000000000010000000000000000000000000000000000000000000000000000000000000000000000000000000000000000000020000000000000000000800000000000000000000000000000000000000000002000000000000000000000000000000010000000008000000000000000000000000000000000000000000000000000000000000000000010000000000000000200000000000000000000000000000000000000000000000000020000000000020000000000000000000000000000000000000000000000000000000",
      "type": "0x2",
      "transactionHash": "0xdd16671650c873f8e695096a3970037871e77f26afe75f2c2a80ed85982f9058",
      "transactionIndex": "0x9",
      "blockHash": "0x53f02f603b78fb043d529d9d31daf815ae259a371046f1b80b67569fc7224104",
      "blockNumber": "0x2cec277",
      "gasUsed": "0xba51",
      "effectiveGasPrice": "0x7a121",
      "blobGasUsed": "0x9c40",
      "from": "0xeeb3e0999d01f0d1ed465513e414725a357f6ae4",
      "to": "0xfa022c6374e9bf63498e5db4c3dec2640e653ef3",
      "contractAddress": null,
      "daFootprintGasScalar": "0x190",
      "l1BaseFeeScalar": "0x7d0",
      "l1BlobBaseFee": "0x1",
      "l1BlobBaseFeeScalar": "0xdbba0",
      "l1Fee": "0x76",
      "l1GasPrice": "0x9",
      "l1GasUsed": "0x640"
    },
    {
      "status": "0x1",
      "cumulativeGasUsed": "0x273c44",
      "logs": [
        {
          "address": "0xd6cbe82ed1462cf17c6fa31df90318d6e6df67b4",
          "topics": [
            "0x2f8788117e7eff1d82e926ec794901d17c78024a50270940304540a733656f0d",
            "0x9f2df0fed2c77648de5860a4cc508cd0818c85b8b8a1ab4ceeef8d981c8956a6",
            "0x0000000000000000000000007a38361eb7574fc44115365d83a48b0f6e33d640",
            "0x000000000000000000000000eeb3e0999d01f0d1ed465513e414725a357f6ae4"
          ],
          "data": "0x",
          "blockHash": "0x53f02f603b78fb043d529d9d31daf815ae259a371046f1b80b67569fc7224104",
          "blockNumber": "0x2cec277",
          "blockTimestamp": "0x69bc6fc3",
          "transactionHash": "0xd82527f9b1e5a0ec90a5023dd8954dcc0fa41b54e7898d0077b208cb4930a3ef",
          "transactionIndex": "0xa",
          "logIndex": "0x8",
          "removed": false
        }
      ],
      "logsBloom": "0x00000004000000000000000000000000000000000000000000000000000000000000000000000000000000000000004000000000000000000000000008000020000000000000000000000000000000000000000000000000000000000000000000000400000000000000000000000080000000000000000000000000001000000000000000000000000000000000002000000000000040000000000000000000000000000000000100000000000000000000000000000000001000000000000000000100000000000000000000000000001000000000000100080000000000000000000000000000000000000000000000000000000000000000000000000000",
      "type": "0x2",
      "transactionHash": "0xd82527f9b1e5a0ec90a5023dd8954dcc0fa41b54e7898d0077b208cb4930a3ef",
      "transactionIndex": "0xa",
      "blockHash": "0x53f02f603b78fb043d529d9d31daf815ae259a371046f1b80b67569fc7224104",
      "blockNumber": "0x2cec277",
      "gasUsed": "0xc964",
      "effectiveGasPrice": "0x7a121",
      "blobGasUsed": "0x9f60",
      "from": "0xeeb3e0999d01f0d1ed465513e414725a357f6ae4",
      "to": "0xd6cbe82ed1462cf17c6fa31df90318d6e6df67b4",
      "contractAddress": null,
      "daFootprintGasScalar": "0x190",
      "l1BaseFeeScalar": "0x7d0",
      "l1BlobBaseFee": "0x1",
      "l1BlobBaseFeeScalar": "0xdbba0",
      "l1Fee": "0x7a",
      "l1GasPrice": "0x9",
      "l1GasUsed": "0x66f"
    },
    {
      "status": "0x1",
      "cumulativeGasUsed": "0x28059c",
      "logs": [
        {
          "address": "0xd6cbe82ed1462cf17c6fa31df90318d6e6df67b4",
          "topics": [
            "0x2f8788117e7eff1d82e926ec794901d17c78024a50270940304540a733656f0d",
            "0x3c11d16cbaffd01df69ce1c404f6340ee057498f5f00246190ea54220576a848",
            "0x0000000000000000000000007a38361eb7574fc44115365d83a48b0f6e33d640",
            "0x000000000000000000000000eeb3e0999d01f0d1ed465513e414725a357f6ae4"
          ],
          "data": "0x",
          "blockHash": "0x53f02f603b78fb043d529d9d31daf815ae259a371046f1b80b67569fc7224104",
          "blockNumber": "0x2cec277",
          "blockTimestamp": "0x69bc6fc3",
          "transactionHash": "0x25bb429adee4664732d2d226392fe1f98a40c4ea067f05a5a6fc3897c13a1841",
          "transactionIndex": "0xb",
          "logIndex": "0x9",
          "removed": false
        }
      ],
      "logsBloom": "0x00000004000010000000000000000000000000000000000000000000000000000000000000000000000000000000000000000000000000000000000008000020000000000000000000000000000000000000000000000000000000000000000000000400000000000000000000000080000000000000000000000000000000000000000000000000000000000000002000000000000040000000000000000000000000000000000100000000000000000000000000004000001000000000000000040100000000000000000000000000000000000000000100080000000000000000000000000000000000000000000000000000000000000000000000000000",
      "type": "0x2",
      "transactionHash": "0x25bb429adee4664732d2d226392fe1f98a40c4ea067f05a5a6fc3897c13a1841",
      "transactionIndex": "0xb",
      "blockHash": "0x53f02f603b78fb043d529d9d31daf815ae259a371046f1b80b67569fc7224104",
      "blockNumber": "0x2cec277",
      "gasUsed": "0xc958",
      "effectiveGasPrice": "0x7a121",
      "blobGasUsed": "0x9f60",
      "from": "0xeeb3e0999d01f0d1ed465513e414725a357f6ae4",
      "to": "0xd6cbe82ed1462cf17c6fa31df90318d6e6df67b4",
      "contractAddress": null,
      "daFootprintGasScalar": "0x190",
      "l1BaseFeeScalar": "0x7d0",
      "l1BlobBaseFee": "0x1",
      "l1BlobBaseFeeScalar": "0xdbba0",
      "l1Fee": "0x7a",
      "l1GasPrice": "0x9",
      "l1GasUsed": "0x66f"
    },
    {
      "status": "0x1",
      "cumulativeGasUsed": "0x28cef4",
      "logs": [
        {
          "address": "0xd6cbe82ed1462cf17c6fa31df90318d6e6df67b4",
          "topics": [
            "0x2f8788117e7eff1d82e926ec794901d17c78024a50270940304540a733656f0d",
            "0x3c11d16cbaffd01df69ce1c404f6340ee057498f5f00246190ea54220576a848",
            "0x000000000000000000000000fa022c6374e9bf63498e5db4c3dec2640e653ef3",
            "0x000000000000000000000000eeb3e0999d01f0d1ed465513e414725a357f6ae4"
          ],
          "data": "0x",
          "blockHash": "0x53f02f603b78fb043d529d9d31daf815ae259a371046f1b80b67569fc7224104",
          "blockNumber": "0x2cec277",
          "blockTimestamp": "0x69bc6fc3",
          "transactionHash": "0x7e7a7899f947fc9cfe87e731a871db6b3f4681ed37297482f7d2e4629eac5243",
          "transactionIndex": "0xc",
          "logIndex": "0xa",
          "removed": false
        }
      ],
      "logsBloom": "0x00000004000010000000000004000000000000000000000000000000000000000000000000000000000000000000000000000000000000000000000008000020000000000000000000000000000000000000000000000000000000000000000000000400000000000000000000000080010000000000000000000000000000000000000000000000000000000000000000000000000000000000000000000000000000000000000100002000000000000000000000004000001000000000000000040100000000000000000000000000000000000000000100000000000000000000000000000000000000000000000000000000000000000000000000000000",
      "type": "0x2",
      "transactionHash": "0x7e7a7899f947fc9cfe87e731a871db6b3f4681ed37297482f7d2e4629eac5243",
      "transactionIndex": "0xc",
      "blockHash": "0x53f02f603b78fb043d529d9d31daf815ae259a371046f1b80b67569fc7224104",
      "blockNumber": "0x2cec277",
      "gasUsed": "0xc958",
      "effectiveGasPrice": "0x7a121",
      "blobGasUsed": "0x9f60",
      "from": "0xeeb3e0999d01f0d1ed465513e414725a357f6ae4",
      "to": "0xd6cbe82ed1462cf17c6fa31df90318d6e6df67b4",
      "contractAddress": null,
      "daFootprintGasScalar": "0x190",
      "l1BaseFeeScalar": "0x7d0",
      "l1BlobBaseFee": "0x1",
      "l1BlobBaseFeeScalar": "0xdbba0",
      "l1Fee": "0x7a",
      "l1GasPrice": "0x9",
      "l1GasUsed": "0x66f"
    },
    {
      "status": "0x1",
      "cumulativeGasUsed": "0x294260",
      "logs": [
        {
          "address": "0xd6cbe82ed1462cf17c6fa31df90318d6e6df67b4",
          "topics": [
            "0xf6391f5c32d9c69d2a47ea670b442974b53935d1edc7fd64eb21e047a839171b",
            "0x9f2df0fed2c77648de5860a4cc508cd0818c85b8b8a1ab4ceeef8d981c8956a6",
            "0x000000000000000000000000eeb3e0999d01f0d1ed465513e414725a357f6ae4",
            "0x000000000000000000000000eeb3e0999d01f0d1ed465513e414725a357f6ae4"
          ],
          "data": "0x",
          "blockHash": "0x53f02f603b78fb043d529d9d31daf815ae259a371046f1b80b67569fc7224104",
          "blockNumber": "0x2cec277",
          "blockTimestamp": "0x69bc6fc3",
          "transactionHash": "0xa5c16ab25a8a4e1b7a0d1dc08e61412c88d56defb62da7567a9ecff69d5845ba",
          "transactionIndex": "0xd",
          "logIndex": "0xb",
          "removed": false
        }
      ],
      "logsBloom": "0x00000000000000000000000000000000000000000000000000000000000000000000000000000000000000000000004000200000000000000000000008000020000000000000000000000000000000000000000000000000000000000000000040000400000000000000000000000080000000000000000000000000001000000000000040000000000000000000000000000000000000000000000000000000000000000000000100000000000000000000000000000000000000000000000000000100000000000000000000000000001000000000000000000000000000000000000000000000000000000000000000000000000000000000000000000000",
      "type": "0x2",
      "transactionHash": "0xa5c16ab25a8a4e1b7a0d1dc08e61412c88d56defb62da7567a9ecff69d5845ba",
      "transactionIndex": "0xd",
      "blockHash": "0x53f02f603b78fb043d529d9d31daf815ae259a371046f1b80b67569fc7224104",
      "blockNumber": "0x2cec277",
      "gasUsed": "0x736c",
      "effectiveGasPrice": "0x7a121",
      "blobGasUsed": "0x9f60",
      "from": "0xeeb3e0999d01f0d1ed465513e414725a357f6ae4",
      "to": "0xd6cbe82ed1462cf17c6fa31df90318d6e6df67b4",
      "contractAddress": null,
      "daFootprintGasScalar": "0x190",
      "l1BaseFeeScalar": "0x7d0",
      "l1BlobBaseFee": "0x1",
      "l1BlobBaseFeeScalar": "0xdbba0",
      "l1Fee": "0x79",
      "l1GasPrice": "0x9",
      "l1GasUsed": "0x662"
    },
    {
      "status": "0x1",
      "cumulativeGasUsed": "0x2a0bae",
      "logs": [
        {
          "address": "0x8c20e9a6e5e2aa038ed463460e412b669fe712aa",
          "topics": [
            "0x2f8788117e7eff1d82e926ec794901d17c78024a50270940304540a733656f0d",
            "0x9f2df0fed2c77648de5860a4cc508cd0818c85b8b8a1ab4ceeef8d981c8956a6",
            "0x0000000000000000000000007a38361eb7574fc44115365d83a48b0f6e33d640",
            "0x000000000000000000000000eeb3e0999d01f0d1ed465513e414725a357f6ae4"
          ],
          "data": "0x",
          "blockHash": "0x53f02f603b78fb043d529d9d31daf815ae259a371046f1b80b67569fc7224104",
          "blockNumber": "0x2cec277",
          "blockTimestamp": "0x69bc6fc3",
          "transactionHash": "0x09083eb73a01d3dd214e7bf556f70a26595789f743ea56dd1d40bf568f374158",
          "transactionIndex": "0xe",
          "logIndex": "0xc",
          "removed": false
        }
      ],
      "logsBloom": "0x00000004000000000000000000000000000000000000000000000000000000000000000000000000000000000000004000000000000000000000000000000020000000000000000000000000000000000000000000000000000000000000000000000000000000000000000000000080000000000000000000000000001000000000000000000000000000000000002000001000000040000000000000000000000000000000000000000200000000000000000000000000001000000000000000000100000000000000000000000000001000000000000100080000000000000000000000000000000000000000000000000000000000001000000000000000",
      "type": "0x2",
      "transactionHash": "0x09083eb73a01d3dd214e7bf556f70a26595789f743ea56dd1d40bf568f374158",
      "transactionIndex": "0xe",
      "blockHash": "0x53f02f603b78fb043d529d9d31daf815ae259a371046f1b80b67569fc7224104",
      "blockNumber": "0x2cec277",
      "gasUsed": "0xc94e",
      "effectiveGasPrice": "0x7a121",
      "blobGasUsed": "0x9f60",
      "from": "0xeeb3e0999d01f0d1ed465513e414725a357f6ae4",
      "to": "0x8c20e9a6e5e2aa038ed463460e412b669fe712aa",
      "contractAddress": null,
      "daFootprintGasScalar": "0x190",
      "l1BaseFeeScalar": "0x7d0",
      "l1BlobBaseFee": "0x1",
      "l1BlobBaseFeeScalar": "0xdbba0",
      "l1Fee": "0x7a",
      "l1GasPrice": "0x9",
      "l1GasUsed": "0x66f"
    },
    {
      "status": "0x1",
      "cumulativeGasUsed": "0x2ad4f0",
      "logs": [
        {
          "address": "0x8c20e9a6e5e2aa038ed463460e412b669fe712aa",
          "topics": [
            "0x2f8788117e7eff1d82e926ec794901d17c78024a50270940304540a733656f0d",
            "0x3c11d16cbaffd01df69ce1c404f6340ee057498f5f00246190ea54220576a848",
            "0x0000000000000000000000007a38361eb7574fc44115365d83a48b0f6e33d640",
            "0x000000000000000000000000eeb3e0999d01f0d1ed465513e414725a357f6ae4"
          ],
          "data": "0x",
          "blockHash": "0x53f02f603b78fb043d529d9d31daf815ae259a371046f1b80b67569fc7224104",
          "blockNumber": "0x2cec277",
          "blockTimestamp": "0x69bc6fc3",
          "transactionHash": "0xc78cedaf4fc57dcc22f4da9792566fc8a8a9e755e24460e810835d73e425c4b8",
          "transactionIndex": "0xf",
          "logIndex": "0xd",
          "removed": false
        }
      ],
      "logsBloom": "0x00000004000010000000000000000000000000000000000000000000000000000000000000000000000000000000000000000000000000000000000000000020000000000000000000000000000000000000000000000000000000000000000000000000000000000000000000000080000000000000000000000000000000000000000000000000000000000000002000001000000040000000000000000000000000000000000000000200000000000000000000004000001000000000000000040100000000000000000000000000000000000000000100080000000000000000000000000000000000000000000000000000000000001000000000000000",
      "type": "0x2",
      "transactionHash": "0xc78cedaf4fc57dcc22f4da9792566fc8a8a9e755e24460e810835d73e425c4b8",
      "transactionIndex": "0xf",
      "blockHash": "0x53f02f603b78fb043d529d9d31daf815ae259a371046f1b80b67569fc7224104",
      "blockNumber": "0x2cec277",
      "gasUsed": "0xc942",
      "effectiveGasPrice": "0x7a121",
      "blobGasUsed": "0x9f60",
      "from": "0xeeb3e0999d01f0d1ed465513e414725a357f6ae4",
      "to": "0x8c20e9a6e5e2aa038ed463460e412b669fe712aa",
      "contractAddress": null,
      "daFootprintGasScalar": "0x190",
      "l1BaseFeeScalar": "0x7d0",
      "l1BlobBaseFee": "0x1",
      "l1BlobBaseFeeScalar": "0xdbba0",
      "l1Fee": "0x7a",
      "l1GasPrice": "0x9",
      "l1GasUsed": "0x66f"
    },
    {
      "status": "0x1",
      "cumulativeGasUsed": "0x2b9e32",
      "logs": [
        {
          "address": "0x8c20e9a6e5e2aa038ed463460e412b669fe712aa",
          "topics": [
            "0x2f8788117e7eff1d82e926ec794901d17c78024a50270940304540a733656f0d",
            "0x3c11d16cbaffd01df69ce1c404f6340ee057498f5f00246190ea54220576a848",
            "0x000000000000000000000000fa022c6374e9bf63498e5db4c3dec2640e653ef3",
            "0x000000000000000000000000eeb3e0999d01f0d1ed465513e414725a357f6ae4"
          ],
          "data": "0x",
          "blockHash": "0x53f02f603b78fb043d529d9d31daf815ae259a371046f1b80b67569fc7224104",
          "blockNumber": "0x2cec277",
          "blockTimestamp": "0x69bc6fc3",
          "transactionHash": "0xfabc0cf4306c3fcd5382f31b646830f194f34beb1bcd405c5c5b3ee98381c3c4",
          "transactionIndex": "0x10",
          "logIndex": "0xe",
          "removed": false
        }
      ],
      "logsBloom": "0x00000004000010000000000004000000000000000000000000000000000000000000000000000000000000000000000000000000000000000000000000000020000000000000000000000000000000000000000000000000000000000000000000000000000000000000000000000080010000000000000000000000000000000000000000000000000000000000000000001000000000000000000000000000000000000000000000002200000000000000000000004000001000000000000000040100000000000000000000000000000000000000000100000000000000000000000000000000000000000000000000000000000000001000000000000000",
      "type": "0x2",
      "transactionHash": "0xfabc0cf4306c3fcd5382f31b646830f194f34beb1bcd405c5c5b3ee98381c3c4",
      "transactionIndex": "0x10",
      "blockHash": "0x53f02f603b78fb043d529d9d31daf815ae259a371046f1b80b67569fc7224104",
      "blockNumber": "0x2cec277",
      "gasUsed": "0xc942",
      "effectiveGasPrice": "0x7a121",
      "blobGasUsed": "0x9f60",
      "from": "0xeeb3e0999d01f0d1ed465513e414725a357f6ae4",
      "to": "0x8c20e9a6e5e2aa038ed463460e412b669fe712aa",
      "contractAddress": null,
      "daFootprintGasScalar": "0x190",
      "l1BaseFeeScalar": "0x7d0",
      "l1BlobBaseFee": "0x1",
      "l1BlobBaseFeeScalar": "0xdbba0",
      "l1Fee": "0x7a",
      "l1GasPrice": "0x9",
      "l1GasUsed": "0x66f"
    },
    {
      "status": "0x1",
      "cumulativeGasUsed": "0x2c119e",
      "logs": [
        {
          "address": "0x8c20e9a6e5e2aa038ed463460e412b669fe712aa",
          "topics": [
            "0xf6391f5c32d9c69d2a47ea670b442974b53935d1edc7fd64eb21e047a839171b",
            "0x9f2df0fed2c77648de5860a4cc508cd0818c85b8b8a1ab4ceeef8d981c8956a6",
            "0x000000000000000000000000eeb3e0999d01f0d1ed465513e414725a357f6ae4",
            "0x000000000000000000000000eeb3e0999d01f0d1ed465513e414725a357f6ae4"
          ],
          "data": "0x",
          "blockHash": "0x53f02f603b78fb043d529d9d31daf815ae259a371046f1b80b67569fc7224104",
          "blockNumber": "0x2cec277",
          "blockTimestamp": "0x69bc6fc3",
          "transactionHash": "0xe855b4db09137ad8526c79c0efad7b5b5a84a38ca2b4967d17e0911e5f63758e",
          "transactionIndex": "0x11",
          "logIndex": "0xf",
          "removed": false
        }
      ],
      "logsBloom": "0x00000000000000000000000000000000000000000000000000000000000000000000000000000000000000000000004000200000000000000000000000000020000000000000000000000000000000000000000000000000000000000000000040000000000000000000000000000080000000000000000000000000001000000000000040000000000000000000000000001000000000000000000000000000000000000000000000000200000000000000000000000000000000000000000000000100000000000000000000000000001000000000000000000000000000000000000000000000000000000000000000000000000000001000000000000000",
      "type": "0x2",
      "transactionHash": "0xe855b4db09137ad8526c79c0efad7b5b5a84a38ca2b4967d17e0911e5f63758e",
      "transactionIndex": "0x11",
      "blockHash": "0x53f02f603b78fb043d529d9d31daf815ae259a371046f1b80b67569fc7224104",
      "blockNumber": "0x2cec277",
      "gasUsed": "0x736c",
      "effectiveGasPrice": "0x7a121",
      "blobGasUsed": "0x9f60",
      "from": "0xeeb3e0999d01f0d1ed465513e414725a357f6ae4",
      "to": "0x8c20e9a6e5e2aa038ed463460e412b669fe712aa",
      "contractAddress": null,
      "daFootprintGasScalar": "0x190",
      "l1BaseFeeScalar": "0x7d0",
      "l1BlobBaseFee": "0x1",
      "l1BlobBaseFeeScalar": "0xdbba0",
      "l1Fee": "0x79",
      "l1GasPrice": "0x9",
      "l1GasUsed": "0x662"
    },
    {
      "status": "0x1",
      "cumulativeGasUsed": "0x2ccb88",
      "logs": [
        {
          "address": "0x4ed2e20671666a36709cb53879abea7433bda9f6",
          "topics": [
            "0x388ed3dfe90da32959562ebd4c927e84c145d349ade623681069066761a7a220"
          ],
          "data": "0x0000000000000000000000000000000000000000000000000000000000000000000000000000000000000000fa022c6374e9bf63498e5db4c3dec2640e653ef3",
          "blockHash": "0x53f02f603b78fb043d529d9d31daf815ae259a371046f1b80b67569fc7224104",
          "blockNumber": "0x2cec277",
          "blockTimestamp": "0x69bc6fc3",
          "transactionHash": "0xc61bf1177ab5dc6d095760dd99973ac1dca732334aea056c73e4b10e716d3db1",
          "transactionIndex": "0x12",
          "logIndex": "0x10",
          "removed": false
        }
      ],
      "logsBloom": "0x00000000000000000000001000000000000000000002000000000000000000000000000000000000000000000000000000000000000000000000000000000000000000000000000000000000000000000000000000000000000000000000000000000000000000000000000000000000000000100000000000000000800020000000000000000000000000000000000000000000000000000000000000000000000000000000000000000000000000000000000000000000000000000000000000000000000000000000000000000004000000000000000000000000000000000000000000000000000000000000000000000000000000000000000000000000",
      "type": "0x2",
      "transactionHash": "0xc61bf1177ab5dc6d095760dd99973ac1dca732334aea056c73e4b10e716d3db1",
      "transactionIndex": "0x12",
      "blockHash": "0x53f02f603b78fb043d529d9d31daf815ae259a371046f1b80b67569fc7224104",
      "blockNumber": "0x2cec277",
      "gasUsed": "0xb9ea",
      "effectiveGasPrice": "0x7a121",
      "blobGasUsed": "0x9c40",
      "from": "0xeeb3e0999d01f0d1ed465513e414725a357f6ae4",
      "to": "0x4ed2e20671666a36709cb53879abea7433bda9f6",
      "contractAddress": null,
      "daFootprintGasScalar": "0x190",
      "l1BaseFeeScalar": "0x7d0",
      "l1BlobBaseFee": "0x1",
      "l1BlobBaseFeeScalar": "0xdbba0",
      "l1Fee": "0x76",
      "l1GasPrice": "0x9",
      "l1GasUsed": "0x640"
    }
  ],
  "libraries": [],
  "pending": [],
  "returns": {},
  "timestamp": 1773957080815,
  "chain": 1301,
  "commit": "8ec9785"
}