{
  "transactions": [
    {
      "hash": "0xc96087ca053038a74035f197b1228f7b59db59230e09f9bbf042ae4ae126555b",
      "transactionType": "CREATE2",
      "contractName": "ParadoxHook",
      "contractAddress": "0xe5295e92c18de8a07e631e1c6154cb4eec315640",
      "function": null,
      "arguments": [
        "0x00B036B58a818B1BC34d502D3fE730Db729e62AC",
        "0xd9a1053f3A81E38f4d91622A88936a8417736D00",
        "0xBBD6aB4183a765705d6C00f4c91255acFd8FB61f",
        "0x2D6def49AA9dEBFc19FA9691CC5755d4bA0d1F6A",
        "0xD429959619A21A1A9425ce8a9D1404Bf315C022B",
        "0x99C6eBa2318918c7C8Fa12505B3BE7D153659A57",
        "0xeeb3e0999D01f0d1Ed465513E414725a357F6ae4"
      ],
      "transaction": {
        "from": "0xeeb3e0999d01f0d1ed465513e414725a357f6ae4",
        "to": "0x4e59b44847b379578588920ca78fbf26c0b4956c",
        "gas": "0x2f69b6",
        "value": "0x0",
        "input": "0x00000000000000000000000000000000000000000000000000000000000020c5610140604052348015610010575f5ffd5b5060405161296f38038061296f83398101604081905261002f916102f7565b6001600160a01b0387166080528661004630610088565b506001600160a01b0395861660a05293851660c05291841660e052831661010052821661012052600280546001600160a01b031916919092161790555061038e565b61017b81610176604080516101c0810182525f80825260208201819052918101829052606081018290526080810182905260a0810182905260c0810182905260e08101829052610100810182905261012081018290526101408101829052610160810182905261018081018290526101a081019190915250604080516101c0810182525f808252600160208301819052928201819052606082018390526080820183905260a0820181905260c0820181905260e0820192909252610100810182905261012081018290526101408101829052610160810182905261018081018290526101a081019190915290565b61017e565b50565b80511515612000831615151415806101a25750602081015115156110008316151514155b806101b95750604081015115156108008316151514155b806101d05750606081015115156104008316151514155b806101e75750608081015115156102008316151514155b806101fe575060a081015115156101008316151514155b80610214575060c0810151151560808316151514155b8061022a575060e0810151151560408316151514155b806102415750610100810151151560208316151514155b806102585750610120810151151560108316151514155b8061026f5750610140810151151560088316151514155b806102865750610160810151151560048316151514155b8061029d5750610180810151151560028316151514155b806102b457506101a0810151151560018316151514155b156102ca576102ca630732d7b560e51b836102ce565b5050565b815f526001600160a01b03811660045260245ffd5b6001600160a01b038116811461017b575f5ffd5b5f5f5f5f5f5f5f60e0888a03121561030d575f5ffd5b8751610318816102e3565b6020890151909750610329816102e3565b604089015190965061033a816102e3565b606089015190955061034b816102e3565b608089015190945061035c816102e3565b60a089015190935061036d816102e3565b60c089015190925061037e816102e3565b8091505092959891949750929550565b60805160a05160c05160e05161010051610120516124c16104ae5f395f81816104b1015261175f01525f8181610409015261167501525f8181610255015281816108ba0152818161094e01528181610aec01526112bc01525f818161013b015261140b01525f8181610430015281816109e401528181610b5301528181610c1d01528181610d8001528181610e110152818161115001528181611332015281816114da015261180f01525f81816103cf015281816104df0152818161054001528181610599015281816106020152818161066b015281816106cb015281816107250152818161078d015281816107f001528181610ce301528181610f2701528181610f83015281816110bc01528181611266015261157e01526124c15ff3fe608060405234801561000f575f5ffd5b5060043610610132575f3560e01c8063b6a8b0fa116100b4578063e1b4af6911610079578063e1b4af69146102c0578063e2d2bfe31461042b578063ea509a6414610452578063f1c7ed0514610484578063f6d2cc1a14610499578063fa8e544c146104ac575f5ffd5b8063b6a8b0fa146102c0578063c4e833ce146102d3578063dc4c90d3146103ca578063dc98354e146103f1578063de99c3e814610404575f5ffd5b80636fe7e6eb116100fa5780636fe7e6eb1461022a5780638da5cb5b1461023d57806398f4b1b2146102505780639f063efc14610277578063b47b2fb11461028a575f5ffd5b806308ccadd81461013657806321d0ee701461017a578063259982e5146101a6578063575e24b4146101b95780636c2bbe7e146101f7575b5f5ffd5b61015d7f000000000000000000000000000000000000000000000000000000000000000081565b6040516001600160a01b0390911681526020015b60405180910390f35b61018d610188366004611c7b565b6104d3565b6040516001600160e01b03199091168152602001610171565b61018d6101b4366004611c7b565b610534565b6101cc6101c7366004611d01565b61058b565b604080516001600160e01b03199094168452602084019290925262ffffff1690820152606001610171565b61020a610205366004611d5a565b6105f5565b604080516001600160e01b03199093168352602083019190915201610171565b61018d610238366004611dfa565b61065f565b60025461015d906001600160a01b031681565b61015d7f000000000000000000000000000000000000000000000000000000000000000081565b61020a610285366004611d5a565b6106be565b61029d610298366004611e51565b610718565b604080516001600160e01b03199093168352600f9190910b602083015201610171565b61018d6102ce366004611ed1565b610781565b6103bd604080516101c0810182525f80825260208201819052918101829052606081018290526080810182905260a0810182905260c0810182905260e08101829052610100810182905261012081018290526101408101829052610160810182905261018081018290526101a081019190915250604080516101c0810182525f808252600160208301819052928201819052606082018390526080820183905260a0820181905260c0820181905260e0820192909252610100810182905261012081018290526101408101829052610160810182905261018081018290526101a081019190915290565b6040516101719190611f2a565b61015d7f000000000000000000000000000000000000000000000000000000000000000081565b61018d6103ff36600461204b565b6107e4565b61015d7f000000000000000000000000000000000000000000000000000000000000000081565b61015d7f000000000000000000000000000000000000000000000000000000000000000081565b610474610460366004612092565b5f6020819052908152604090205460ff1681565b6040519015158152602001610171565b610497610492366004612092565b610841565b005b6104976104a73660046120a9565b610a5c565b61015d7f000000000000000000000000000000000000000000000000000000000000000081565b5f336001600160a01b037f0000000000000000000000000000000000000000000000000000000000000000161461051d5760405163570c108560e11b815260040160405180910390fd5b61052a8686868686610cd7565b9695505050505050565b5f336001600160a01b037f0000000000000000000000000000000000000000000000000000000000000000161461057e5760405163570c108560e11b815260040160405180910390fd5b61052a8686868686610eca565b5f8080336001600160a01b037f000000000000000000000000000000000000000000000000000000000000000016146105d75760405163570c108560e11b815260040160405180910390fd5b6105e48888888888610ee4565b925092509250955095509592505050565b5f80336001600160a01b037f000000000000000000000000000000000000000000000000000000000000000016146106405760405163570c108560e11b815260040160405180910390fd5b61064f89898989898989610f00565b9150915097509795505050505050565b5f336001600160a01b037f000000000000000000000000000000000000000000000000000000000000000016146106a95760405163570c108560e11b815260040160405180910390fd5b6106b585858585610f1b565b95945050505050565b5f80336001600160a01b037f000000000000000000000000000000000000000000000000000000000000000016146107095760405163570c108560e11b815260040160405180910390fd5b61064f89898989898989610f76565b5f80336001600160a01b037f000000000000000000000000000000000000000000000000000000000000000016146107635760405163570c108560e11b815260040160405180910390fd5b6107718888888888886110af565b915091505b965096945050505050565b5f336001600160a01b037f000000000000000000000000000000000000000000000000000000000000000016146107cb5760405163570c108560e11b815260040160405180910390fd5b6107d9878787878787610eca565b979650505050505050565b5f336001600160a01b037f0000000000000000000000000000000000000000000000000000000000000000161461082e5760405163570c108560e11b815260040160405180910390fd5b610839848484610eca565b949350505050565b6002546001600160a01b0316331461086c576040516330cd747160e01b815260040160405180910390fd5b5f8181526020819052604090205460ff166108a257604051631f43f51960e11b8152600481018290526024015b60405180910390fd5b60405163f67bffe160e01b8152600481018290525f907f00000000000000000000000000000000000000000000000000000000000000006001600160a01b03169063f67bffe190602401602060405180830381865afa158015610907573d5f5f3e3d5ffd5b505050506040513d601f19601f8201168201806040525081019061092b91906120fd565b6040516305fd633360e21b8152600481018490529091505f906001600160a01b037f000000000000000000000000000000000000000000000000000000000000000016906317f58ccc90602401602060405180830381865afa158015610993573d5f5f3e3d5ffd5b505050506040513d601f19601f820116820180604052508101906109b791906120fd565b6040516371f91c2b60e01b81526004810185905260248101849052604481018290525f60648201529091507f00000000000000000000000000000000000000000000000000000000000000006001600160a01b0316906371f91c2b906084016020604051808303815f875af1158015610a32573d5f5f3e3d5ffd5b505050506040513d601f19601f82011682018060405250810190610a5691906120fd565b50505050565b6002546001600160a01b03163314610a87576040516330cd747160e01b815260040160405180910390fd5b5f610aa1610a9a3686900386018661215a565b60a0902090565b5f8181526020819052604090205490915060ff1615610ad657604051631303c39560e11b815260048101829052602401610899565b604051632fd9cc4d60e21b8152600481018290527f00000000000000000000000000000000000000000000000000000000000000006001600160a01b03169063bf673134906024015f604051808303815f87803b158015610b35575f5ffd5b505af1158015610b47573d5f5f3e3d5ffd5b50506001600160a01b037f00000000000000000000000000000000000000000000000000000000000000001691506309aee26c905082610b8a60208701876121f9565b610b976020880188612214565b886040013589606001358a608001356040518863ffffffff1660e01b8152600401610bc89796959493929190612256565b5f604051808303815f87803b158015610bdf575f5ffd5b505af1158015610bf1573d5f5f3e3d5ffd5b50506040516371f91c2b60e01b815260048101849052602481018590525f6044820181905260648201527f00000000000000000000000000000000000000000000000000000000000000006001600160a01b031692506371f91c2b91506084016020604051808303815f875af1158015610c6d573d5f5f3e3d5ffd5b505050506040513d601f19601f82011682018060405250810190610c9191906120fd565b505f81815260208190526040808220805460ff191660011790555182917f43641244aeefd8de6827c26f36450aa6165c9fef65ddfa7262da93ba648464d291a250505050565b5f336001600160a01b037f00000000000000000000000000000000000000000000000000000000000000001614610d215760405163570c108560e11b815260040160405180910390fd5b5f610d34610a9a3688900388018861215a565b5f8181526020819052604090205490915060ff16610d6857604051631f43f51960e11b815260048101829052602401610899565b604051639dc4457d60e01b8152600481018290525f907f00000000000000000000000000000000000000000000000000000000000000006001600160a01b031690639dc4457d90602401602060405180830381865afa158015610dcd573d5f5f3e3d5ffd5b505050506040513d601f19601f82011682018060405250810190610df191906120fd565b90508015610eb657604051635e05e35d60e11b8152600481018290525f907f00000000000000000000000000000000000000000000000000000000000000006001600160a01b03169063bc0bc6ba9060240160e060405180830381865afa158015610e5e573d5f5f3e3d5ffd5b505050506040513d601f19601f82011682018060405250810190610e8291906122df565b606081015160405163754a7c9360e01b8152600481018690526001600160401b039091166024820152909150604401610899565b5063021d0ee760e41b979650505050505050565b5f604051630a85dc2960e01b815260040160405180910390fd5b5f5f5f604051630a85dc2960e01b815260040160405180910390fd5b5f5f604051630a85dc2960e01b815260040160405180910390fd5b5f336001600160a01b037f00000000000000000000000000000000000000000000000000000000000000001614610f655760405163570c108560e11b815260040160405180910390fd5b50636fe7e6eb60e01b949350505050565b5f80336001600160a01b037f00000000000000000000000000000000000000000000000000000000000000001614610fc15760405163570c108560e11b815260040160405180910390fd5b5f610fd4610a9a368b90038b018b61215a565b5f8181526020819052604090205490915060ff1661100857604051631f43f51960e11b815260048101829052602401610899565b5f5f89604001351361101a575f611020565b88604001355b9050806001600160801b03165f0361104b57604051630200e8a960e31b815260040160405180910390fd5b5f602086101561105b578b611067565b611067868801886121f9565b9050611095818c8561107c60208f018f612368565b8e602001602081019061108f9190612368565b876114c2565b506327c18fbf60e21b9b5f9b509950505050505050505050565b5f80336001600160a01b037f000000000000000000000000000000000000000000000000000000000000000016146110fa5760405163570c108560e11b815260040160405180910390fd5b5f61110d610a9a368a90038a018a61215a565b5f8181526020819052604090205490915060ff16611138575063b47b2fb160e01b91505f9050610776565b604051639dc4457d60e01b8152600481018290525f907f00000000000000000000000000000000000000000000000000000000000000006001600160a01b031690639dc4457d90602401602060405180830381865afa15801561119d573d5f5f3e3d5ffd5b505050506040513d601f19601f820116820180604052508101906111c191906120fd565b9050805f036111df575063b47b2fb160e01b92505f91506107769050565b5f6111f6886111f160208c018c612388565b6118c9565b90505f620f424061120d60608d0160408e016123a7565b6112259062ffffff166001600160801b0385166123d4565b61122f91906123ff565b9050806001600160801b03165f03611258575063b47b2fb160e01b94505f935061077692505050565b5f61128c6001600160a01b037f0000000000000000000000000000000000000000000000000000000000000000168661193a565b604051633a3a968360e11b8152600481018790526001600160801b038085166024830152821660448201529091507f00000000000000000000000000000000000000000000000000000000000000006001600160a01b0316906374752d06906064015f604051808303815f87803b158015611305575f5ffd5b505af1158015611317573d5f5f3e3d5ffd5b5050604051635e05e35d60e11b8152600481018790525f92507f00000000000000000000000000000000000000000000000000000000000000006001600160a01b0316915063bc0bc6ba9060240160e060405180830381865afa158015611380573d5f5f3e3d5ffd5b505050506040513d601f19601f820116820180604052508101906113a491906122df565b90505f6113b0826119bd565b90505f8e5f0160208101906113c591906121f9565b60405162fdfc6360e11b815260048101899052602481018a90526001600160a01b0380831660448301526001600160801b038089166064840152851660848301529192507f0000000000000000000000000000000000000000000000000000000000000000909116906301fbf8c69060a4015f604051808303815f87803b15801561144e575f5ffd5b505af1158015611460573d5f5f3e3d5ffd5b50506040516001600160801b03881681528992508a91507f056ada55158a8c85f0b6b147de84fcde890df30c9880af86a2a008a983023c4d9060200160405180910390a35063b47b2fb160e01b9f5f9f509d5050505050505050505050505050565b604051639dc4457d60e01b8152600481018590525f907f00000000000000000000000000000000000000000000000000000000000000006001600160a01b031690639dc4457d90602401602060405180830381865afa158015611527573d5f5f3e3d5ffd5b505050506040513d601f19601f8201168201806040525081019061154b91906120fd565b9050805f0361157057604051636ae12f0560e01b815260048101869052602401610899565b5f6115a46001600160a01b037f00000000000000000000000000000000000000000000000000000000000000001687611a4e565b50505090505f6060826001600160a01b0316856001600160801b03166115ca91906123d4565b901c90505f6115da600283612412565b5f8981526001602052604081205491925089916115fc9063ffffffff16611b00565b5f838152600160205260408120805463ffffffff191663ffffffff84161790559091506116298b83611b5d565b90505f6040518060c001604052808581526020018c60020b81526020018b60020b81526020018a6001600160801b03168152602001866001600160801b031681526020018981525090507f00000000000000000000000000000000000000000000000000000000000000006001600160a01b031663fa669bbe8f84846040518463ffffffff1660e01b8152600401611730939291905f6101008201905060018060a01b038516825283602083015282516040830152602083015160020b6060830152604083015160020b60808301526001600160801b0360608401511660a08301526001600160801b0360808401511660c083015260a083015160e0830152949350505050565b5f604051808303815f87803b158015611747575f5ffd5b505af1158015611759573d5f5f3e3d5ffd5b505050507f00000000000000000000000000000000000000000000000000000000000000006001600160a01b03166340c10f198f846040518363ffffffff1660e01b81526004016117bf9291906001600160a01b03929092168252602082015260400190565b5f604051808303815f87803b1580156117d6575f5ffd5b505af11580156117e8573d5f5f3e3d5ffd5b50506040516376d7431b60e01b8152600481018f90526001600160801b03891660248201527f00000000000000000000000000000000000000000000000000000000000000006001600160a01b031692506376d7431b91506044015f604051808303815f87803b15801561185a575f5ffd5b505af115801561186c573d5f5f3e3d5ffd5b5050604080516001600160801b03808e168252891660208201528b93508592508f917f1371ea0be443d9420091d27c7dfd2fe3d60129c68ab43988a36d6d4c22b773d1910160405180910390a45050505050505050505050505050565b5f8115611904575f6118db8460801d90565b90505f81600f0b12156118fa5780600f0b6118f59061243f565b6118fc565b805b915050611934565b5f61190f84600f0b90565b90505f81600f0b121561192e5780600f0b6119299061243f565b611930565b805b9150505b92915050565b5f5f61194583611bbe565b90505f611953600383612459565b604051631e2eaeaf60e01b8152600481018290529091506001600160a01b03861690631e2eaeaf90602401602060405180830381865afa158015611999573d5f5f3e3d5ffd5b505050506040513d601f19601f820116820180604052508101906106b591906120fd565b5f8160a001516001600160801b03165f036119d957505f919050565b5f826040015183606001516119ee919061246c565b90505f670de0b6b3a764000084608001516001600160801b03168560a001516001600160801b0316611a2091906123d4565b611a2a91906123ff565b90506301e13380611a446001600160401b038416836123d4565b61083991906123ff565b5f5f5f5f5f611a5c86611bbe565b604051631e2eaeaf60e01b8152600481018290529091505f906001600160a01b03891690631e2eaeaf90602401602060405180830381865afa158015611aa4573d5f5f3e3d5ffd5b505050506040513d601f19601f82011682018060405250810190611ac891906120fd565b90506001600160a01b03811695508060a01c60020b945062ffffff8160b81c16935062ffffff8160d01c169250505092959194509250565b5f63ffffffff82811610611b565760405162461bcd60e51b815260206004820152601c60248201527f506f736974696f6e49643a20636f756e746572206f766572666c6f77000000006044820152606401610899565b5060010190565b5f8163ffffffff165f03611b8457604051630477bf1d60e11b815260040160405180910390fd5b8163ffffffff166020845f1c6001600160a01b0316901b60a06020611ba99190612459565b6001600160401b034616901b17179392505050565b6040515f90611bdd908390600690602001918252602082015260400190565b604051602081830303815290604052805190602001209050919050565b6001600160a01b0381168114611c0e575f5ffd5b50565b5f60a08284031215611c21575f5ffd5b50919050565b5f60808284031215611c21575f5ffd5b5f5f83601f840112611c47575f5ffd5b5081356001600160401b03811115611c5d575f5ffd5b602083019150836020828501011115611c74575f5ffd5b9250929050565b5f5f5f5f5f6101608688031215611c90575f5ffd5b8535611c9b81611bfa565b9450611caa8760208801611c11565b9350611cb98760c08801611c27565b92506101408601356001600160401b03811115611cd4575f5ffd5b611ce088828901611c37565b969995985093965092949392505050565b5f60608284031215611c21575f5ffd5b5f5f5f5f5f6101408688031215611d16575f5ffd5b8535611d2181611bfa565b9450611d308760208801611c11565b9350611d3f8760c08801611cf1565b92506101208601356001600160401b03811115611cd4575f5ffd5b5f5f5f5f5f5f5f6101a0888a031215611d71575f5ffd5b8735611d7c81611bfa565b9650611d8b8960208a01611c11565b9550611d9a8960c08a01611c27565b9450610140880135935061016088013592506101808801356001600160401b03811115611dc5575f5ffd5b611dd18a828b01611c37565b989b979a50959850939692959293505050565b8035600281900b8114611df5575f5ffd5b919050565b5f5f5f5f6101008587031215611e0e575f5ffd5b8435611e1981611bfa565b9350611e288660208701611c11565b925060c0850135611e3881611bfa565b9150611e4660e08601611de4565b905092959194509250565b5f5f5f5f5f5f6101608789031215611e67575f5ffd5b8635611e7281611bfa565b9550611e818860208901611c11565b9450611e908860c08901611cf1565b935061012087013592506101408701356001600160401b03811115611eb3575f5ffd5b611ebf89828a01611c37565b979a9699509497509295939492505050565b5f5f5f5f5f5f6101208789031215611ee7575f5ffd5b8635611ef281611bfa565b9550611f018860208901611c11565b945060c0870135935060e087013592506101008701356001600160401b03811115611eb3575f5ffd5b8151151581526101c081016020830151611f48602084018215159052565b506040830151611f5c604084018215159052565b506060830151611f70606084018215159052565b506080830151611f84608084018215159052565b5060a0830151611f9860a084018215159052565b5060c0830151611fac60c084018215159052565b5060e0830151611fc060e084018215159052565b50610100830151611fd661010084018215159052565b50610120830151611fec61012084018215159052565b5061014083015161200261014084018215159052565b5061016083015161201861016084018215159052565b5061018083015161202e61018084018215159052565b506101a08301516120446101a084018215159052565b5092915050565b5f5f5f60e0848603121561205d575f5ffd5b833561206881611bfa565b92506120778560208601611c11565b915060c084013561208781611bfa565b809150509250925092565b5f602082840312156120a2575f5ffd5b5035919050565b5f5f5f60e084860312156120bb575f5ffd5b6120c58585611c11565b925060a08401356001600160401b038111156120df575f5ffd5b6120eb86828701611c11565b939693955050505060c0919091013590565b5f6020828403121561210d575f5ffd5b5051919050565b60405160e081016001600160401b038111828210171561214257634e487b7160e01b5f52604160045260245ffd5b60405290565b803562ffffff81168114611df5575f5ffd5b5f60a082840312801561216b575f5ffd5b5060405160a081016001600160401b038111828210171561219a57634e487b7160e01b5f52604160045260245ffd5b60405282356121a881611bfa565b815260208301356121b881611bfa565b60208201526121c960408401612148565b60408201526121da60608401611de4565b606082015260808301356121ed81611bfa565b60808201529392505050565b5f60208284031215612209575f5ffd5b813561192e81611bfa565b5f5f8335601e19843603018112612229575f5ffd5b8301803591506001600160401b03821115612242575f5ffd5b602001915036819003821315611c74575f5ffd5b8781526001600160a01b038716602082015260c0604082018190528101859052848660e08301375f60e086830101525f60e0601f19601f88011683010190508460608301528360808301528260a083015298975050505050505050565b80516001600160401b0381168114611df5575f5ffd5b80516001600160801b0381168114611df5575f5ffd5b5f60e08284031280156122f0575f5ffd5b506122f9612114565b8251815260208084015190820152612313604084016122b3565b6040820152612324606084016122b3565b6060820152612335608084016122c9565b608082015261234660a084016122c9565b60a082015260c08301516002811061235c575f5ffd5b60c08201529392505050565b5f60208284031215612378575f5ffd5b61238182611de4565b9392505050565b5f60208284031215612398575f5ffd5b8135801515811461192e575f5ffd5b5f602082840312156123b7575f5ffd5b61238182612148565b634e487b7160e01b5f52601160045260245ffd5b8082028115828204841417611934576119346123c0565b634e487b7160e01b5f52601260045260245ffd5b5f8261240d5761240d6123eb565b500490565b5f6001600160801b0383168061242a5761242a6123eb565b806001600160801b0384160491505092915050565b5f600160ff1b8201612453576124536123c0565b505f0390565b80820180821115611934576119346123c0565b6001600160401b038281168282160390811115611934576119346123c056fea2646970667358221220dd3c6a0ab1f131acf628bad2d15e73602d25cacb7314afa6eeee33b6be0f00a264736f6c6343000821003300000000000000000000000000b036b58a818b1bc34d502d3fe730db729e62ac000000000000000000000000d9a1053f3a81e38f4d91622a88936a8417736d00000000000000000000000000bbd6ab4183a765705d6c00f4c91255acfd8fb61f0000000000000000000000002d6def49aa9debfc19fa9691cc5755d4ba0d1f6a000000000000000000000000d429959619a21a1a9425ce8a9d1404bf315c022b00000000000000000000000099c6eba2318918c7c8fa12505b3be7d153659a57000000000000000000000000eeb3e0999d01f0d1ed465513e414725a357f6ae4",
        "nonce": "0x92",
        "chainId": "0x515"
      },
      "additionalContracts": [],
      "isFixedGasLimit": false
    },
    {
      "hash": "0x6dc4c33d309332d69d5f3dcbf48c960aedddb5093238c62e8aa82c45b1b1c7da",
      "transactionType": "CALL",
      "contractName": null,
      "contractAddress": "0xd9a1053f3a81e38f4d91622a88936a8417736d00",
      "function": "setAuthorizedCaller(address)",
      "arguments": [
        "0xE5295e92c18De8A07E631e1C6154cb4eEC315640"
      ],
      "transaction": {
        "from": "0xeeb3e0999d01f0d1ed465513e414725a357f6ae4",
        "to": "0xd9a1053f3a81e38f4d91622a88936a8417736d00",
        "gas": "0xa4ec",
        "value": "0x0",
        "input": "0xcf8fbec9000000000000000000000000e5295e92c18de8a07e631e1c6154cb4eec315640",
        "nonce": "0x93",
        "chainId": "0x515"
      },
      "additionalContracts": [],
      "isFixedGasLimit": false
    },
    {
      "hash": "0xa0c7f0081ea3e504fce4dec0bc7189744efeac7c32db83985653a7c631c2e13a",
      "transactionType": "CALL",
      "contractName": null,
      "contractAddress": "0x2d6def49aa9debfc19fa9691cc5755d4ba0d1f6a",
      "function": "setAuthorizedCaller(address)",
      "arguments": [
        "0xE5295e92c18De8A07E631e1C6154cb4eEC315640"
      ],
      "transaction": {
        "from": "0xeeb3e0999d01f0d1ed465513e414725a357f6ae4",
        "to": "0x2d6def49aa9debfc19fa9691cc5755d4ba0d1f6a",
        "gas": "0xa4a5",
        "value": "0x0",
        "input": "0xcf8fbec9000000000000000000000000e5295e92c18de8a07e631e1c6154cb4eec315640",
        "nonce": "0x94",
        "chainId": "0x515"
      },
      "additionalContracts": [],
      "isFixedGasLimit": false
    },
    {
      "hash": "0x23612e2a89a990ea90be0d5f7537cfc25ca2240fd89d3a8d661b1ceeff3090d0",
      "transactionType": "CALL",
      "contractName": null,
      "contractAddress": "0xbbd6ab4183a765705d6c00f4c91255acfd8fb61f",
      "function": "setAuthorizedCaller(address)",
      "arguments": [
        "0xE5295e92c18De8A07E631e1C6154cb4eEC315640"
      ],
      "transaction": {
        "from": "0xeeb3e0999d01f0d1ed465513e414725a357f6ae4",
        "to": "0xbbd6ab4183a765705d6c00f4c91255acfd8fb61f",
        "gas": "0xaeeb",
        "value": "0x0",
        "input": "0xcf8fbec9000000000000000000000000e5295e92c18de8a07e631e1c6154cb4eec315640",
        "nonce": "0x95",
        "chainId": "0x515"
      },
      "additionalContracts": [],
      "isFixedGasLimit": false
    },
    {
      "hash": "0x76deae7787c812c251742f52a0b7e61d53258ff554e8aaef4af94a853dcf3cf5",
      "transactionType": "CALL",
      "contractName": "MaturityVault",
      "contractAddress": "0x586a85671780f7756f4d46231845a28d102b7152",
      "function": "setAuthorizedCaller(address)",
      "arguments": [
        "0xBBD6aB4183a765705d6C00f4c91255acFd8FB61f"
      ],
      "transaction": {
        "from": "0xeeb3e0999d01f0d1ed465513e414725a357f6ae4",
        "to": "0x586a85671780f7756f4d46231845a28d102b7152",
        "gas": "0x9597",
        "value": "0x0",
        "input": "0xcf8fbec9000000000000000000000000bbd6ab4183a765705d6c00f4c91255acfd8fb61f",
        "nonce": "0x96",
        "chainId": "0x515"
      },
      "additionalContracts": [],
      "isFixedGasLimit": false
    },
    {
      "hash": "0x32bc0e233ac55a68a74e3358b490d6ac8e203d7cc01ef1555dcfc020e9656f81",
      "transactionType": "CALL",
      "contractName": null,
      "contractAddress": "0xd429959619a21a1a9425ce8a9d1404bf315c022b",
      "function": "grantRole(bytes32,address)",
      "arguments": [
        "0x9f2df0fed2c77648de5860a4cc508cd0818c85b8b8a1ab4ceeef8d981c8956a6",
        "0xE5295e92c18De8A07E631e1C6154cb4eEC315640"
      ],
      "transaction": {
        "from": "0xeeb3e0999d01f0d1ed465513e414725a357f6ae4",
        "to": "0xd429959619a21a1a9425ce8a9d1404bf315c022b",
        "gas": "0x1160d",
        "value": "0x0",
        "input": "0x2f2ff15d9f2df0fed2c77648de5860a4cc508cd0818c85b8b8a1ab4ceeef8d981c8956a6000000000000000000000000e5295e92c18de8a07e631e1c6154cb4eec315640",
        "nonce": "0x97",
        "chainId": "0x515"
      },
      "additionalContracts": [],
      "isFixedGasLimit": false
    },
    {
      "hash": "0x6b3338f2adc5ae3d97c94d1bd2c19e17c10e484696f7c599a1e7347f9545a28d",
      "transactionType": "CALL",
      "contractName": null,
      "contractAddress": "0xd429959619a21a1a9425ce8a9d1404bf315c022b",
      "function": "grantRole(bytes32,address)",
      "arguments": [
        "0x3c11d16cbaffd01df69ce1c404f6340ee057498f5f00246190ea54220576a848",
        "0xE5295e92c18De8A07E631e1C6154cb4eEC315640"
      ],
      "transaction": {
        "from": "0xeeb3e0999d01f0d1ed465513e414725a357f6ae4",
        "to": "0xd429959619a21a1a9425ce8a9d1404bf315c022b",
        "gas": "0x12657",
        "value": "0x0",
        "input": "0x2f2ff15d3c11d16cbaffd01df69ce1c404f6340ee057498f5f00246190ea54220576a848000000000000000000000000e5295e92c18de8a07e631e1c6154cb4eec315640",
        "nonce": "0x98",
        "chainId": "0x515"
      },
      "additionalContracts": [],
      "isFixedGasLimit": false
    },
    {
      "hash": "0xe1c42af474b81590e55074d0663d2e4218b24140b1964ee575df0ff298c8208e",
      "transactionType": "CALL",
      "contractName": null,
      "contractAddress": "0xd429959619a21a1a9425ce8a9d1404bf315c022b",
      "function": "grantRole(bytes32,address)",
      "arguments": [
        "0x3c11d16cbaffd01df69ce1c404f6340ee057498f5f00246190ea54220576a848",
        "0x586A85671780f7756f4d46231845A28D102B7152"
      ],
      "transaction": {
        "from": "0xeeb3e0999d01f0d1ed465513e414725a357f6ae4",
        "to": "0xd429959619a21a1a9425ce8a9d1404bf315c022b",
        "gas": "0xa749",
        "value": "0x0",
        "input": "0x2f2ff15d3c11d16cbaffd01df69ce1c404f6340ee057498f5f00246190ea54220576a848000000000000000000000000586a85671780f7756f4d46231845a28d102b7152",
        "nonce": "0x99",
        "chainId": "0x515"
      },
      "additionalContracts": [],
      "isFixedGasLimit": false
    },
    {
      "hash": "0x02edbab6e800bd613415bd7dc6c5c64019e42ed34d8bbf5459378e3ea49c9a28",
      "transactionType": "CALL",
      "contractName": null,
      "contractAddress": "0xd429959619a21a1a9425ce8a9d1404bf315c022b",
      "function": "revokeRole(bytes32,address)",
      "arguments": [
        "0x9f2df0fed2c77648de5860a4cc508cd0818c85b8b8a1ab4ceeef8d981c8956a6",
        "0xeeb3e0999D01f0d1Ed465513E414725a357F6ae4"
      ],
      "transaction": {
        "from": "0xeeb3e0999d01f0d1ed465513e414725a357f6ae4",
        "to": "0xd429959619a21a1a9425ce8a9d1404bf315c022b",
        "gas": "0xa73e",
        "value": "0x0",
        "input": "0xd547741f9f2df0fed2c77648de5860a4cc508cd0818c85b8b8a1ab4ceeef8d981c8956a6000000000000000000000000eeb3e0999d01f0d1ed465513e414725a357f6ae4",
        "nonce": "0x9a",
        "chainId": "0x515"
      },
      "additionalContracts": [],
      "isFixedGasLimit": false
    },
    {
      "hash": "0xf939a522fbf9c1e2c3319ef1aab6ce4f50e940194ada22164316bc49a61c44a6",
      "transactionType": "CALL",
      "contractName": null,
      "contractAddress": "0x99c6eba2318918c7c8fa12505b3be7d153659a57",
      "function": "grantRole(bytes32,address)",
      "arguments": [
        "0x9f2df0fed2c77648de5860a4cc508cd0818c85b8b8a1ab4ceeef8d981c8956a6",
        "0xE5295e92c18De8A07E631e1C6154cb4eEC315640"
      ],
      "transaction": {
        "from": "0xeeb3e0999d01f0d1ed465513e414725a357f6ae4",
        "to": "0x99c6eba2318918c7c8fa12505b3be7d153659a57",
        "gas": "0x115ee",
        "value": "0x0",
        "input": "0x2f2ff15d9f2df0fed2c77648de5860a4cc508cd0818c85b8b8a1ab4ceeef8d981c8956a6000000000000000000000000e5295e92c18de8a07e631e1c6154cb4eec315640",
        "nonce": "0x9b",
        "chainId": "0x515"
      },
      "additionalContracts": [],
      "isFixedGasLimit": false
    },
    {
      "hash": "0x586f0978a6fe3f3b168acbb2989952336aaddf118002ee495c30b5f91dc4db4f",
      "transactionType": "CALL",
      "contractName": null,
      "contractAddress": "0x99c6eba2318918c7c8fa12505b3be7d153659a57",
      "function": "grantRole(bytes32,address)",
      "arguments": [
        "0x3c11d16cbaffd01df69ce1c404f6340ee057498f5f00246190ea54220576a848",
        "0xE5295e92c18De8A07E631e1C6154cb4eEC315640"
      ],
      "transaction": {
        "from": "0xeeb3e0999d01f0d1ed465513e414725a357f6ae4",
        "to": "0x99c6eba2318918c7c8fa12505b3be7d153659a57",
        "gas": "0x115dd",
        "value": "0x0",
        "input": "0x2f2ff15d3c11d16cbaffd01df69ce1c404f6340ee057498f5f00246190ea54220576a848000000000000000000000000e5295e92c18de8a07e631e1c6154cb4eec315640",
        "nonce": "0x9c",
        "chainId": "0x515"
      },
      "additionalContracts": [],
      "isFixedGasLimit": false
    },
    {
      "hash": "0x8722c0fe0b54e7e403e9126eb090b060ad7e1f619eda4a692de5d8c24d9f7496",
      "transactionType": "CALL",
      "contractName": null,
      "contractAddress": "0x99c6eba2318918c7c8fa12505b3be7d153659a57",
      "function": "grantRole(bytes32,address)",
      "arguments": [
        "0x3c11d16cbaffd01df69ce1c404f6340ee057498f5f00246190ea54220576a848",
        "0x586A85671780f7756f4d46231845A28D102B7152"
      ],
      "transaction": {
        "from": "0xeeb3e0999d01f0d1ed465513e414725a357f6ae4",
        "to": "0x99c6eba2318918c7c8fa12505b3be7d153659a57",
        "gas": "0x9dde",
        "value": "0x0",
        "input": "0x2f2ff15d3c11d16cbaffd01df69ce1c404f6340ee057498f5f00246190ea54220576a848000000000000000000000000586a85671780f7756f4d46231845a28d102b7152",
        "nonce": "0x9d",
        "chainId": "0x515"
      },
      "additionalContracts": [],
      "isFixedGasLimit": false
    },
    {
      "hash": "0xebd9b5947fbe5c4f07760a67322ca28cf812a97bb8f3c159f26a3240e168c799",
      "transactionType": "CALL",
      "contractName": null,
      "contractAddress": "0x99c6eba2318918c7c8fa12505b3be7d153659a57",
      "function": "revokeRole(bytes32,address)",
      "arguments": [
        "0x9f2df0fed2c77648de5860a4cc508cd0818c85b8b8a1ab4ceeef8d981c8956a6",
        "0xeeb3e0999D01f0d1Ed465513E414725a357F6ae4"
      ],
      "transaction": {
        "from": "0xeeb3e0999d01f0d1ed465513e414725a357f6ae4",
        "to": "0x99c6eba2318918c7c8fa12505b3be7d153659a57",
        "gas": "0xa75e",
        "value": "0x0",
        "input": "0xd547741f9f2df0fed2c77648de5860a4cc508cd0818c85b8b8a1ab4ceeef8d981c8956a6000000000000000000000000eeb3e0999d01f0d1ed465513e414725a357f6ae4",
        "nonce": "0x9e",
        "chainId": "0x515"
      },
      "additionalContracts": [],
      "isFixedGasLimit": false
    },
    {
      "hash": "0x5ec13cfcfbe65b4d506a1269d32033a07953dfdd52243db80a5b7ef9c077766f",
      "transactionType": "CALL",
      "contractName": null,
      "contractAddress": "0xbbd6ab4183a765705d6c00f4c91255acfd8fb61f",
      "function": "setMaturityVault(address)",
      "arguments": [
        "0x586A85671780f7756f4d46231845A28D102B7152"
      ],
      "transaction": {
        "from": "0xeeb3e0999d01f0d1ed465513e414725a357f6ae4",
        "to": "0xbbd6ab4183a765705d6c00f4c91255acfd8fb61f",
        "gas": "0x956b",
        "value": "0x0",
        "input": "0xfda8f558000000000000000000000000586a85671780f7756f4d46231845a28d102b7152",
        "nonce": "0x9f",
        "chainId": "0x515"
      },
      "additionalContracts": [],
      "isFixedGasLimit": false
    }
  ],
  "receipts": [
    {
      "status": "0x1",
      "cumulativeGasUsed": "0x2cb264",
      "logs": [],
      "logsBloom": "0x00000000000000000000000000000000000000000000000000000000000000000000000000000000000000000000000000000000000000000000000000000000000000000000000000000000000000000000000000000000000000000000000000000000000000000000000000000000000000000000000000000000000000000000000000000000000000000000000000000000000000000000000000000000000000000000000000000000000000000000000000000000000000000000000000000000000000000000000000000000000000000000000000000000000000000000000000000000000000000000000000000000000000000000000000000000",
      "type": "0x2",
      "transactionHash": "0x8722c0fe0b54e7e403e9126eb090b060ad7e1f619eda4a692de5d8c24d9f7496",
      "transactionIndex": "0x5",
      "blockHash": "0x4f3f62425b0db3a1fa77c0db252622fb6a401c1700320ae38a3ccce1182a453e",
      "blockNumber": "0x2ceea2d",
      "gasUsed": "0x206b4b",
      "effectiveGasPrice": "0x7a121",
      "blobGasUsed": "0x1e4dd0",
      "from": "0xeeb3e0999d01f0d1ed465513e414725a357f6ae4",
      "to": "0x4e59b44847b379578588920ca78fbf26c0b4956c",
      "contractAddress": "0xe5295e92c18de8a07e631e1c6154cb4eec315640",
      "daFootprintGasScalar": "0x190",
      "l1BaseFeeScalar": "0x7d0",
      "l1BlobBaseFee": "0x1",
      "l1BlobBaseFeeScalar": "0xdbba0",
      "l1Fee": "0x170b",
      "l1GasPrice": "0x9",
      "l1GasUsed": "0x13658"
    },
    {
      "status": "0x1",
      "cumulativeGasUsed": "0x2d29cb",
      "logs": [
        {
          "address": "0xd9a1053f3a81e38f4d91622a88936a8417736d00",
          "topics": [
            "0xe5dd7566e5c9bd793d095ca950687644423696aa5cb7774dd9a311d44f326990",
            "0x00000000000000000000000055baa850763d3355320ae84af17bd249ddcd1640",
            "0x000000000000000000000000e5295e92c18de8a07e631e1c6154cb4eec315640"
          ],
          "data": "0x",
          "blockHash": "0x4f3f62425b0db3a1fa77c0db252622fb6a401c1700320ae38a3ccce1182a453e",
          "blockNumber": "0x2ceea2d",
          "blockTimestamp": "0x69bc9779",
          "transactionHash": "0xe1c42af474b81590e55074d0663d2e4218b24140b1964ee575df0ff298c8208e",
          "transactionIndex": "0x6",
          "logIndex": "0xb",
          "removed": false
        }
      ],
      "logsBloom": "0x00000000000000000000000800000000000000000000000001000000000000000000000420000000000000000000000000000000008010000000000000000000000000000000000000000000000000000000000000000000000000000000000000000000000000000000000000000000400000000010000000000000000000000000000000000000000000000000000000000000000000000000000000000000000000000000000000000000000000000000000000000000002000000000020000000000200000000000000000008000000000000000000000000000000000000000000000000000000000000000000000000000000000000000000000000000",
      "type": "0x2",
      "transactionHash": "0xe1c42af474b81590e55074d0663d2e4218b24140b1964ee575df0ff298c8208e",
      "transactionIndex": "0x6",
      "blockHash": "0x4f3f62425b0db3a1fa77c0db252622fb6a401c1700320ae38a3ccce1182a453e",
      "blockNumber": "0x2ceea2d",
      "gasUsed": "0x7767",
      "effectiveGasPrice": "0x7a121",
      "blobGasUsed": "0x9c40",
      "from": "0xeeb3e0999d01f0d1ed465513e414725a357f6ae4",
      "to": "0xd9a1053f3a81e38f4d91622a88936a8417736d00",
      "contractAddress": null,
      "daFootprintGasScalar": "0x190",
      "l1BaseFeeScalar": "0x7d0",
      "l1BlobBaseFee": "0x1",
      "l1BlobBaseFeeScalar": "0xdbba0",
      "l1Fee": "0x76",
      "l1GasPrice": "0x9",
      "l1GasUsed": "0x640"
    },
    {
      "status": "0x1",
      "cumulativeGasUsed": "0x2da0ff",
      "logs": [
        {
          "address": "0x2d6def49aa9debfc19fa9691cc5755d4ba0d1f6a",
          "topics": [
            "0xe5dd7566e5c9bd793d095ca950687644423696aa5cb7774dd9a311d44f326990",
            "0x00000000000000000000000055baa850763d3355320ae84af17bd249ddcd1640",
            "0x000000000000000000000000e5295e92c18de8a07e631e1c6154cb4eec315640"
          ],
          "data": "0x",
          "blockHash": "0x4f3f62425b0db3a1fa77c0db252622fb6a401c1700320ae38a3ccce1182a453e",
          "blockNumber": "0x2ceea2d",
          "blockTimestamp": "0x69bc9779",
          "transactionHash": "0xc96087ca053038a74035f197b1228f7b59db59230e09f9bbf042ae4ae126555b",
          "transactionIndex": "0x7",
          "logIndex": "0xc",
          "removed": false
        }
      ],
      "logsBloom": "0x00000000000000000000000800000000000000100000000000000000000000010000000420000000000000000000000000000000008010000000000000000000000000000000000000000000000000000000000000000000000000000000000000400000000000000000000000000000400000000000000000000000000000000000000000000000000000000000000000000000000000000000000000000000000000000000000000000000000000000000000000000000002000000000000000000000200000000000000000008000000000000000000000000000000000000000000000000000000000000000000000000000000000000000000000000000",
      "type": "0x2",
      "transactionHash": "0xc96087ca053038a74035f197b1228f7b59db59230e09f9bbf042ae4ae126555b",
      "transactionIndex": "0x7",
      "blockHash": "0x4f3f62425b0db3a1fa77c0db252622fb6a401c1700320ae38a3ccce1182a453e",
      "blockNumber": "0x2ceea2d",
      "gasUsed": "0x7734",
      "effectiveGasPrice": "0x7a121",
      "blobGasUsed": "0x9c40",
      "from": "0xeeb3e0999d01f0d1ed465513e414725a357f6ae4",
      "to": "0x2d6def49aa9debfc19fa9691cc5755d4ba0d1f6a",
      "contractAddress": null,
      "daFootprintGasScalar": "0x190",
      "l1BaseFeeScalar": "0x7d0",
      "l1BlobBaseFee": "0x1",
      "l1BlobBaseFeeScalar": "0xdbba0",
      "l1Fee": "0x76",
      "l1GasPrice": "0x9",
      "l1GasUsed": "0x640"
    },
    {
      "status": "0x1",
      "cumulativeGasUsed": "0x2e189a",
      "logs": [
        {
          "address": "0xbbd6ab4183a765705d6c00f4c91255acfd8fb61f",
          "topics": [
            "0xe5dd7566e5c9bd793d095ca950687644423696aa5cb7774dd9a311d44f326990",
            "0x00000000000000000000000055baa850763d3355320ae84af17bd249ddcd1640",
            "0x000000000000000000000000e5295e92c18de8a07e631e1c6154cb4eec315640"
          ],
          "data": "0x",
          "blockHash": "0x4f3f62425b0db3a1fa77c0db252622fb6a401c1700320ae38a3ccce1182a453e",
          "blockNumber": "0x2ceea2d",
          "blockTimestamp": "0x69bc9779",
          "transactionHash": "0x76deae7787c812c251742f52a0b7e61d53258ff554e8aaef4af94a853dcf3cf5",
          "transactionIndex": "0x8",
          "logIndex": "0xd",
          "removed": false
        }
      ],
      "logsBloom": "0x00000000000000000000000800000000000000000000000000000000000000000000000420000000000000000000000000000000008010000000000000000000000000000000000000000000000000000000000000000000000000000000000000000000000000000000000000000000400000000000000000000000000000000000080000000000000000000000000000000000000000000000000000000000000000000000000000000000000000000000000000000000002000080000000000020000200000000000000000008000000000000000000000000000000000000000000000000000000000000000000000000000000000000000000000000000",
      "type": "0x2",
      "transactionHash": "0x76deae7787c812c251742f52a0b7e61d53258ff554e8aaef4af94a853dcf3cf5",
      "transactionIndex": "0x8",
      "blockHash": "0x4f3f62425b0db3a1fa77c0db252622fb6a401c1700320ae38a3ccce1182a453e",
      "blockNumber": "0x2ceea2d",
      "gasUsed": "0x779b",
      "effectiveGasPrice": "0x7a121",
      "blobGasUsed": "0x9c40",
      "from": "0xeeb3e0999d01f0d1ed465513e414725a357f6ae4",
      "to": "0xbbd6ab4183a765705d6c00f4c91255acfd8fb61f",
      "contractAddress": null,
      "daFootprintGasScalar": "0x190",
      "l1BaseFeeScalar": "0x7d0",
      "l1BlobBaseFee": "0x1",
      "l1BlobBaseFeeScalar": "0xdbba0",
      "l1Fee": "0x76",
      "l1GasPrice": "0x9",
      "l1GasUsed": "0x640"
    },
    {
      "status": "0x1",
      "cumulativeGasUsed": "0x2e84e8",
      "logs": [
        {
          "address": "0x586a85671780f7756f4d46231845a28d102b7152",
          "topics": [
            "0xe5dd7566e5c9bd793d095ca950687644423696aa5cb7774dd9a311d44f326990",
            "0x000000000000000000000000bbd6ab4183a765705d6c00f4c91255acfd8fb61f",
            "0x000000000000000000000000bbd6ab4183a765705d6c00f4c91255acfd8fb61f"
          ],
          "data": "0x",
          "blockHash": "0x4f3f62425b0db3a1fa77c0db252622fb6a401c1700320ae38a3ccce1182a453e",
          "blockNumber": "0x2ceea2d",
          "blockTimestamp": "0x69bc9779",
          "transactionHash": "0x32bc0e233ac55a68a74e3358b490d6ac8e203d7cc01ef1555dcfc020e9656f81",
          "transactionIndex": "0x9",
          "logIndex": "0xe",
          "removed": false
        }
      ],
      "logsBloom": "0x00000000000000000000000000000000000000000000000000000000000000000000000020000000000000000000000000000000000010000000000000000000000000000000000000000000000000000000000000000000000000000000000000000000000000002002000000000000000000000200000000000000000000000000000000000000000000000000080000000000000000000000000000000000000000000000000000000000000000000000000000000000000000000000000000000000200000000000000000000000000000000000000000000000000000000000000000000000000000004000000000000000000004000000000000000000",
      "type": "0x2",
      "transactionHash": "0x32bc0e233ac55a68a74e3358b490d6ac8e203d7cc01ef1555dcfc020e9656f81",
      "transactionIndex": "0x9",
      "blockHash": "0x4f3f62425b0db3a1fa77c0db252622fb6a401c1700320ae38a3ccce1182a453e",
      "blockNumber": "0x2ceea2d",
      "gasUsed": "0x6c4e",
      "effectiveGasPrice": "0x7a121",
      "blobGasUsed": "0x9c40",
      "from": "0xeeb3e0999d01f0d1ed465513e414725a357f6ae4",
      "to": "0x586a85671780f7756f4d46231845a28d102b7152",
      "contractAddress": null,
      "daFootprintGasScalar": "0x190",
      "l1BaseFeeScalar": "0x7d0",
      "l1BlobBaseFee": "0x1",
      "l1BlobBaseFeeScalar": "0xdbba0",
      "l1Fee": "0x76",
      "l1GasPrice": "0x9",
      "l1GasUsed": "0x640"
    },
    {
      "status": "0x1",
      "cumulativeGasUsed": "0x2f4e37",
      "logs": [
        {
          "address": "0xd429959619a21a1a9425ce8a9d1404bf315c022b",
          "topics": [
            "0x2f8788117e7eff1d82e926ec794901d17c78024a50270940304540a733656f0d",
            "0x9f2df0fed2c77648de5860a4cc508cd0818c85b8b8a1ab4ceeef8d981c8956a6",
            "0x000000000000000000000000e5295e92c18de8a07e631e1c6154cb4eec315640",
            "0x000000000000000000000000eeb3e0999d01f0d1ed465513e414725a357f6ae4"
          ],
          "data": "0x",
          "blockHash": "0x4f3f62425b0db3a1fa77c0db252622fb6a401c1700320ae38a3ccce1182a453e",
          "blockNumber": "0x2ceea2d",
          "blockTimestamp": "0x69bc9779",
          "transactionHash": "0x5ec13cfcfbe65b4d506a1269d32033a07953dfdd52243db80a5b7ef9c077766f",
          "transactionIndex": "0xa",
          "logIndex": "0xf",
          "removed": false
        }
      ],
      "logsBloom": "0x00000004004000000000000000000000000000000000000000000000000000000000000000000000000000000000004000000000008000000000000000000820000000000000000000000000000000000000000000000000000000000000000000000000000000000000000000000080400000000000000000000000001000000000000000000000000000000000000000000000000000000000000000000000000000000000000000000000000000000000000000000000001000000000000200000100000000000000000000008000001000000000000100000000000000000000000000000000000000000000000000000000000000000000000000000000",
      "type": "0x2",
      "transactionHash": "0x5ec13cfcfbe65b4d506a1269d32033a07953dfdd52243db80a5b7ef9c077766f",
      "transactionIndex": "0xa",
      "blockHash": "0x4f3f62425b0db3a1fa77c0db252622fb6a401c1700320ae38a3ccce1182a453e",
      "blockNumber": "0x2ceea2d",
      "gasUsed": "0xc94f",
      "effectiveGasPrice": "0x7a121",
      "blobGasUsed": "0xa0f0",
      "from": "0xeeb3e0999d01f0d1ed465513e414725a357f6ae4",
      "to": "0xd429959619a21a1a9425ce8a9d1404bf315c022b",
      "contractAddress": null,
      "daFootprintGasScalar": "0x190",
      "l1BaseFeeScalar": "0x7d0",
      "l1BlobBaseFee": "0x1",
      "l1BlobBaseFeeScalar": "0xdbba0",
      "l1Fee": "0x7b",
      "l1GasPrice": "0x9",
      "l1GasUsed": "0x67c"
    },
    {
      "status": "0x1",
      "cumulativeGasUsed": "0x30177a",
      "logs": [
        {
          "address": "0xd429959619a21a1a9425ce8a9d1404bf315c022b",
          "topics": [
            "0x2f8788117e7eff1d82e926ec794901d17c78024a50270940304540a733656f0d",
            "0x3c11d16cbaffd01df69ce1c404f6340ee057498f5f00246190ea54220576a848",
            "0x000000000000000000000000e5295e92c18de8a07e631e1c6154cb4eec315640",
            "0x000000000000000000000000eeb3e0999d01f0d1ed465513e414725a357f6ae4"
          ],
          "data": "0x",
          "blockHash": "0x4f3f62425b0db3a1fa77c0db252622fb6a401c1700320ae38a3ccce1182a453e",
          "blockNumber": "0x2ceea2d",
          "blockTimestamp": "0x69bc9779",
          "transactionHash": "0x6b3338f2adc5ae3d97c94d1bd2c19e17c10e484696f7c599a1e7347f9545a28d",
          "transactionIndex": "0xb",
          "logIndex": "0x10",
          "removed": false
        }
      ],
      "logsBloom": "0x00000004004010000000000000000000000000000000000000000000000000000000000000000000000000000000000000000000008000000000000000000820000000000000000000000000000000000000000000000000000000000000000000000000000000000000000000000080400000000000000000000000000000000000000000000000000000000000000000000000000000000000000000000000000000000000000000000000000000000000000000004000001000000000000200040100000000000000000000008000000000000000000100000000000000000000000000000000000000000000000000000000000000000000000000000000",
      "type": "0x2",
      "transactionHash": "0x6b3338f2adc5ae3d97c94d1bd2c19e17c10e484696f7c599a1e7347f9545a28d",
      "transactionIndex": "0xb",
      "blockHash": "0x4f3f62425b0db3a1fa77c0db252622fb6a401c1700320ae38a3ccce1182a453e",
      "blockNumber": "0x2ceea2d",
      "gasUsed": "0xc943",
      "effectiveGasPrice": "0x7a121",
      "blobGasUsed": "0x9f60",
      "from": "0xeeb3e0999d01f0d1ed465513e414725a357f6ae4",
      "to": "0xd429959619a21a1a9425ce8a9d1404bf315c022b",
      "contractAddress": null,
      "daFootprintGasScalar": "0x190",
      "l1BaseFeeScalar": "0x7d0",
      "l1BlobBaseFee": "0x1",
      "l1BlobBaseFeeScalar": "0xdbba0",
      "l1Fee": "0x7a",
      "l1GasPrice": "0x9",
      "l1GasUsed": "0x66f"
    },
    {
      "status": "0x1",
      "cumulativeGasUsed": "0x3089dd",
      "logs": [],
      "logsBloom": "0x00000000000000000000000000000000000000000000000000000000000000000000000000000000000000000000000000000000000000000000000000000000000000000000000000000000000000000000000000000000000000000000000000000000000000000000000000000000000000000000000000000000000000000000000000000000000000000000000000000000000000000000000000000000000000000000000000000000000000000000000000000000000000000000000000000000000000000000000000000000000000000000000000000000000000000000000000000000000000000000000000000000000000000000000000000000",
      "type": "0x2",
      "transactionHash": "0x586f0978a6fe3f3b168acbb2989952336aaddf118002ee495c30b5f91dc4db4f",
      "transactionIndex": "0xc",
      "blockHash": "0x4f3f62425b0db3a1fa77c0db252622fb6a401c1700320ae38a3ccce1182a453e",
      "blockNumber": "0x2ceea2d",
      "gasUsed": "0x7263",
      "effectiveGasPrice": "0x7a121",
      "blobGasUsed": "0x9f60",
      "from": "0xeeb3e0999d01f0d1ed465513e414725a357f6ae4",
      "to": "0xd429959619a21a1a9425ce8a9d1404bf315c022b",
      "contractAddress": null,
      "daFootprintGasScalar": "0x190",
      "l1BaseFeeScalar": "0x7d0",
      "l1BlobBaseFee": "0x1",
      "l1BlobBaseFeeScalar": "0xdbba0",
      "l1Fee": "0x7a",
      "l1GasPrice": "0x9",
      "l1GasUsed": "0x66f"
    },
    {
      "status": "0x1",
      "cumulativeGasUsed": "0x30fc38",
      "logs": [],
      "logsBloom": "0x00000000000000000000000000000000000000000000000000000000000000000000000000000000000000000000000000000000000000000000000000000000000000000000000000000000000000000000000000000000000000000000000000000000000000000000000000000000000000000000000000000000000000000000000000000000000000000000000000000000000000000000000000000000000000000000000000000000000000000000000000000000000000000000000000000000000000000000000000000000000000000000000000000000000000000000000000000000000000000000000000000000000000000000000000000000",
      "type": "0x2",
      "transactionHash": "0xf939a522fbf9c1e2c3319ef1aab6ce4f50e940194ada22164316bc49a61c44a6",
      "transactionIndex": "0xd",
      "blockHash": "0x4f3f62425b0db3a1fa77c0db252622fb6a401c1700320ae38a3ccce1182a453e",
      "blockNumber": "0x2ceea2d",
      "gasUsed": "0x725b",
      "effectiveGasPrice": "0x7a121",
      "blobGasUsed": "0x9f60",
      "from": "0xeeb3e0999d01f0d1ed465513e414725a357f6ae4",
      "to": "0xd429959619a21a1a9425ce8a9d1404bf315c022b",
      "contractAddress": null,
      "daFootprintGasScalar": "0x190",
      "l1BaseFeeScalar": "0x7d0",
      "l1BlobBaseFee": "0x1",
      "l1BlobBaseFeeScalar": "0xdbba0",
      "l1Fee": "0x7a",
      "l1GasPrice": "0x9",
      "l1GasUsed": "0x66f"
    },
    {
      "status": "0x1",
      "cumulativeGasUsed": "0x31c570",
      "logs": [
        {
          "address": "0x99c6eba2318918c7c8fa12505b3be7d153659a57",
          "topics": [
            "0x2f8788117e7eff1d82e926ec794901d17c78024a50270940304540a733656f0d",
            "0x9f2df0fed2c77648de5860a4cc508cd0818c85b8b8a1ab4ceeef8d981c8956a6",
            "0x000000000000000000000000e5295e92c18de8a07e631e1c6154cb4eec315640",
            "0x000000000000000000000000eeb3e0999d01f0d1ed465513e414725a357f6ae4"
          ],
          "data": "0x",
          "blockHash": "0x4f3f62425b0db3a1fa77c0db252622fb6a401c1700320ae38a3ccce1182a453e",
          "blockNumber": "0x2ceea2d",
          "blockTimestamp": "0x69bc9779",
          "transactionHash": "0xa0c7f0081ea3e504fce4dec0bc7189744efeac7c32db83985653a7c631c2e13a",
          "transactionIndex": "0xe",
          "logIndex": "0x11",
          "removed": false
        }
      ],
      "logsBloom": "0x00000004000000000000000000000000000000000000000000000000000000000000000000000800000000000000004000000000008000000000000000000020000000000000000000000000000000000000000000000000000000000000000000000000000000000000000000000080400000000000000000000000001002000000000000000000000000000000000000000000000100000000000000000000000000000000000000000000000000000000000000000000001000000000000000000100000000000000000000008000001000000000000100000000000000000000000000000000000000000000000000000000000000000000000000000000",
      "type": "0x2",
      "transactionHash": "0xa0c7f0081ea3e504fce4dec0bc7189744efeac7c32db83985653a7c631c2e13a",
      "transactionIndex": "0xe",
      "blockHash": "0x4f3f62425b0db3a1fa77c0db252622fb6a401c1700320ae38a3ccce1182a453e",
      "blockNumber": "0x2ceea2d",
      "gasUsed": "0xc938",
      "effectiveGasPrice": "0x7a121",
      "blobGasUsed": "0xa0f0",
      "from": "0xeeb3e0999d01f0d1ed465513e414725a357f6ae4",
      "to": "0x99c6eba2318918c7c8fa12505b3be7d153659a57",
      "contractAddress": null,
      "daFootprintGasScalar": "0x190",
      "l1BaseFeeScalar": "0x7d0",
      "l1BlobBaseFee": "0x1",
      "l1BlobBaseFeeScalar": "0xdbba0",
      "l1Fee": "0x7b",
      "l1GasPrice": "0x9",
      "l1GasUsed": "0x67c"
    },
    {
      "status": "0x1",
      "cumulativeGasUsed": "0x328e9c",
      "logs": [
        {
          "address": "0x99c6eba2318918c7c8fa12505b3be7d153659a57",
          "topics": [
            "0x2f8788117e7eff1d82e926ec794901d17c78024a50270940304540a733656f0d",
            "0x3c11d16cbaffd01df69ce1c404f6340ee057498f5f00246190ea54220576a848",
            "0x000000000000000000000000e5295e92c18de8a07e631e1c6154cb4eec315640",
            "0x000000000000000000000000eeb3e0999d01f0d1ed465513e414725a357f6ae4"
          ],
          "data": "0x",
          "blockHash": "0x4f3f62425b0db3a1fa77c0db252622fb6a401c1700320ae38a3ccce1182a453e",
          "blockNumber": "0x2ceea2d",
          "blockTimestamp": "0x69bc9779",
          "transactionHash": "0x02edbab6e800bd613415bd7dc6c5c64019e42ed34d8bbf5459378e3ea49c9a28",
          "transactionIndex": "0xf",
          "logIndex": "0x12",
          "removed": false
        }
      ],
      "logsBloom": "0x00000004000010000000000000000000000000000000000000000000000000000000000000000800000000000000000000000000008000000000000000000020000000000000000000000000000000000000000000000000000000000000000000000000000000000000000000000080400000000000000000000000000002000000000000000000000000000000000000000000000100000000000000000000000000000000000000000000000000000000000000004000001000000000000000040100000000000000000000008000000000000000000100000000000000000000000000000000000000000000000000000000000000000000000000000000",
      "type": "0x2",
      "transactionHash": "0x02edbab6e800bd613415bd7dc6c5c64019e42ed34d8bbf5459378e3ea49c9a28",
      "transactionIndex": "0xf",
      "blockHash": "0x4f3f62425b0db3a1fa77c0db252622fb6a401c1700320ae38a3ccce1182a453e",
      "blockNumber": "0x2ceea2d",
      "gasUsed": "0xc92c",
      "effectiveGasPrice": "0x7a121",
      "blobGasUsed": "0xa0f0",
      "from": "0xeeb3e0999d01f0d1ed465513e414725a357f6ae4",
      "to": "0x99c6eba2318918c7c8fa12505b3be7d153659a57",
      "contractAddress": null,
      "daFootprintGasScalar": "0x190",
      "l1BaseFeeScalar": "0x7d0",
      "l1BlobBaseFee": "0x1",
      "l1BlobBaseFeeScalar": "0xdbba0",
      "l1Fee": "0x7b",
      "l1GasPrice": "0x9",
      "l1GasUsed": "0x67c"
    },
    {
      "status": "0x1",
      "cumulativeGasUsed": "0x3300e8",
      "logs": [],
      "logsBloom": "0x00000000000000000000000000000000000000000000000000000000000000000000000000000000000000000000000000000000000000000000000000000000000000000000000000000000000000000000000000000000000000000000000000000000000000000000000000000000000000000000000000000000000000000000000000000000000000000000000000000000000000000000000000000000000000000000000000000000000000000000000000000000000000000000000000000000000000000000000000000000000000000000000000000000000000000000000000000000000000000000000000000000000000000000000000000000",
      "type": "0x2",
      "transactionHash": "0x6dc4c33d309332d69d5f3dcbf48c960aedddb5093238c62e8aa82c45b1b1c7da",
      "transactionIndex": "0x10",
      "blockHash": "0x4f3f62425b0db3a1fa77c0db252622fb6a401c1700320ae38a3ccce1182a453e",
      "blockNumber": "0x2ceea2d",
      "gasUsed": "0x724c",
      "effectiveGasPrice": "0x7a121",
      "blobGasUsed": "0x9f60",
      "from": "0xeeb3e0999d01f0d1ed465513e414725a357f6ae4",
      "to": "0x99c6eba2318918c7c8fa12505b3be7d153659a57",
      "contractAddress": null,
      "daFootprintGasScalar": "0x190",
      "l1BaseFeeScalar": "0x7d0",
      "l1BlobBaseFee": "0x1",
      "l1BlobBaseFeeScalar": "0xdbba0",
      "l1Fee": "0x7a",
      "l1GasPrice": "0x9",
      "l1GasUsed": "0x66f"
    },
    {
      "status": "0x1",
      "cumulativeGasUsed": "0x337359",
      "logs": [],
      "logsBloom": "0x00000000000000000000000000000000000000000000000000000000000000000000000000000000000000000000000000000000000000000000000000000000000000000000000000000000000000000000000000000000000000000000000000000000000000000000000000000000000000000000000000000000000000000000000000000000000000000000000000000000000000000000000000000000000000000000000000000000000000000000000000000000000000000000000000000000000000000000000000000000000000000000000000000000000000000000000000000000000000000000000000000000000000000000000000000000",
      "type": "0x2",
      "transactionHash": "0x23612e2a89a990ea90be0d5f7537cfc25ca2240fd89d3a8d661b1ceeff3090d0",
      "transactionIndex": "0x11",
      "blockHash": "0x4f3f62425b0db3a1fa77c0db252622fb6a401c1700320ae38a3ccce1182a453e",
      "blockNumber": "0x2ceea2d",
      "gasUsed": "0x7271",
      "effectiveGasPrice": "0x7a121",
      "blobGasUsed": "0x9f60",
      "from": "0xeeb3e0999d01f0d1ed465513e414725a357f6ae4",
      "to": "0x99c6eba2318918c7c8fa12505b3be7d153659a57",
      "contractAddress": null,
      "daFootprintGasScalar": "0x190",
      "l1BaseFeeScalar": "0x7d0",
      "l1BlobBaseFee": "0x1",
      "l1BlobBaseFeeScalar": "0xdbba0",
      "l1Fee": "0x7a",
      "l1GasPrice": "0x9",
      "l1GasUsed": "0x66f"
    },
    {
      "status": "0x1",
      "cumulativeGasUsed": "0x33df87",
      "logs": [
        {
          "address": "0xbbd6ab4183a765705d6c00f4c91255acfd8fb61f",
          "topics": [
            "0x388ed3dfe90da32959562ebd4c927e84c145d349ade623681069066761a7a220"
          ],
          "data": "0x000000000000000000000000586a85671780f7756f4d46231845a28d102b7152000000000000000000000000586a85671780f7756f4d46231845a28d102b7152",
          "blockHash": "0x4f3f62425b0db3a1fa77c0db252622fb6a401c1700320ae38a3ccce1182a453e",
          "blockNumber": "0x2ceea2d",
          "blockTimestamp": "0x69bc9779",
          "transactionHash": "0xebd9b5947fbe5c4f07760a67322ca28cf812a97bb8f3c159f26a3240e168c799",
          "transactionIndex": "0x12",
          "logIndex": "0x13",
          "removed": false
        }
      ],
      "logsBloom": "0x00000000000000000000001000000000000000000000000000000000000000000000000000000000000000000000000000000000000000000000000000000000000000000000000000000000000000000000000000000000000000000000000000000000000000000000000000000000000000000000000000000000000020000000080000000000000000000000000000000000000000000000000000000000000000000000000000000000000000000000000000000000000000080000000000020000000000000000000000000004000000000000000000000000000000000000000000000000000000000000000000000000000000000000000000000000",
      "type": "0x2",
      "transactionHash": "0xebd9b5947fbe5c4f07760a67322ca28cf812a97bb8f3c159f26a3240e168c799",
      "transactionIndex": "0x12",
      "blockHash": "0x4f3f62425b0db3a1fa77c0db252622fb6a401c1700320ae38a3ccce1182a453e",
      "blockNumber": "0x2ceea2d",
      "gasUsed": "0x6c2e",
      "effectiveGasPrice": "0x7a121",
      "blobGasUsed": "0x9c40",
      "from": "0xeeb3e0999d01f0d1ed465513e414725a357f6ae4",
      "to": "0xbbd6ab4183a765705d6c00f4c91255acfd8fb61f",
      "contractAddress": null,
      "daFootprintGasScalar": "0x190",
      "l1BaseFeeScalar": "0x7d0",
      "l1BlobBaseFee": "0x1",
      "l1BlobBaseFeeScalar": "0xdbba0",
      "l1Fee": "0x76",
      "l1GasPrice": "0x9",
      "l1GasUsed": "0x640"
    }
  ],
  "libraries": [],
  "pending": [],
  "returns": {},
  "timestamp": 1773967246847,
  "chain": 1301,
  "commit": "8ec9785"
}