{
  "transactions": [
    {
      "hash": "0x669a482229834b909190689c8620fba1b5129e681785fff2dbb59c7afa984245",
      "transactionType": "CREATE2",
      "contractName": "ParadoxHook",
      "contractAddress": "0x55baa850763d3355320ae84af17bd249ddcd1640",
      "function": null,
      "arguments": [
        "0x00B036B58a818B1BC34d502D3fE730Db729e62AC",
        "0xd9a1053f3A81E38f4d91622A88936a8417736D00",
        "0xBBD6aB4183a765705d6C00f4c91255acFd8FB61f",
        "0x2D6def49AA9dEBFc19FA9691CC5755d4bA0d1F6A",
        "0xD429959619A21A1A9425ce8a9D1404Bf315C022B",
        "0x99C6eBa2318918c7C8Fa12505B3BE7D153659A57",
        "0xeeb3e0999D01f0d1Ed465513E414725a357F6ae4"
      ],
      "transaction": {
        "from": "0xeeb3e0999d01f0d1ed465513e414725a357f6ae4",
        "to": "0x4e59b44847b379578588920ca78fbf26c0b4956c",
        "gas": "0x2f4367",
        "value": "0x0",
        "input": "0x0000000000000000000000000000000000000000000000000000000000000255610140604052348015610010575f5ffd5b5060405161295038038061295083398101604081905261002f916102f7565b6001600160a01b0387166080528661004630610088565b506001600160a01b0395861660a05293851660c05291841660e052831661010052821661012052600280546001600160a01b031916919092161790555061038e565b61017b81610176604080516101c0810182525f80825260208201819052918101829052606081018290526080810182905260a0810182905260c0810182905260e08101829052610100810182905261012081018290526101408101829052610160810182905261018081018290526101a081019190915250604080516101c0810182525f808252600160208301819052928201819052606082018390526080820183905260a0820181905260c0820181905260e0820192909252610100810182905261012081018290526101408101829052610160810182905261018081018290526101a081019190915290565b61017e565b50565b80511515612000831615151415806101a25750602081015115156110008316151514155b806101b95750604081015115156108008316151514155b806101d05750606081015115156104008316151514155b806101e75750608081015115156102008316151514155b806101fe575060a081015115156101008316151514155b80610214575060c0810151151560808316151514155b8061022a575060e0810151151560408316151514155b806102415750610100810151151560208316151514155b806102585750610120810151151560108316151514155b8061026f5750610140810151151560088316151514155b806102865750610160810151151560048316151514155b8061029d5750610180810151151560028316151514155b806102b457506101a0810151151560018316151514155b156102ca576102ca630732d7b560e51b836102ce565b5050565b815f526001600160a01b03811660045260245ffd5b6001600160a01b038116811461017b575f5ffd5b5f5f5f5f5f5f5f60e0888a03121561030d575f5ffd5b8751610318816102e3565b6020890151909750610329816102e3565b604089015190965061033a816102e3565b606089015190955061034b816102e3565b608089015190945061035c816102e3565b60a089015190935061036d816102e3565b60c089015190925061037e816102e3565b8091505092959891949750929550565b60805160a05160c05160e05161010051610120516124a26104ae5f395f81816104b1015261174001525f8181610409015261165601525f8181610255015281816108ba0152818161094e01528181610aec015261129d01525f818161013b01526113ec01525f8181610430015281816109e401528181610b5301528181610c1d01528181610d8001528181610e110152818161113101528181611313015281816114bb01526117f001525f81816103cf015281816104df0152818161054001528181610599015281816106020152818161066b015281816106cb015281816107250152818161078d015281816107f001528181610ce301528181610f2701528181610f830152818161109d01528181611247015261155f01526124a25ff3fe608060405234801561000f575f5ffd5b5060043610610132575f3560e01c8063b6a8b0fa116100b4578063e1b4af6911610079578063e1b4af69146102c0578063e2d2bfe31461042b578063ea509a6414610452578063f1c7ed0514610484578063f6d2cc1a14610499578063fa8e544c146104ac575f5ffd5b8063b6a8b0fa146102c0578063c4e833ce146102d3578063dc4c90d3146103ca578063dc98354e146103f1578063de99c3e814610404575f5ffd5b80636fe7e6eb116100fa5780636fe7e6eb1461022a5780638da5cb5b1461023d57806398f4b1b2146102505780639f063efc14610277578063b47b2fb11461028a575f5ffd5b806308ccadd81461013657806321d0ee701461017a578063259982e5146101a6578063575e24b4146101b95780636c2bbe7e146101f7575b5f5ffd5b61015d7f000000000000000000000000000000000000000000000000000000000000000081565b6040516001600160a01b0390911681526020015b60405180910390f35b61018d610188366004611c5c565b6104d3565b6040516001600160e01b03199091168152602001610171565b61018d6101b4366004611c5c565b610534565b6101cc6101c7366004611ce2565b61058b565b604080516001600160e01b03199094168452602084019290925262ffffff1690820152606001610171565b61020a610205366004611d3b565b6105f5565b604080516001600160e01b03199093168352602083019190915201610171565b61018d610238366004611ddb565b61065f565b60025461015d906001600160a01b031681565b61015d7f000000000000000000000000000000000000000000000000000000000000000081565b61020a610285366004611d3b565b6106be565b61029d610298366004611e32565b610718565b604080516001600160e01b03199093168352600f9190910b602083015201610171565b61018d6102ce366004611eb2565b610781565b6103bd604080516101c0810182525f80825260208201819052918101829052606081018290526080810182905260a0810182905260c0810182905260e08101829052610100810182905261012081018290526101408101829052610160810182905261018081018290526101a081019190915250604080516101c0810182525f808252600160208301819052928201819052606082018390526080820183905260a0820181905260c0820181905260e0820192909252610100810182905261012081018290526101408101829052610160810182905261018081018290526101a081019190915290565b6040516101719190611f0b565b61015d7f000000000000000000000000000000000000000000000000000000000000000081565b61018d6103ff36600461202c565b6107e4565b61015d7f000000000000000000000000000000000000000000000000000000000000000081565b61015d7f000000000000000000000000000000000000000000000000000000000000000081565b610474610460366004612073565b5f6020819052908152604090205460ff1681565b6040519015158152602001610171565b610497610492366004612073565b610841565b005b6104976104a736600461208a565b610a5c565b61015d7f000000000000000000000000000000000000000000000000000000000000000081565b5f336001600160a01b037f0000000000000000000000000000000000000000000000000000000000000000161461051d5760405163570c108560e11b815260040160405180910390fd5b61052a8686868686610cd7565b9695505050505050565b5f336001600160a01b037f0000000000000000000000000000000000000000000000000000000000000000161461057e5760405163570c108560e11b815260040160405180910390fd5b61052a8686868686610eca565b5f8080336001600160a01b037f000000000000000000000000000000000000000000000000000000000000000016146105d75760405163570c108560e11b815260040160405180910390fd5b6105e48888888888610ee4565b925092509250955095509592505050565b5f80336001600160a01b037f000000000000000000000000000000000000000000000000000000000000000016146106405760405163570c108560e11b815260040160405180910390fd5b61064f89898989898989610f00565b9150915097509795505050505050565b5f336001600160a01b037f000000000000000000000000000000000000000000000000000000000000000016146106a95760405163570c108560e11b815260040160405180910390fd5b6106b585858585610f1b565b95945050505050565b5f80336001600160a01b037f000000000000000000000000000000000000000000000000000000000000000016146107095760405163570c108560e11b815260040160405180910390fd5b61064f89898989898989610f76565b5f80336001600160a01b037f000000000000000000000000000000000000000000000000000000000000000016146107635760405163570c108560e11b815260040160405180910390fd5b610771888888888888611090565b915091505b965096945050505050565b5f336001600160a01b037f000000000000000000000000000000000000000000000000000000000000000016146107cb5760405163570c108560e11b815260040160405180910390fd5b6107d9878787878787610eca565b979650505050505050565b5f336001600160a01b037f0000000000000000000000000000000000000000000000000000000000000000161461082e5760405163570c108560e11b815260040160405180910390fd5b610839848484610eca565b949350505050565b6002546001600160a01b0316331461086c576040516330cd747160e01b815260040160405180910390fd5b5f8181526020819052604090205460ff166108a257604051631f43f51960e11b8152600481018290526024015b60405180910390fd5b60405163f67bffe160e01b8152600481018290525f907f00000000000000000000000000000000000000000000000000000000000000006001600160a01b03169063f67bffe190602401602060405180830381865afa158015610907573d5f5f3e3d5ffd5b505050506040513d601f19601f8201168201806040525081019061092b91906120de565b6040516305fd633360e21b8152600481018490529091505f906001600160a01b037f000000000000000000000000000000000000000000000000000000000000000016906317f58ccc90602401602060405180830381865afa158015610993573d5f5f3e3d5ffd5b505050506040513d601f19601f820116820180604052508101906109b791906120de565b6040516371f91c2b60e01b81526004810185905260248101849052604481018290525f60648201529091507f00000000000000000000000000000000000000000000000000000000000000006001600160a01b0316906371f91c2b906084016020604051808303815f875af1158015610a32573d5f5f3e3d5ffd5b505050506040513d601f19601f82011682018060405250810190610a5691906120de565b50505050565b6002546001600160a01b03163314610a87576040516330cd747160e01b815260040160405180910390fd5b5f610aa1610a9a3686900386018661213b565b60a0902090565b5f8181526020819052604090205490915060ff1615610ad657604051631303c39560e11b815260048101829052602401610899565b604051632fd9cc4d60e21b8152600481018290527f00000000000000000000000000000000000000000000000000000000000000006001600160a01b03169063bf673134906024015f604051808303815f87803b158015610b35575f5ffd5b505af1158015610b47573d5f5f3e3d5ffd5b50506001600160a01b037f00000000000000000000000000000000000000000000000000000000000000001691506309aee26c905082610b8a60208701876121da565b610b9760208801886121f5565b886040013589606001358a608001356040518863ffffffff1660e01b8152600401610bc89796959493929190612237565b5f604051808303815f87803b158015610bdf575f5ffd5b505af1158015610bf1573d5f5f3e3d5ffd5b50506040516371f91c2b60e01b815260048101849052602481018590525f6044820181905260648201527f00000000000000000000000000000000000000000000000000000000000000006001600160a01b031692506371f91c2b91506084016020604051808303815f875af1158015610c6d573d5f5f3e3d5ffd5b505050506040513d601f19601f82011682018060405250810190610c9191906120de565b505f81815260208190526040808220805460ff191660011790555182917f43641244aeefd8de6827c26f36450aa6165c9fef65ddfa7262da93ba648464d291a250505050565b5f336001600160a01b037f00000000000000000000000000000000000000000000000000000000000000001614610d215760405163570c108560e11b815260040160405180910390fd5b5f610d34610a9a3688900388018861213b565b5f8181526020819052604090205490915060ff16610d6857604051631f43f51960e11b815260048101829052602401610899565b604051639dc4457d60e01b8152600481018290525f907f00000000000000000000000000000000000000000000000000000000000000006001600160a01b031690639dc4457d90602401602060405180830381865afa158015610dcd573d5f5f3e3d5ffd5b505050506040513d601f19601f82011682018060405250810190610df191906120de565b90508015610eb657604051635e05e35d60e11b8152600481018290525f907f00000000000000000000000000000000000000000000000000000000000000006001600160a01b03169063bc0bc6ba9060240160e060405180830381865afa158015610e5e573d5f5f3e3d5ffd5b505050506040513d601f19601f82011682018060405250810190610e8291906122c0565b606081015160405163754a7c9360e01b8152600481018690526001600160401b039091166024820152909150604401610899565b5063021d0ee760e41b979650505050505050565b5f604051630a85dc2960e01b815260040160405180910390fd5b5f5f5f604051630a85dc2960e01b815260040160405180910390fd5b5f5f604051630a85dc2960e01b815260040160405180910390fd5b5f336001600160a01b037f00000000000000000000000000000000000000000000000000000000000000001614610f655760405163570c108560e11b815260040160405180910390fd5b50636fe7e6eb60e01b949350505050565b5f80336001600160a01b037f00000000000000000000000000000000000000000000000000000000000000001614610fc15760405163570c108560e11b815260040160405180910390fd5b5f610fd4610a9a368b90038b018b61213b565b5f8181526020819052604090205490915060ff1661100857604051631f43f51960e11b815260048101829052602401610899565b5f5f89604001351361101a575f611020565b88604001355b9050806001600160801b03165f0361104b57604051630200e8a960e31b815260040160405180910390fd5b6110778b8b8461105e60208e018e612349565b8d60200160208101906110719190612349565b866114a3565b506327c18fbf60e21b9a5f9a5098505050505050505050565b5f80336001600160a01b037f000000000000000000000000000000000000000000000000000000000000000016146110db5760405163570c108560e11b815260040160405180910390fd5b5f6110ee610a9a368a90038a018a61213b565b5f8181526020819052604090205490915060ff16611119575063b47b2fb160e01b91505f9050610776565b604051639dc4457d60e01b8152600481018290525f907f00000000000000000000000000000000000000000000000000000000000000006001600160a01b031690639dc4457d90602401602060405180830381865afa15801561117e573d5f5f3e3d5ffd5b505050506040513d601f19601f820116820180604052508101906111a291906120de565b9050805f036111c0575063b47b2fb160e01b92505f91506107769050565b5f6111d7886111d260208c018c612369565b6118aa565b90505f620f42406111ee60608d0160408e01612388565b6112069062ffffff166001600160801b0385166123b5565b61121091906123e0565b9050806001600160801b03165f03611239575063b47b2fb160e01b94505f935061077692505050565b5f61126d6001600160a01b037f0000000000000000000000000000000000000000000000000000000000000000168661191b565b604051633a3a968360e11b8152600481018790526001600160801b038085166024830152821660448201529091507f00000000000000000000000000000000000000000000000000000000000000006001600160a01b0316906374752d06906064015f604051808303815f87803b1580156112e6575f5ffd5b505af11580156112f8573d5f5f3e3d5ffd5b5050604051635e05e35d60e11b8152600481018790525f92507f00000000000000000000000000000000000000000000000000000000000000006001600160a01b0316915063bc0bc6ba9060240160e060405180830381865afa158015611361573d5f5f3e3d5ffd5b505050506040513d601f19601f8201168201806040525081019061138591906122c0565b90505f6113918261199e565b90505f8e5f0160208101906113a691906121da565b60405162fdfc6360e11b815260048101899052602481018a90526001600160a01b0380831660448301526001600160801b038089166064840152851660848301529192507f0000000000000000000000000000000000000000000000000000000000000000909116906301fbf8c69060a4015f604051808303815f87803b15801561142f575f5ffd5b505af1158015611441573d5f5f3e3d5ffd5b50506040516001600160801b03881681528992508a91507f056ada55158a8c85f0b6b147de84fcde890df30c9880af86a2a008a983023c4d9060200160405180910390a35063b47b2fb160e01b9f5f9f509d5050505050505050505050505050565b604051639dc4457d60e01b8152600481018590525f907f00000000000000000000000000000000000000000000000000000000000000006001600160a01b031690639dc4457d90602401602060405180830381865afa158015611508573d5f5f3e3d5ffd5b505050506040513d601f19601f8201168201806040525081019061152c91906120de565b9050805f0361155157604051636ae12f0560e01b815260048101869052602401610899565b5f6115856001600160a01b037f00000000000000000000000000000000000000000000000000000000000000001687611a2f565b50505090505f6060826001600160a01b0316856001600160801b03166115ab91906123b5565b901c90505f6115bb6002836123f3565b5f8981526001602052604081205491925089916115dd9063ffffffff16611ae1565b5f838152600160205260408120805463ffffffff191663ffffffff841617905590915061160a8b83611b3e565b90505f6040518060c001604052808581526020018c60020b81526020018b60020b81526020018a6001600160801b03168152602001866001600160801b031681526020018981525090507f00000000000000000000000000000000000000000000000000000000000000006001600160a01b031663fa669bbe8f84846040518463ffffffff1660e01b8152600401611711939291905f6101008201905060018060a01b038516825283602083015282516040830152602083015160020b6060830152604083015160020b60808301526001600160801b0360608401511660a08301526001600160801b0360808401511660c083015260a083015160e0830152949350505050565b5f604051808303815f87803b158015611728575f5ffd5b505af115801561173a573d5f5f3e3d5ffd5b505050507f00000000000000000000000000000000000000000000000000000000000000006001600160a01b03166340c10f198f846040518363ffffffff1660e01b81526004016117a09291906001600160a01b03929092168252602082015260400190565b5f604051808303815f87803b1580156117b7575f5ffd5b505af11580156117c9573d5f5f3e3d5ffd5b50506040516376d7431b60e01b8152600481018f90526001600160801b03891660248201527f00000000000000000000000000000000000000000000000000000000000000006001600160a01b031692506376d7431b91506044015f604051808303815f87803b15801561183b575f5ffd5b505af115801561184d573d5f5f3e3d5ffd5b5050604080516001600160801b03808e168252891660208201528b93508592508f917f1371ea0be443d9420091d27c7dfd2fe3d60129c68ab43988a36d6d4c22b773d1910160405180910390a45050505050505050505050505050565b5f81156118e5575f6118bc8460801d90565b90505f81600f0b12156118db5780600f0b6118d690612420565b6118dd565b805b915050611915565b5f6118f084600f0b90565b90505f81600f0b121561190f5780600f0b61190a90612420565b611911565b805b9150505b92915050565b5f5f61192683611b9f565b90505f61193460038361243a565b604051631e2eaeaf60e01b8152600481018290529091506001600160a01b03861690631e2eaeaf90602401602060405180830381865afa15801561197a573d5f5f3e3d5ffd5b505050506040513d601f19601f820116820180604052508101906106b591906120de565b5f8160a001516001600160801b03165f036119ba57505f919050565b5f826040015183606001516119cf919061244d565b90505f670de0b6b3a764000084608001516001600160801b03168560a001516001600160801b0316611a0191906123b5565b611a0b91906123e0565b90506301e13380611a256001600160401b038416836123b5565b61083991906123e0565b5f5f5f5f5f611a3d86611b9f565b604051631e2eaeaf60e01b8152600481018290529091505f906001600160a01b03891690631e2eaeaf90602401602060405180830381865afa158015611a85573d5f5f3e3d5ffd5b505050506040513d601f19601f82011682018060405250810190611aa991906120de565b90506001600160a01b03811695508060a01c60020b945062ffffff8160b81c16935062ffffff8160d01c169250505092959194509250565b5f63ffffffff82811610611b375760405162461bcd60e51b815260206004820152601c60248201527f506f736974696f6e49643a20636f756e746572206f766572666c6f77000000006044820152606401610899565b5060010190565b5f8163ffffffff165f03611b6557604051630477bf1d60e11b815260040160405180910390fd5b8163ffffffff166020845f1c6001600160a01b0316901b60a06020611b8a919061243a565b6001600160401b034616901b17179392505050565b6040515f90611bbe908390600690602001918252602082015260400190565b604051602081830303815290604052805190602001209050919050565b6001600160a01b0381168114611bef575f5ffd5b50565b5f60a08284031215611c02575f5ffd5b50919050565b5f60808284031215611c02575f5ffd5b5f5f83601f840112611c28575f5ffd5b5081356001600160401b03811115611c3e575f5ffd5b602083019150836020828501011115611c55575f5ffd5b9250929050565b5f5f5f5f5f6101608688031215611c71575f5ffd5b8535611c7c81611bdb565b9450611c8b8760208801611bf2565b9350611c9a8760c08801611c08565b92506101408601356001600160401b03811115611cb5575f5ffd5b611cc188828901611c18565b969995985093965092949392505050565b5f60608284031215611c02575f5ffd5b5f5f5f5f5f6101408688031215611cf7575f5ffd5b8535611d0281611bdb565b9450611d118760208801611bf2565b9350611d208760c08801611cd2565b92506101208601356001600160401b03811115611cb5575f5ffd5b5f5f5f5f5f5f5f6101a0888a031215611d52575f5ffd5b8735611d5d81611bdb565b9650611d6c8960208a01611bf2565b9550611d7b8960c08a01611c08565b9450610140880135935061016088013592506101808801356001600160401b03811115611da6575f5ffd5b611db28a828b01611c18565b989b979a50959850939692959293505050565b8035600281900b8114611dd6575f5ffd5b919050565b5f5f5f5f6101008587031215611def575f5ffd5b8435611dfa81611bdb565b9350611e098660208701611bf2565b925060c0850135611e1981611bdb565b9150611e2760e08601611dc5565b905092959194509250565b5f5f5f5f5f5f6101608789031215611e48575f5ffd5b8635611e5381611bdb565b9550611e628860208901611bf2565b9450611e718860c08901611cd2565b935061012087013592506101408701356001600160401b03811115611e94575f5ffd5b611ea089828a01611c18565b979a9699509497509295939492505050565b5f5f5f5f5f5f6101208789031215611ec8575f5ffd5b8635611ed381611bdb565b9550611ee28860208901611bf2565b945060c0870135935060e087013592506101008701356001600160401b03811115611e94575f5ffd5b8151151581526101c081016020830151611f29602084018215159052565b506040830151611f3d604084018215159052565b506060830151611f51606084018215159052565b506080830151611f65608084018215159052565b5060a0830151611f7960a084018215159052565b5060c0830151611f8d60c084018215159052565b5060e0830151611fa160e084018215159052565b50610100830151611fb761010084018215159052565b50610120830151611fcd61012084018215159052565b50610140830151611fe361014084018215159052565b50610160830151611ff961016084018215159052565b5061018083015161200f61018084018215159052565b506101a08301516120256101a084018215159052565b5092915050565b5f5f5f60e0848603121561203e575f5ffd5b833561204981611bdb565b92506120588560208601611bf2565b915060c084013561206881611bdb565b809150509250925092565b5f60208284031215612083575f5ffd5b5035919050565b5f5f5f60e0848603121561209c575f5ffd5b6120a68585611bf2565b925060a08401356001600160401b038111156120c0575f5ffd5b6120cc86828701611bf2565b939693955050505060c0919091013590565b5f602082840312156120ee575f5ffd5b5051919050565b60405160e081016001600160401b038111828210171561212357634e487b7160e01b5f52604160045260245ffd5b60405290565b803562ffffff81168114611dd6575f5ffd5b5f60a082840312801561214c575f5ffd5b5060405160a081016001600160401b038111828210171561217b57634e487b7160e01b5f52604160045260245ffd5b604052823561218981611bdb565b8152602083013561219981611bdb565b60208201526121aa60408401612129565b60408201526121bb60608401611dc5565b606082015260808301356121ce81611bdb565b60808201529392505050565b5f602082840312156121ea575f5ffd5b813561190f81611bdb565b5f5f8335601e1984360301811261220a575f5ffd5b8301803591506001600160401b03821115612223575f5ffd5b602001915036819003821315611c55575f5ffd5b8781526001600160a01b038716602082015260c0604082018190528101859052848660e08301375f60e086830101525f60e0601f19601f88011683010190508460608301528360808301528260a083015298975050505050505050565b80516001600160401b0381168114611dd6575f5ffd5b80516001600160801b0381168114611dd6575f5ffd5b5f60e08284031280156122d1575f5ffd5b506122da6120f5565b82518152602080840151908201526122f460408401612294565b604082015261230560608401612294565b6060820152612316608084016122aa565b608082015261232760a084016122aa565b60a082015260c08301516002811061233d575f5ffd5b60c08201529392505050565b5f60208284031215612359575f5ffd5b61236282611dc5565b9392505050565b5f60208284031215612379575f5ffd5b8135801515811461190f575f5ffd5b5f60208284031215612398575f5ffd5b61236282612129565b634e487b7160e01b5f52601160045260245ffd5b8082028115828204841417611915576119156123a1565b634e487b7160e01b5f52601260045260245ffd5b5f826123ee576123ee6123cc565b500490565b5f6001600160801b0383168061240b5761240b6123cc565b806001600160801b0384160491505092915050565b5f600160ff1b8201612434576124346123a1565b505f0390565b80820180821115611915576119156123a1565b6001600160401b038281168282160390811115611915576119156123a156fea2646970667358221220b0dbc780a6bd00926649b9633f20c69ae47eb9ebcb75912ee5342b52a840443064736f6c6343000821003300000000000000000000000000b036b58a818b1bc34d502d3fe730db729e62ac000000000000000000000000d9a1053f3a81e38f4d91622a88936a8417736d00000000000000000000000000bbd6ab4183a765705d6c00f4c91255acfd8fb61f0000000000000000000000002d6def49aa9debfc19fa9691cc5755d4ba0d1f6a000000000000000000000000d429959619a21a1a9425ce8a9d1404bf315c022b00000000000000000000000099c6eba2318918c7c8fa12505b3be7d153659a57000000000000000000000000eeb3e0999d01f0d1ed465513e414725a357f6ae4",
        "nonce": "0x84",
        "chainId": "0x515"
      },
      "additionalContracts": [],
      "isFixedGasLimit": false
    },
    {
      "hash": "0x4ca643455729874cbd2467ed115d1fc49dc9ee7fffb9bf2ea892167a0a06a7bc",
      "transactionType": "CALL",
      "contractName": null,
      "contractAddress": "0xd9a1053f3a81e38f4d91622a88936a8417736d00",
      "function": "setAuthorizedCaller(address)",
      "arguments": [
        "0x55BAA850763d3355320ae84AF17bD249dDCd1640"
      ],
      "transaction": {
        "from": "0xeeb3e0999d01f0d1ed465513e414725a357f6ae4",
        "to": "0xd9a1053f3a81e38f4d91622a88936a8417736d00",
        "gas": "0x11050",
        "value": "0x0",
        "input": "0xcf8fbec900000000000000000000000055baa850763d3355320ae84af17bd249ddcd1640",
        "nonce": "0x85",
        "chainId": "0x515"
      },
      "additionalContracts": [],
      "isFixedGasLimit": false
    },
    {
      "hash": "0x717475b23d1f9f59ded2db42ad98ad66afa5fd0b4c084d61553ddf5fff0cf44d",
      "transactionType": "CALL",
      "contractName": null,
      "contractAddress": "0x2d6def49aa9debfc19fa9691cc5755d4ba0d1f6a",
      "function": "setAuthorizedCaller(address)",
      "arguments": [
        "0x55BAA850763d3355320ae84AF17bD249dDCd1640"
      ],
      "transaction": {
        "from": "0xeeb3e0999d01f0d1ed465513e414725a357f6ae4",
        "to": "0x2d6def49aa9debfc19fa9691cc5755d4ba0d1f6a",
        "gas": "0xa4a5",
        "value": "0x0",
        "input": "0xcf8fbec900000000000000000000000055baa850763d3355320ae84af17bd249ddcd1640",
        "nonce": "0x86",
        "chainId": "0x515"
      },
      "additionalContracts": [],
      "isFixedGasLimit": false
    },
    {
      "hash": "0x7aff62cf01f7f65c4ac7e479f1e5eeb3bc0ed7fa224b527da1ee75d87b7cc5c0",
      "transactionType": "CALL",
      "contractName": null,
      "contractAddress": "0xbbd6ab4183a765705d6c00f4c91255acfd8fb61f",
      "function": "setAuthorizedCaller(address)",
      "arguments": [
        "0x55BAA850763d3355320ae84AF17bD249dDCd1640"
      ],
      "transaction": {
        "from": "0xeeb3e0999d01f0d1ed465513e414725a357f6ae4",
        "to": "0xbbd6ab4183a765705d6c00f4c91255acfd8fb61f",
        "gas": "0x10177",
        "value": "0x0",
        "input": "0xcf8fbec900000000000000000000000055baa850763d3355320ae84af17bd249ddcd1640",
        "nonce": "0x87",
        "chainId": "0x515"
      },
      "additionalContracts": [],
      "isFixedGasLimit": false
    },
    {
      "hash": "0x5c527e6779e2c40f6b23a0dcf38f08d30b9cf113503b242af7de751be020cd53",
      "transactionType": "CALL",
      "contractName": "MaturityVault",
      "contractAddress": "0x586a85671780f7756f4d46231845a28d102b7152",
      "function": "setAuthorizedCaller(address)",
      "arguments": [
        "0xBBD6aB4183a765705d6C00f4c91255acFd8FB61f"
      ],
      "transaction": {
        "from": "0xeeb3e0999d01f0d1ed465513e414725a357f6ae4",
        "to": "0x586a85671780f7756f4d46231845a28d102b7152",
        "gas": "0x11014",
        "value": "0x0",
        "input": "0xcf8fbec9000000000000000000000000bbd6ab4183a765705d6c00f4c91255acfd8fb61f",
        "nonce": "0x88",
        "chainId": "0x515"
      },
      "additionalContracts": [],
      "isFixedGasLimit": false
    },
    {
      "hash": "0xee035d951d93474717db617bdc0acbedadb41798e72d054265f6af9c22d1a03b",
      "transactionType": "CALL",
      "contractName": null,
      "contractAddress": "0xd429959619a21a1a9425ce8a9d1404bf315c022b",
      "function": "grantRole(bytes32,address)",
      "arguments": [
        "0x9f2df0fed2c77648de5860a4cc508cd0818c85b8b8a1ab4ceeef8d981c8956a6",
        "0x55BAA850763d3355320ae84AF17bD249dDCd1640"
      ],
      "transaction": {
        "from": "0xeeb3e0999d01f0d1ed465513e414725a357f6ae4",
        "to": "0xd429959619a21a1a9425ce8a9d1404bf315c022b",
        "gas": "0x1160d",
        "value": "0x0",
        "input": "0x2f2ff15d9f2df0fed2c77648de5860a4cc508cd0818c85b8b8a1ab4ceeef8d981c8956a600000000000000000000000055baa850763d3355320ae84af17bd249ddcd1640",
        "nonce": "0x89",
        "chainId": "0x515"
      },
      "additionalContracts": [],
      "isFixedGasLimit": false
    },
    {
      "hash": "0x17a3d4345f8011cbf3735a5607ce6cb074bb3ab34ccb13aac812dea9ff6910c8",
      "transactionType": "CALL",
      "contractName": null,
      "contractAddress": "0xd429959619a21a1a9425ce8a9d1404bf315c022b",
      "function": "grantRole(bytes32,address)",
      "arguments": [
        "0x3c11d16cbaffd01df69ce1c404f6340ee057498f5f00246190ea54220576a848",
        "0x55BAA850763d3355320ae84AF17bD249dDCd1640"
      ],
      "transaction": {
        "from": "0xeeb3e0999d01f0d1ed465513e414725a357f6ae4",
        "to": "0xd429959619a21a1a9425ce8a9d1404bf315c022b",
        "gas": "0x12657",
        "value": "0x0",
        "input": "0x2f2ff15d3c11d16cbaffd01df69ce1c404f6340ee057498f5f00246190ea54220576a84800000000000000000000000055baa850763d3355320ae84af17bd249ddcd1640",
        "nonce": "0x8a",
        "chainId": "0x515"
      },
      "additionalContracts": [],
      "isFixedGasLimit": false
    },
    {
      "hash": "0x77c9900fdefa2038dd1e34f3a113e7413ded2a15ad774df46e05567a8f2a5ef7",
      "transactionType": "CALL",
      "contractName": null,
      "contractAddress": "0xd429959619a21a1a9425ce8a9d1404bf315c022b",
      "function": "grantRole(bytes32,address)",
      "arguments": [
        "0x3c11d16cbaffd01df69ce1c404f6340ee057498f5f00246190ea54220576a848",
        "0x586A85671780f7756f4d46231845A28D102B7152"
      ],
      "transaction": {
        "from": "0xeeb3e0999d01f0d1ed465513e414725a357f6ae4",
        "to": "0xd429959619a21a1a9425ce8a9d1404bf315c022b",
        "gas": "0x12657",
        "value": "0x0",
        "input": "0x2f2ff15d3c11d16cbaffd01df69ce1c404f6340ee057498f5f00246190ea54220576a848000000000000000000000000586a85671780f7756f4d46231845a28d102b7152",
        "nonce": "0x8b",
        "chainId": "0x515"
      },
      "additionalContracts": [],
      "isFixedGasLimit": false
    },
    {
      "hash": "0x5abdb4a59700b29796c371aac0cb126b9d1c4c4e553ed5d4ffb335aeb5528b16",
      "transactionType": "CALL",
      "contractName": null,
      "contractAddress": "0xd429959619a21a1a9425ce8a9d1404bf315c022b",
      "function": "revokeRole(bytes32,address)",
      "arguments": [
        "0x9f2df0fed2c77648de5860a4cc508cd0818c85b8b8a1ab4ceeef8d981c8956a6",
        "0xeeb3e0999D01f0d1Ed465513E414725a357F6ae4"
      ],
      "transaction": {
        "from": "0xeeb3e0999d01f0d1ed465513e414725a357f6ae4",
        "to": "0xd429959619a21a1a9425ce8a9d1404bf315c022b",
        "gas": "0x9f6d",
        "value": "0x0",
        "input": "0xd547741f9f2df0fed2c77648de5860a4cc508cd0818c85b8b8a1ab4ceeef8d981c8956a6000000000000000000000000eeb3e0999d01f0d1ed465513e414725a357f6ae4",
        "nonce": "0x8c",
        "chainId": "0x515"
      },
      "additionalContracts": [],
      "isFixedGasLimit": false
    },
    {
      "hash": "0xea873b1b857bb90b536036728fe97ef318d3def5e2bdcdd67be014c79237d9e2",
      "transactionType": "CALL",
      "contractName": null,
      "contractAddress": "0x99c6eba2318918c7c8fa12505b3be7d153659a57",
      "function": "grantRole(bytes32,address)",
      "arguments": [
        "0x9f2df0fed2c77648de5860a4cc508cd0818c85b8b8a1ab4ceeef8d981c8956a6",
        "0x55BAA850763d3355320ae84AF17bD249dDCd1640"
      ],
      "transaction": {
        "from": "0xeeb3e0999d01f0d1ed465513e414725a357f6ae4",
        "to": "0x99c6eba2318918c7c8fa12505b3be7d153659a57",
        "gas": "0x115ee",
        "value": "0x0",
        "input": "0x2f2ff15d9f2df0fed2c77648de5860a4cc508cd0818c85b8b8a1ab4ceeef8d981c8956a600000000000000000000000055baa850763d3355320ae84af17bd249ddcd1640",
        "nonce": "0x8d",
        "chainId": "0x515"
      },
      "additionalContracts": [],
      "isFixedGasLimit": false
    },
    {
      "hash": "0xd35fba0a7556414986c4907fd8276801e4f84974a8ee3ba193eaa1d634250f94",
      "transactionType": "CALL",
      "contractName": null,
      "contractAddress": "0x99c6eba2318918c7c8fa12505b3be7d153659a57",
      "function": "grantRole(bytes32,address)",
      "arguments": [
        "0x3c11d16cbaffd01df69ce1c404f6340ee057498f5f00246190ea54220576a848",
        "0x55BAA850763d3355320ae84AF17bD249dDCd1640"
      ],
      "transaction": {
        "from": "0xeeb3e0999d01f0d1ed465513e414725a357f6ae4",
        "to": "0x99c6eba2318918c7c8fa12505b3be7d153659a57",
        "gas": "0x115dd",
        "value": "0x0",
        "input": "0x2f2ff15d3c11d16cbaffd01df69ce1c404f6340ee057498f5f00246190ea54220576a84800000000000000000000000055baa850763d3355320ae84af17bd249ddcd1640",
        "nonce": "0x8e",
        "chainId": "0x515"
      },
      "additionalContracts": [],
      "isFixedGasLimit": false
    },
    {
      "hash": "0xb479b25a6ae97ba1b2636a69a6ec788bddd0ecc4f481fa5d5c71c09605bc555c",
      "transactionType": "CALL",
      "contractName": null,
      "contractAddress": "0x99c6eba2318918c7c8fa12505b3be7d153659a57",
      "function": "grantRole(bytes32,address)",
      "arguments": [
        "0x3c11d16cbaffd01df69ce1c404f6340ee057498f5f00246190ea54220576a848",
        "0x586A85671780f7756f4d46231845A28D102B7152"
      ],
      "transaction": {
        "from": "0xeeb3e0999d01f0d1ed465513e414725a357f6ae4",
        "to": "0x99c6eba2318918c7c8fa12505b3be7d153659a57",
        "gas": "0x115dd",
        "value": "0x0",
        "input": "0x2f2ff15d3c11d16cbaffd01df69ce1c404f6340ee057498f5f00246190ea54220576a848000000000000000000000000586a85671780f7756f4d46231845a28d102b7152",
        "nonce": "0x8f",
        "chainId": "0x515"
      },
      "additionalContracts": [],
      "isFixedGasLimit": false
    },
    {
      "hash": "0xc4e4c2bf0b0affc320ff19ec272ab650ea82a71fe4f8ad8c0a9e331c497d7468",
      "transactionType": "CALL",
      "contractName": null,
      "contractAddress": "0x99c6eba2318918c7c8fa12505b3be7d153659a57",
      "function": "revokeRole(bytes32,address)",
      "arguments": [
        "0x9f2df0fed2c77648de5860a4cc508cd0818c85b8b8a1ab4ceeef8d981c8956a6",
        "0xeeb3e0999D01f0d1Ed465513E414725a357F6ae4"
      ],
      "transaction": {
        "from": "0xeeb3e0999d01f0d1ed465513e414725a357f6ae4",
        "to": "0x99c6eba2318918c7c8fa12505b3be7d153659a57",
        "gas": "0xa8ef",
        "value": "0x0",
        "input": "0xd547741f9f2df0fed2c77648de5860a4cc508cd0818c85b8b8a1ab4ceeef8d981c8956a6000000000000000000000000eeb3e0999d01f0d1ed465513e414725a357f6ae4",
        "nonce": "0x90",
        "chainId": "0x515"
      },
      "additionalContracts": [],
      "isFixedGasLimit": false
    },
    {
      "hash": "0x653f9cab7bfc7c4a76e0357281e97ea153f9eae4cec6917854622e9ee4b41648",
      "transactionType": "CALL",
      "contractName": null,
      "contractAddress": "0xbbd6ab4183a765705d6c00f4c91255acfd8fb61f",
      "function": "setMaturityVault(address)",
      "arguments": [
        "0x586A85671780f7756f4d46231845A28D102B7152"
      ],
      "transaction": {
        "from": "0xeeb3e0999d01f0d1ed465513e414725a357f6ae4",
        "to": "0xbbd6ab4183a765705d6c00f4c91255acfd8fb61f",
        "gas": "0x10fe5",
        "value": "0x0",
        "input": "0xfda8f558000000000000000000000000586a85671780f7756f4d46231845a28d102b7152",
        "nonce": "0x91",
        "chainId": "0x515"
      },
      "additionalContracts": [],
      "isFixedGasLimit": false
    }
  ],
  "receipts": [
    {
      "status": "0x1",
      "cumulativeGasUsed": "0x22cb11",
      "logs": [],
      "logsBloom": "0x00000000000000000000000000000000000000000000000000000000000000000000000000000000000000000000000000000000000000000000000000000000000000000000000000000000000000000000000000000000000000000000000000000000000000000000000000000000000000000000000000000000000000000000000000000000000000000000000000000000000000000000000000000000000000000000000000000000000000000000000000000000000000000000000000000000000000000000000000000000000000000000000000000000000000000000000000000000000000000000000000000000000000000000000000000000",
      "type": "0x2",
      "transactionHash": "0x669a482229834b909190689c8620fba1b5129e681785fff2dbb59c7afa984245",
      "transactionIndex": "0x3",
      "blockHash": "0x78ff87265fc12a0a6f8dc70eeea38f4f33036fb6a749570b38041953b4ab54b1",
      "blockNumber": "0x2cee824",
      "gasUsed": "0x205119",
      "effectiveGasPrice": "0x7a121",
      "blobGasUsed": "0x1e2d00",
      "from": "0xeeb3e0999d01f0d1ed465513e414725a357f6ae4",
      "to": "0x4e59b44847b379578588920ca78fbf26c0b4956c",
      "contractAddress": "0x55baa850763d3355320ae84af17bd249ddcd1640",
      "daFootprintGasScalar": "0x190",
      "l1BaseFeeScalar": "0x7d0",
      "l1BlobBaseFee": "0x1",
      "l1BlobBaseFeeScalar": "0xdbba0",
      "l1Fee": "0x16f2",
      "l1GasPrice": "0x9",
      "l1GasUsed": "0x1350a"
    },
    {
      "status": "0x1",
      "cumulativeGasUsed": "0x238544",
      "logs": [
        {
          "address": "0xd9a1053f3a81e38f4d91622a88936a8417736d00",
          "topics": [
            "0xe5dd7566e5c9bd793d095ca950687644423696aa5cb7774dd9a311d44f326990",
            "0x0000000000000000000000000000000000000000000000000000000000000000",
            "0x00000000000000000000000055baa850763d3355320ae84af17bd249ddcd1640"
          ],
          "data": "0x",
          "blockHash": "0x78ff87265fc12a0a6f8dc70eeea38f4f33036fb6a749570b38041953b4ab54b1",
          "blockNumber": "0x2cee824",
          "blockTimestamp": "0x69bc9570",
          "transactionHash": "0x717475b23d1f9f59ded2db42ad98ad66afa5fd0b4c084d61553ddf5fff0cf44d",
          "transactionIndex": "0x4",
          "logIndex": "0x1",
          "removed": false
        }
      ],
      "logsBloom": "0x00000000000000000000000800000000000000000000000001000000000000000000000420000000000000000000000000000000000010000000000000000000000000000000000000000000000000000000000000000000000000000000000000000000020000000000000000000800000000000010000000000000000000000000000000000000000000000000000000000000000000000000000000000000000000000000000000000000000000000000000000000000002000000000020000000000200000000000000000000000000000000000000000000000000020000000000000000000000000000000000000000000000000000000000000000000",
      "type": "0x2",
      "transactionHash": "0x717475b23d1f9f59ded2db42ad98ad66afa5fd0b4c084d61553ddf5fff0cf44d",
      "transactionIndex": "0x4",
      "blockHash": "0x78ff87265fc12a0a6f8dc70eeea38f4f33036fb6a749570b38041953b4ab54b1",
      "blockNumber": "0x2cee824",
      "gasUsed": "0xba33",
      "effectiveGasPrice": "0x7a121",
      "blobGasUsed": "0x9c40",
      "from": "0xeeb3e0999d01f0d1ed465513e414725a357f6ae4",
      "to": "0xd9a1053f3a81e38f4d91622a88936a8417736d00",
      "contractAddress": null,
      "daFootprintGasScalar": "0x190",
      "l1BaseFeeScalar": "0x7d0",
      "l1BlobBaseFee": "0x1",
      "l1BlobBaseFeeScalar": "0xdbba0",
      "l1Fee": "0x76",
      "l1GasPrice": "0x9",
      "l1GasUsed": "0x640"
    },
    {
      "status": "0x1",
      "cumulativeGasUsed": "0x23fc78",
      "logs": [
        {
          "address": "0x2d6def49aa9debfc19fa9691cc5755d4ba0d1f6a",
          "topics": [
            "0xe5dd7566e5c9bd793d095ca950687644423696aa5cb7774dd9a311d44f326990",
            "0x0000000000000000000000000000000000000000000000000000000000000000",
            "0x00000000000000000000000055baa850763d3355320ae84af17bd249ddcd1640"
          ],
          "data": "0x",
          "blockHash": "0x78ff87265fc12a0a6f8dc70eeea38f4f33036fb6a749570b38041953b4ab54b1",
          "blockNumber": "0x2cee824",
          "blockTimestamp": "0x69bc9570",
          "transactionHash": "0xee035d951d93474717db617bdc0acbedadb41798e72d054265f6af9c22d1a03b",
          "transactionIndex": "0x5",
          "logIndex": "0x2",
          "removed": false
        }
      ],
      "logsBloom": "0x00000000000000000000000800000000000000100000000000000000000000010000000420000000000000000000000000000000000010000000000000000000000000000000000000000000000000000000000000000000000000000000000000400000020000000000000000000800000000000000000000000000000000000000000000000000000000000000000000000000000000000000000000000000000000000000000000000000000000000000000000000000002000000000000000000000200000000000000000000000000000000000000000000000000020000000000000000000000000000000000000000000000000000000000000000000",
      "type": "0x2",
      "transactionHash": "0xee035d951d93474717db617bdc0acbedadb41798e72d054265f6af9c22d1a03b",
      "transactionIndex": "0x5",
      "blockHash": "0x78ff87265fc12a0a6f8dc70eeea38f4f33036fb6a749570b38041953b4ab54b1",
      "blockNumber": "0x2cee824",
      "gasUsed": "0x7734",
      "effectiveGasPrice": "0x7a121",
      "blobGasUsed": "0x9c40",
      "from": "0xeeb3e0999d01f0d1ed465513e414725a357f6ae4",
      "to": "0x2d6def49aa9debfc19fa9691cc5755d4ba0d1f6a",
      "contractAddress": null,
      "daFootprintGasScalar": "0x190",
      "l1BaseFeeScalar": "0x7d0",
      "l1BlobBaseFee": "0x1",
      "l1BlobBaseFeeScalar": "0xdbba0",
      "l1Fee": "0x76",
      "l1GasPrice": "0x9",
      "l1GasUsed": "0x640"
    },
    {
      "status": "0x1",
      "cumulativeGasUsed": "0x2e842c",
      "logs": [
        {
          "address": "0xbbd6ab4183a765705d6c00f4c91255acfd8fb61f",
          "topics": [
            "0xe5dd7566e5c9bd793d095ca950687644423696aa5cb7774dd9a311d44f326990",
            "0x0000000000000000000000000000000000000000000000000000000000000000",
            "0x00000000000000000000000055baa850763d3355320ae84af17bd249ddcd1640"
          ],
          "data": "0x",
          "blockHash": "0x78ff87265fc12a0a6f8dc70eeea38f4f33036fb6a749570b38041953b4ab54b1",
          "blockNumber": "0x2cee824",
          "blockTimestamp": "0x69bc9570",
          "transactionHash": "0xd35fba0a7556414986c4907fd8276801e4f84974a8ee3ba193eaa1d634250f94",
          "transactionIndex": "0x8",
          "logIndex": "0x11",
          "removed": false
        }
      ],
      "logsBloom": "0x00000000000000000000000800000000000000000000000000000000000000000000000420000000000000000000000000000000000010000000000000000000000000000000000000000000000000000000000000000000000000000000000000000000020000000000000000000800000000000000000000000000000000000000080000000000000000000000000000000000000000000000000000000000000000000000000000000000000000000000000000000000002000080000000000020000200000000000000000000000000000000000000000000000000020000000000000000000000000000000000000000000000000000000000000000000",
      "type": "0x2",
      "transactionHash": "0xd35fba0a7556414986c4907fd8276801e4f84974a8ee3ba193eaa1d634250f94",
      "transactionIndex": "0x8",
      "blockHash": "0x78ff87265fc12a0a6f8dc70eeea38f4f33036fb6a749570b38041953b4ab54b1",
      "blockNumber": "0x2cee824",
      "gasUsed": "0xba67",
      "effectiveGasPrice": "0x7a121",
      "blobGasUsed": "0x9c40",
      "from": "0xeeb3e0999d01f0d1ed465513e414725a357f6ae4",
      "to": "0xbbd6ab4183a765705d6c00f4c91255acfd8fb61f",
      "contractAddress": null,
      "daFootprintGasScalar": "0x190",
      "l1BaseFeeScalar": "0x7d0",
      "l1BlobBaseFee": "0x1",
      "l1BlobBaseFeeScalar": "0xdbba0",
      "l1Fee": "0x76",
      "l1GasPrice": "0x9",
      "l1GasUsed": "0x640"
    },
    {
      "status": "0x1",
      "cumulativeGasUsed": "0x2f3e36",
      "logs": [
        {
          "address": "0x586a85671780f7756f4d46231845a28d102b7152",
          "topics": [
            "0xe5dd7566e5c9bd793d095ca950687644423696aa5cb7774dd9a311d44f326990",
            "0x0000000000000000000000000000000000000000000000000000000000000000",
            "0x000000000000000000000000bbd6ab4183a765705d6c00f4c91255acfd8fb61f"
          ],
          "data": "0x",
          "blockHash": "0x78ff87265fc12a0a6f8dc70eeea38f4f33036fb6a749570b38041953b4ab54b1",
          "blockNumber": "0x2cee824",
          "blockTimestamp": "0x69bc9570",
          "transactionHash": "0xb479b25a6ae97ba1b2636a69a6ec788bddd0ecc4f481fa5d5c71c09605bc555c",
          "transactionIndex": "0x9",
          "logIndex": "0x12",
          "removed": false
        }
      ],
      "logsBloom": "0x00000000000000000000000000000000000000000000000000000000000000000000000020000000000000000000000000000000000010000000000000000000000000000000000000000000000000000000000000000000000000000000000000000000020000002002000000000800000000000200000000000000000000000000000000000000000000000000080000000000000000000000000000000000000000000000000000000000000000000000000000000000000000000000000000000000200000000000000000000000000000000000000000000000000020000000000000000000000000004000000000000000000004000000000000000000",
      "type": "0x2",
      "transactionHash": "0xb479b25a6ae97ba1b2636a69a6ec788bddd0ecc4f481fa5d5c71c09605bc555c",
      "transactionIndex": "0x9",
      "blockHash": "0x78ff87265fc12a0a6f8dc70eeea38f4f33036fb6a749570b38041953b4ab54b1",
      "blockNumber": "0x2cee824",
      "gasUsed": "0xba0a",
      "effectiveGasPrice": "0x7a121",
      "blobGasUsed": "0x9c40",
      "from": "0xeeb3e0999d01f0d1ed465513e414725a357f6ae4",
      "to": "0x586a85671780f7756f4d46231845a28d102b7152",
      "contractAddress": null,
      "daFootprintGasScalar": "0x190",
      "l1BaseFeeScalar": "0x7d0",
      "l1BlobBaseFee": "0x1",
      "l1BlobBaseFeeScalar": "0xdbba0",
      "l1Fee": "0x76",
      "l1GasPrice": "0x9",
      "l1GasUsed": "0x640"
    },
    {
      "status": "0x1",
      "cumulativeGasUsed": "0x300785",
      "logs": [
        {
          "address": "0xd429959619a21a1a9425ce8a9d1404bf315c022b",
          "topics": [
            "0x2f8788117e7eff1d82e926ec794901d17c78024a50270940304540a733656f0d",
            "0x9f2df0fed2c77648de5860a4cc508cd0818c85b8b8a1ab4ceeef8d981c8956a6",
            "0x00000000000000000000000055baa850763d3355320ae84af17bd249ddcd1640",
            "0x000000000000000000000000eeb3e0999d01f0d1ed465513e414725a357f6ae4"
          ],
          "data": "0x",
          "blockHash": "0x78ff87265fc12a0a6f8dc70eeea38f4f33036fb6a749570b38041953b4ab54b1",
          "blockNumber": "0x2cee824",
          "blockTimestamp": "0x69bc9570",
          "transactionHash": "0x4ca643455729874cbd2467ed115d1fc49dc9ee7fffb9bf2ea892167a0a06a7bc",
          "transactionIndex": "0xa",
          "logIndex": "0x13",
          "removed": false
        }
      ],
      "logsBloom": "0x00000004004000000000000800000000000000000000000000000000000000000000000400000000000000000000004000000000000000000000000000000820000000000000000000000000000000000000000000000000000000000000000000000000000000000000000000000080000000000000000000000000001000000000000000000000000000000000000000000000000000000000000000000000000000000000000000000000000000000000000000000000003000000000000200000100000000000000000000000000001000000000000100000000000000000000000000000000000000000000000000000000000000000000000000000000",
      "type": "0x2",
      "transactionHash": "0x4ca643455729874cbd2467ed115d1fc49dc9ee7fffb9bf2ea892167a0a06a7bc",
      "transactionIndex": "0xa",
      "blockHash": "0x78ff87265fc12a0a6f8dc70eeea38f4f33036fb6a749570b38041953b4ab54b1",
      "blockNumber": "0x2cee824",
      "gasUsed": "0xc94f",
      "effectiveGasPrice": "0x7a121",
      "blobGasUsed": "0xa0f0",
      "from": "0xeeb3e0999d01f0d1ed465513e414725a357f6ae4",
      "to": "0xd429959619a21a1a9425ce8a9d1404bf315c022b",
      "contractAddress": null,
      "daFootprintGasScalar": "0x190",
      "l1BaseFeeScalar": "0x7d0",
      "l1BlobBaseFee": "0x1",
      "l1BlobBaseFeeScalar": "0xdbba0",
      "l1Fee": "0x7b",
      "l1GasPrice": "0x9",
      "l1GasUsed": "0x67c"
    },
    {
      "status": "0x1",
      "cumulativeGasUsed": "0x30d0c8",
      "logs": [
        {
          "address": "0xd429959619a21a1a9425ce8a9d1404bf315c022b",
          "topics": [
            "0x2f8788117e7eff1d82e926ec794901d17c78024a50270940304540a733656f0d",
            "0x3c11d16cbaffd01df69ce1c404f6340ee057498f5f00246190ea54220576a848",
            "0x00000000000000000000000055baa850763d3355320ae84af17bd249ddcd1640",
            "0x000000000000000000000000eeb3e0999d01f0d1ed465513e414725a357f6ae4"
          ],
          "data": "0x",
          "blockHash": "0x78ff87265fc12a0a6f8dc70eeea38f4f33036fb6a749570b38041953b4ab54b1",
          "blockNumber": "0x2cee824",
          "blockTimestamp": "0x69bc9570",
          "transactionHash": "0x7aff62cf01f7f65c4ac7e479f1e5eeb3bc0ed7fa224b527da1ee75d87b7cc5c0",
          "transactionIndex": "0xb",
          "logIndex": "0x14",
          "removed": false
        }
      ],
      "logsBloom": "0x00000004004010000000000800000000000000000000000000000000000000000000000400000000000000000000000000000000000000000000000000000820000000000000000000000000000000000000000000000000000000000000000000000000000000000000000000000080000000000000000000000000000000000000000000000000000000000000000000000000000000000000000000000000000000000000000000000000000000000000000000004000003000000000000200040100000000000000000000000000000000000000000100000000000000000000000000000000000000000000000000000000000000000000000000000000",
      "type": "0x2",
      "transactionHash": "0x7aff62cf01f7f65c4ac7e479f1e5eeb3bc0ed7fa224b527da1ee75d87b7cc5c0",
      "transactionIndex": "0xb",
      "blockHash": "0x78ff87265fc12a0a6f8dc70eeea38f4f33036fb6a749570b38041953b4ab54b1",
      "blockNumber": "0x2cee824",
      "gasUsed": "0xc943",
      "effectiveGasPrice": "0x7a121",
      "blobGasUsed": "0xa0f0",
      "from": "0xeeb3e0999d01f0d1ed465513e414725a357f6ae4",
      "to": "0xd429959619a21a1a9425ce8a9d1404bf315c022b",
      "contractAddress": null,
      "daFootprintGasScalar": "0x190",
      "l1BaseFeeScalar": "0x7d0",
      "l1BlobBaseFee": "0x1",
      "l1BlobBaseFeeScalar": "0xdbba0",
      "l1Fee": "0x7b",
      "l1GasPrice": "0x9",
      "l1GasUsed": "0x67c"
    },
    {
      "status": "0x1",
      "cumulativeGasUsed": "0x319a0b",
      "logs": [
        {
          "address": "0xd429959619a21a1a9425ce8a9d1404bf315c022b",
          "topics": [
            "0x2f8788117e7eff1d82e926ec794901d17c78024a50270940304540a733656f0d",
            "0x3c11d16cbaffd01df69ce1c404f6340ee057498f5f00246190ea54220576a848",
            "0x000000000000000000000000586a85671780f7756f4d46231845a28d102b7152",
            "0x000000000000000000000000eeb3e0999d01f0d1ed465513e414725a357f6ae4"
          ],
          "data": "0x",
          "blockHash": "0x78ff87265fc12a0a6f8dc70eeea38f4f33036fb6a749570b38041953b4ab54b1",
          "blockNumber": "0x2cee824",
          "blockTimestamp": "0x69bc9570",
          "transactionHash": "0x653f9cab7bfc7c4a76e0357281e97ea153f9eae4cec6917854622e9ee4b41648",
          "transactionIndex": "0xc",
          "logIndex": "0x15",
          "removed": false
        }
      ],
      "logsBloom": "0x00000004004010000000000000000000000000000000000000000000000002000000000000000000000000000000000000000000000000000000000000000820000000000000000000000000000000000000000000000000000000000400000000000000000000000000000000000080000000000000000000000000000000000000000000000000000000000000000000000000000000000000000000000000000000000000000000000000000000000000000000004000001000010000000200040100000000000000000000000000000000000000000100000000000000000000000000000000000000000000000000000000000000000000000000000000",
      "type": "0x2",
      "transactionHash": "0x653f9cab7bfc7c4a76e0357281e97ea153f9eae4cec6917854622e9ee4b41648",
      "transactionIndex": "0xc",
      "blockHash": "0x78ff87265fc12a0a6f8dc70eeea38f4f33036fb6a749570b38041953b4ab54b1",
      "blockNumber": "0x2cee824",
      "gasUsed": "0xc943",
      "effectiveGasPrice": "0x7a121",
      "blobGasUsed": "0xa0f0",
      "from": "0xeeb3e0999d01f0d1ed465513e414725a357f6ae4",
      "to": "0xd429959619a21a1a9425ce8a9d1404bf315c022b",
      "contractAddress": null,
      "daFootprintGasScalar": "0x190",
      "l1BaseFeeScalar": "0x7d0",
      "l1BlobBaseFee": "0x1",
      "l1BlobBaseFeeScalar": "0xdbba0",
      "l1Fee": "0x7b",
      "l1GasPrice": "0x9",
      "l1GasUsed": "0x67c"
    },
    {
      "status": "0x1",
      "cumulativeGasUsed": "0x320d78",
      "logs": [
        {
          "address": "0xd429959619a21a1a9425ce8a9d1404bf315c022b",
          "topics": [
            "0xf6391f5c32d9c69d2a47ea670b442974b53935d1edc7fd64eb21e047a839171b",
            "0x9f2df0fed2c77648de5860a4cc508cd0818c85b8b8a1ab4ceeef8d981c8956a6",
            "0x000000000000000000000000eeb3e0999d01f0d1ed465513e414725a357f6ae4",
            "0x000000000000000000000000eeb3e0999d01f0d1ed465513e414725a357f6ae4"
          ],
          "data": "0x",
          "blockHash": "0x78ff87265fc12a0a6f8dc70eeea38f4f33036fb6a749570b38041953b4ab54b1",
          "blockNumber": "0x2cee824",
          "blockTimestamp": "0x69bc9570",
          "transactionHash": "0xc4e4c2bf0b0affc320ff19ec272ab650ea82a71fe4f8ad8c0a9e331c497d7468",
          "transactionIndex": "0xd",
          "logIndex": "0x16",
          "removed": false
        }
      ],
      "logsBloom": "0x00000000004000000000000000000000000000000000000000000000000000000000000000000000000000000000004000200000000000000000000000000820000000000000000000000000000000000000000000000000000000000000000040000000000000000000000000000080000000000000000000000000001000000000000040000000000000000000000000000000000000000000000000000000000000000000000000000000000000000000000000000000000000000000000200000100000000000000000000000000001000000000000000000000000000000000000000000000000000000000000000000000000000000000000000000000",
      "type": "0x2",
      "transactionHash": "0xc4e4c2bf0b0affc320ff19ec272ab650ea82a71fe4f8ad8c0a9e331c497d7468",
      "transactionIndex": "0xd",
      "blockHash": "0x78ff87265fc12a0a6f8dc70eeea38f4f33036fb6a749570b38041953b4ab54b1",
      "blockNumber": "0x2cee824",
      "gasUsed": "0x736d",
      "effectiveGasPrice": "0x7a121",
      "blobGasUsed": "0x9f60",
      "from": "0xeeb3e0999d01f0d1ed465513e414725a357f6ae4",
      "to": "0xd429959619a21a1a9425ce8a9d1404bf315c022b",
      "contractAddress": null,
      "daFootprintGasScalar": "0x190",
      "l1BaseFeeScalar": "0x7d0",
      "l1BlobBaseFee": "0x1",
      "l1BlobBaseFeeScalar": "0xdbba0",
      "l1Fee": "0x7a",
      "l1GasPrice": "0x9",
      "l1GasUsed": "0x66f"
    },
    {
      "status": "0x1",
      "cumulativeGasUsed": "0x32d6b0",
      "logs": [
        {
          "address": "0x99c6eba2318918c7c8fa12505b3be7d153659a57",
          "topics": [
            "0x2f8788117e7eff1d82e926ec794901d17c78024a50270940304540a733656f0d",
            "0x9f2df0fed2c77648de5860a4cc508cd0818c85b8b8a1ab4ceeef8d981c8956a6",
            "0x00000000000000000000000055baa850763d3355320ae84af17bd249ddcd1640",
            "0x000000000000000000000000eeb3e0999d01f0d1ed465513e414725a357f6ae4"
          ],
          "data": "0x",
          "blockHash": "0x78ff87265fc12a0a6f8dc70eeea38f4f33036fb6a749570b38041953b4ab54b1",
          "blockNumber": "0x2cee824",
          "blockTimestamp": "0x69bc9570",
          "transactionHash": "0x5c527e6779e2c40f6b23a0dcf38f08d30b9cf113503b242af7de751be020cd53",
          "transactionIndex": "0xe",
          "logIndex": "0x17",
          "removed": false
        }
      ],
      "logsBloom": "0x00000004000000000000000800000000000000000000000000000000000000000000000400000800000000000000004000000000000000000000000000000020000000000000000000000000000000000000000000000000000000000000000000000000000000000000000000000080000000000000000000000000001002000000000000000000000000000000000000000000000100000000000000000000000000000000000000000000000000000000000000000000003000000000000000000100000000000000000000000000001000000000000100000000000000000000000000000000000000000000000000000000000000000000000000000000",
      "type": "0x2",
      "transactionHash": "0x5c527e6779e2c40f6b23a0dcf38f08d30b9cf113503b242af7de751be020cd53",
      "transactionIndex": "0xe",
      "blockHash": "0x78ff87265fc12a0a6f8dc70eeea38f4f33036fb6a749570b38041953b4ab54b1",
      "blockNumber": "0x2cee824",
      "gasUsed": "0xc938",
      "effectiveGasPrice": "0x7a121",
      "blobGasUsed": "0xa0f0",
      "from": "0xeeb3e0999d01f0d1ed465513e414725a357f6ae4",
      "to": "0x99c6eba2318918c7c8fa12505b3be7d153659a57",
      "contractAddress": null,
      "daFootprintGasScalar": "0x190",
      "l1BaseFeeScalar": "0x7d0",
      "l1BlobBaseFee": "0x1",
      "l1BlobBaseFeeScalar": "0xdbba0",
      "l1Fee": "0x7b",
      "l1GasPrice": "0x9",
      "l1GasUsed": "0x67c"
    },
    {
      "status": "0x1",
      "cumulativeGasUsed": "0x339fdc",
      "logs": [
        {
          "address": "0x99c6eba2318918c7c8fa12505b3be7d153659a57",
          "topics": [
            "0x2f8788117e7eff1d82e926ec794901d17c78024a50270940304540a733656f0d",
            "0x3c11d16cbaffd01df69ce1c404f6340ee057498f5f00246190ea54220576a848",
            "0x00000000000000000000000055baa850763d3355320ae84af17bd249ddcd1640",
            "0x000000000000000000000000eeb3e0999d01f0d1ed465513e414725a357f6ae4"
          ],
          "data": "0x",
          "blockHash": "0x78ff87265fc12a0a6f8dc70eeea38f4f33036fb6a749570b38041953b4ab54b1",
          "blockNumber": "0x2cee824",
          "blockTimestamp": "0x69bc9570",
          "transactionHash": "0x77c9900fdefa2038dd1e34f3a113e7413ded2a15ad774df46e05567a8f2a5ef7",
          "transactionIndex": "0xf",
          "logIndex": "0x18",
          "removed": false
        }
      ],
      "logsBloom": "0x00000004000010000000000800000000000000000000000000000000000000000000000400000800000000000000000000000000000000000000000000000020000000000000000000000000000000000000000000000000000000000000000000000000000000000000000000000080000000000000000000000000000002000000000000000000000000000000000000000000000100000000000000000000000000000000000000000000000000000000000000004000003000000000000000040100000000000000000000000000000000000000000100000000000000000000000000000000000000000000000000000000000000000000000000000000",
      "type": "0x2",
      "transactionHash": "0x77c9900fdefa2038dd1e34f3a113e7413ded2a15ad774df46e05567a8f2a5ef7",
      "transactionIndex": "0xf",
      "blockHash": "0x78ff87265fc12a0a6f8dc70eeea38f4f33036fb6a749570b38041953b4ab54b1",
      "blockNumber": "0x2cee824",
      "gasUsed": "0xc92c",
      "effectiveGasPrice": "0x7a121",
      "blobGasUsed": "0xa0f0",
      "from": "0xeeb3e0999d01f0d1ed465513e414725a357f6ae4",
      "to": "0x99c6eba2318918c7c8fa12505b3be7d153659a57",
      "contractAddress": null,
      "daFootprintGasScalar": "0x190",
      "l1BaseFeeScalar": "0x7d0",
      "l1BlobBaseFee": "0x1",
      "l1BlobBaseFeeScalar": "0xdbba0",
      "l1Fee": "0x7b",
      "l1GasPrice": "0x9",
      "l1GasUsed": "0x67c"
    },
    {
      "status": "0x1",
      "cumulativeGasUsed": "0x346908",
      "logs": [
        {
          "address": "0x99c6eba2318918c7c8fa12505b3be7d153659a57",
          "topics": [
            "0x2f8788117e7eff1d82e926ec794901d17c78024a50270940304540a733656f0d",
            "0x3c11d16cbaffd01df69ce1c404f6340ee057498f5f00246190ea54220576a848",
            "0x000000000000000000000000586a85671780f7756f4d46231845a28d102b7152",
            "0x000000000000000000000000eeb3e0999d01f0d1ed465513e414725a357f6ae4"
          ],
          "data": "0x",
          "blockHash": "0x78ff87265fc12a0a6f8dc70eeea38f4f33036fb6a749570b38041953b4ab54b1",
          "blockNumber": "0x2cee824",
          "blockTimestamp": "0x69bc9570",
          "transactionHash": "0xea873b1b857bb90b536036728fe97ef318d3def5e2bdcdd67be014c79237d9e2",
          "transactionIndex": "0x10",
          "logIndex": "0x19",
          "removed": false
        }
      ],
      "logsBloom": "0x00000004000010000000000000000000000000000000000000000000000002000000000000000800000000000000000000000000000000000000000000000020000000000000000000000000000000000000000000000000000000000400000000000000000000000000000000000080000000000000000000000000000002000000000000000000000000000000000000000000000100000000000000000000000000000000000000000000000000000000000000004000001000010000000000040100000000000000000000000000000000000000000100000000000000000000000000000000000000000000000000000000000000000000000000000000",
      "type": "0x2",
      "transactionHash": "0xea873b1b857bb90b536036728fe97ef318d3def5e2bdcdd67be014c79237d9e2",
      "transactionIndex": "0x10",
      "blockHash": "0x78ff87265fc12a0a6f8dc70eeea38f4f33036fb6a749570b38041953b4ab54b1",
      "blockNumber": "0x2cee824",
      "gasUsed": "0xc92c",
      "effectiveGasPrice": "0x7a121",
      "blobGasUsed": "0xa0f0",
      "from": "0xeeb3e0999d01f0d1ed465513e414725a357f6ae4",
      "to": "0x99c6eba2318918c7c8fa12505b3be7d153659a57",
      "contractAddress": null,
      "daFootprintGasScalar": "0x190",
      "l1BaseFeeScalar": "0x7d0",
      "l1BlobBaseFee": "0x1",
      "l1BlobBaseFeeScalar": "0xdbba0",
      "l1Fee": "0x7b",
      "l1GasPrice": "0x9",
      "l1GasUsed": "0x67c"
    },
    {
      "status": "0x1",
      "cumulativeGasUsed": "0x34dc8b",
      "logs": [
        {
          "address": "0x99c6eba2318918c7c8fa12505b3be7d153659a57",
          "topics": [
            "0xf6391f5c32d9c69d2a47ea670b442974b53935d1edc7fd64eb21e047a839171b",
            "0x9f2df0fed2c77648de5860a4cc508cd0818c85b8b8a1ab4ceeef8d981c8956a6",
            "0x000000000000000000000000eeb3e0999d01f0d1ed465513e414725a357f6ae4",
            "0x000000000000000000000000eeb3e0999d01f0d1ed465513e414725a357f6ae4"
          ],
          "data": "0x",
          "blockHash": "0x78ff87265fc12a0a6f8dc70eeea38f4f33036fb6a749570b38041953b4ab54b1",
          "blockNumber": "0x2cee824",
          "blockTimestamp": "0x69bc9570",
          "transactionHash": "0x17a3d4345f8011cbf3735a5607ce6cb074bb3ab34ccb13aac812dea9ff6910c8",
          "transactionIndex": "0x11",
          "logIndex": "0x1a",
          "removed": false
        }
      ],
      "logsBloom": "0x00000000000000000000000000000000000000000000000000000000000000000000000000000800000000000000004000200000000000000000000000000020000000000000000000000000000000000000000000000000000000000000000040000000000000000000000000000080000000000000000000000000001002000000000040000000000000000000000000000000000100000000000000000000000000000000000000000000000000000000000000000000000000000000000000000100000000000000000000000000001000000000000000000000000000000000000000000000000000000000000000000000000000000000000000000000",
      "type": "0x2",
      "transactionHash": "0x17a3d4345f8011cbf3735a5607ce6cb074bb3ab34ccb13aac812dea9ff6910c8",
      "transactionIndex": "0x11",
      "blockHash": "0x78ff87265fc12a0a6f8dc70eeea38f4f33036fb6a749570b38041953b4ab54b1",
      "blockNumber": "0x2cee824",
      "gasUsed": "0x7383",
      "effectiveGasPrice": "0x7a121",
      "blobGasUsed": "0x9f60",
      "from": "0xeeb3e0999d01f0d1ed465513e414725a357f6ae4",
      "to": "0x99c6eba2318918c7c8fa12505b3be7d153659a57",
      "contractAddress": null,
      "daFootprintGasScalar": "0x190",
      "l1BaseFeeScalar": "0x7d0",
      "l1BlobBaseFee": "0x1",
      "l1BlobBaseFeeScalar": "0xdbba0",
      "l1Fee": "0x7a",
      "l1GasPrice": "0x9",
      "l1GasUsed": "0x66f"
    },
    {
      "status": "0x1",
      "cumulativeGasUsed": "0x359675",
      "logs": [
        {
          "address": "0xbbd6ab4183a765705d6c00f4c91255acfd8fb61f",
          "topics": [
            "0x388ed3dfe90da32959562ebd4c927e84c145d349ade623681069066761a7a220"
          ],
          "data": "0x0000000000000000000000000000000000000000000000000000000000000000000000000000000000000000586a85671780f7756f4d46231845a28d102b7152",
          "blockHash": "0x78ff87265fc12a0a6f8dc70eeea38f4f33036fb6a749570b38041953b4ab54b1",
          "blockNumber": "0x2cee824",
          "blockTimestamp": "0x69bc9570",
          "transactionHash": "0x5abdb4a59700b29796c371aac0cb126b9d1c4c4e553ed5d4ffb335aeb5528b16",
          "transactionIndex": "0x12",
          "logIndex": "0x1b",
          "removed": false
        }
      ],
      "logsBloom": "0x00000000000000000000001000000000000000000000000000000000000000000000000000000000000000000000000000000000000000000000000000000000000000000000000000000000000000000000000000000000000000000000000000000000000000000000000000000000000000000000000000000000000020000000080000000000000000000000000000000000000000000000000000000000000000000000000000000000000000000000000000000000000000080000000000020000000000000000000000000004000000000000000000000000000000000000000000000000000000000000000000000000000000000000000000000000",
      "type": "0x2",
      "transactionHash": "0x5abdb4a59700b29796c371aac0cb126b9d1c4c4e553ed5d4ffb335aeb5528b16",
      "transactionIndex": "0x12",
      "blockHash": "0x78ff87265fc12a0a6f8dc70eeea38f4f33036fb6a749570b38041953b4ab54b1",
      "blockNumber": "0x2cee824",
      "gasUsed": "0xb9ea",
      "effectiveGasPrice": "0x7a121",
      "blobGasUsed": "0x9c40",
      "from": "0xeeb3e0999d01f0d1ed465513e414725a357f6ae4",
      "to": "0xbbd6ab4183a765705d6c00f4c91255acfd8fb61f",
      "contractAddress": null,
      "daFootprintGasScalar": "0x190",
      "l1BaseFeeScalar": "0x7d0",
      "l1BlobBaseFee": "0x1",
      "l1BlobBaseFeeScalar": "0xdbba0",
      "l1Fee": "0x76",
      "l1GasPrice": "0x9",
      "l1GasUsed": "0x640"
    }
  ],
  "libraries": [],
  "pending": [],
  "returns": {},
  "timestamp": 1773966724732,
  "chain": 1301,
  "commit": "8ec9785"
}